:020000040800F2
:10000000800D0020210100081B0A0008D10600080D
:10001000190A00088D0100085912000800000000AC
:10002000000000000000000000000000C50D0008F6
:100030008F01000800000000810A00082D1100084F
:100040003B0100083B0100083B0100083B010008A0
:100050003B0100083B0100083B0100083B01000890
:100060003B0100083B0100083B0100083B01000880
:100070003B0100083B0100083B0100083B01000870
:100080003B0100083B0100083B0100083B01000860
:100090003B0100083B0100083B0100083B01000850
:1000A0003B0100083B0100083B0100083B01000840
:1000B0003B0100083B0100083B0100083B01000830
:1000C0003B0100083B0100083B0100083B01000820
:1000D0003B0100083B0100083B0100083B01000810
:1000E0003B0100083B0100083B010008DFF80CD091
:1000F00000F03AF8004800473F140008800D002047
:10010000EFF30980704780F309887047EFF30880A8
:10011000704780F30888704740BA7047C0BA70478C
:100120000648804706480047FEE7FEE7FEE7FEE791
:10013000FEE7FEE7FEE7FEE7FEE7FEE73111000817
:10014000ED00000840EA01039B0703D009E008C95D
:10015000121F08C0042AFAD203E011F8013B00F88C
:10016000013B521EF9D27047064C074D06E0E0688D
:1001700040F0010394E8070098471034AC42F6D3EE
:10018000FFF7B8FF7817000898170008FEE77047D8
:1001900030B51A498379026853B30B6893430B60F7
:1001A0000A1D13680468A343136002790A441368A4
:1001B000046823431360114A083213680468A34398
:1001C0001360131D1C680568AC431C604479102C37
:1001D00005D021440A68006802430A6030BD1168F6
:1001E000046821431160196800680143196030BD3B
:1001F0000079084401689143016030BD000401406A
:100200002DE9F0474FF001094FF00208042700F0F4
:1002100059F9204D06466868B04338D000F04CF9D3
:10022000044668683043686000F0CCF806466868A9
:10023000411C03D0C04300F06FF80646E04340077E
:100240000ED0E00700D18146A00701D44FF000088E
:10025000600700D400273A464146484600F07EF940
:10026000042E04D00CA0BDE8F04700F0A1BE16A0FB
:1002700000F09EFE1C4800F09BFE1C4801681C4AD2
:1002800001F4E06111430160BFF34F8FFEE719A055
:10029000E9E700005C0000204572726F723A204668
:1002A0006C61736820777269746520756E70726F07
:1002B00074656374696F6E206661696C6564202E75
:1002C0002E2E0D0A000000005772697465205072CE
:1002D0006F74656374696F6E2064697361626C65C5
:1002E00064202E2E2E0D0A00281500080CED00E0CB
:1002F0000400FA05466C617368206D656D6F727954
:10030000206E6F742077726974652070726F7465E7
:10031000637465640D0A00002DE9F043C043C7B261
:10032000C0F30726C0F30745040E4FF400594846B2
:1003300000F044F904283BD1DFF87C801D4AC8F85E
:1003400008201E4AC8F80820D8F8102042F01002F1
:10035000C8F81020FF2F06D019480780484600F043
:100360002DF904281BD1FF2E07D01548801C0680CC
:10037000484600F023F9042811D1FF2D07D010487A
:10038000001D0580484600F019F9042807D1FF2C0C
:1003900007D00B48801D0480484600F00FF905285F
:1003A00006D0D8F8102041F6EF731A40C8F8102094
:1003B000BDE8F0832301674500200240AB89EFCD03
:1003C00008F8FF1F70B5A52500F06CF800B10025F6
:1003D0004FF43026304600F0F1F8042827D1154CB0
:1003E0001348A0601448A060206940F020002061FC
:1003F000206940F040002061304600F0DFF841F60F
:10040000EF7604280ED1206941F6DF7108402061A3
:10041000206940F010002061084805804FF400502A
:1004200000F0CCF8052802D021693140216170BD6F
:100430002301674500200240AB89EFCD00F8FF1F84
:1004400070B505464FF43026304600F0B7F8042862
:1004500011D1094C206940F00200206165612069DA
:1004600040F040002061304600F0A8F8216941F6D4
:10047000FD721140216170BD002002400849042036
:10048000CA68D20701D001207047CA68520701D557
:1004900002207047C968C906FBD5032070470000D9
:1004A0000020024003490020C969890700D50120C6
:1004B00070470000002002400148C0698008704772
:1004C000002002400148006A7047000000200240FE
:1004D0000248016941F0800101617047002002403B
:1004E00001B50098810503D0012101EB902008BDE2
:1004F000800A08BD2DE9F841064600204FF4005758
:1005000000900D46384600F059F8042816D10C4CDE
:10051000206940F0010020613580B846384600F07F
:100520004DF8BF1E042806D1B61C280C009630805A
:10053000404600F043F8216939402161BDE8F88167
:10054000002002400348024941600349416070476E
:100550002301674500200240AB89EFCD2DE9F04132
:10056000134C0746114816460D46A0601148A0607E
:100570004FF40058404600F021F8042813D12069B8
:1005800040F01000206135430B493D4345F0F80031
:100590000880404600F012F8052804D0216941F691
:1005A000EF7211402161BDE8F08100002301674531
:1005B00000200240AB89EFCD02F8FF1F00B50346D3
:1005C000FFF75CFF03E000BFFFF758FF5B1E012849
:1005D00003D0002B00D1052000BD002BF4D1FAE799
:1005E00010B58A0721F003040649130F21440F2296
:1005F0008C689A4094438C608A68984002438A6071
:1006000010BD000000000140F0B5CA78002502F0DE
:100610000F03D20601D58A7813430A784FF00F0EE4
:1006200012F0FF0F4FF001021CD004680F8802FA8D
:1006300005F63740B74211D14FEA850C0EFA0CF798
:1006400024EA070703FA0CF43C43CF78282F02D0A2
:10065000482F02D002E0466100E006616D1C082DC3
:10066000E4D304600C88FF2C1ED944685FF00006B8
:1006700006F1080702FA07F50F882F40AF420FD1A5
:100680004FEA860C0EFA0CF7BC4303FA0CF73C4316
:10069000CF78282F00D14561CF78482F00D1056150
:1006A000761C082EE4D34460F0BD02460020926818
:1006B0000A4200D00120704708B500208DF80000E4
:1006C000684600F047FC0028FAD09DF8000008BDFD
:1006D000FEE71FB5694600900020ADF80400ADF8B4
:1006E0000600ADF80800ADF80C000C20ADF80A00CB
:1006F000002000F083FA1FBDFFF7EAFE06480168FC
:10070000890005D544680068FFF703FDA04702E0B3
:1007100002A000F04DFCFEE7003000084A756D7045
:1007200020746F206170706C69636174696F6E20F2
:100730006572726F72210D0A00000000F0B5002290
:100740000D4B154614460A27B1FBF3F63036865496
:10075000B1FBF3F603FB1611B3FBF7F3521C86183B
:1007600016F8016C302E00D125B16D1C641C0A2CCA
:10077000EAD3F0BD0022F9E700CA9A3B304800F006
:1007800017FC304800F014FC2F4800F011FC2F48F3
:1007900000F00EFC2C4800F00BFC2D4800F008FC8B
:1007A000294800F005FC2B4800F002FC244800F02A
:1007B000FFFB29A000F0FCFB29482A4C012500681A
:1007C000A0F10060000B206005FA00F0401EC0435D
:1007D0006060FFF777FE6168814301D0A56001E0AA
:1007E0000020A06020A000F0E3FB2FA000F0E0FBC1
:1007F0003CA000F0DDFBA06810B149A000F0D8FBE0
:1008000056A000F0D5FBFFF757FF312804D032285F
:1008100005D0332805D007E000F0D6FAE2E7FFF76D
:100820006BFFA068012806D0A06838B15BA000BFAC
:1008300000F0BEFBD6E7FFF7E3FCD3E767A0F7E7DE
:10084000DC160008BC150008741500089416000892
:10085000041600084C1600080D0A0D0A00000000DE
:100860006C0000205C0000200D0A3D3D3D3D3D3DFB
:100870003D3D3D3D3D3D3D3D3D3D3D3D3D3D3D3DA8
:100880003D204D61696E204D656E75203D3D3D3DBD
:100890003D3D3D3D3D3D3D3D3D3D3D3D3D3D3D3D88
:1008A0003D3D3D0D0A0A000020446F776E6C6F617C
:1008B0006420496D61676520546F2074686520531A
:1008C000544D33324631307820496E7465726E6112
:1008D0006C20466C617368202D2D2D2D2D2D20311F
:1008E0000D0A0A00204578656375746520546865B3
:1008F000204E65772050726F6772616D202D2D2D0F
:100900002D2D2D2D2D2D2D2D2D2D2D2D2D2D2D2D17
:100910002D2D2D2D2D2D2D2D2D2D20320D0A0A00A2
:100920002044697361626C65207468652077726920
:1009300074652070726F74656374696F6E202D2DFD
:100940002D2D2D2D2D2D2D2D2D2D2D2D2D2D2D2DD7
:100950002D2D2D2D2D2D20330D0A0A003D3D3D3D21
:100960003D3D3D3D3D3D3D3D3D3D3D3D3D3D3D3DB7
:100970003D3D3D3D3D3D3D3D3D3D3D3D3D3D3D3DA7
:100980003D3D3D3D3D3D3D3D3D3D3D3D3D3D3D3D97
:100990003D3D3D3D3D0D0A0A00000000496E766177
:1009A0006C6964204E756D62657221203D3D3E206C
:1009B000546865206E756D6265722073686F756C22
:1009C000642062652065697468657220312C20326C
:1009D0002C206F7220330D0A00000000496E7661F2
:1009E0006C6964204E756D62657221203D3D3E202C
:1009F000546865206E756D6265722073686F756CE2
:100A000064206265206569746865722031206F72A8
:100A100020320D0A00000000FEE7704770B50F237A
:100A2000C47801780122F4B1144C2468457804F4A8
:100A3000E064C4F5E064240AC4F10406E340847869
:100A4000B5401C402C4301F1E021230181F8003422
:100A5000007800F01F018A404009800000F1E0208A
:100A6000C0F8002170BD01F01F00824048098000DD
:100A700000F1E020C0F8802170BD00000CED00E026
:100A800070470000044A0029D16901D0014300E009
:100A90008143D1617047000000100240044A0029E0
:100AA000916901D0014300E08143916170470000EA
:100AB0000010024030B51F494A6812F00C031E4A6C
:100AC00003D0042B01D0082B21D002604A680F23E9
:100AD0001A4C03EA1212A35C0268DA4042604B68C7
:100AE000072505EA1323E35C22FA03F383604B68CE
:100AF00005EAD323E35CDA40C2604968032303EAD2
:100B00009131231F595CB2FBF1F1016130BD4A689C
:100B10004B6802F470124FF0020413F4803F04EBB0
:100B2000924202D04B689B0301D5054B00E0024B7B
:100B30005A43CAE70010024000127A000400002065
:100B400000093D0070B50C46054604E0284600F05B
:100B500001FA012804D0641EF8D24FF0FF3070BDB6
:100B6000002070BD2DE9F84F884600210646C8F8E0
:100B70000010924611466846FFF7E4FF4FF0FF3938
:100B8000B0BB9DF80000182814D006DC012809D05D
:100B9000022809D004282BD12EE0412816D0612844
:100BA00026D113E0802401E04FF4806401253070E9
:100BB000671D15E051466846FFF7C4FFC0B99DF8B0
:100BC0000000182814D1C8F8009015E00120BDE8F5
:100BD000F88F70195146FFF7B5FF48B96D1CADB2DB
:100BE000BD42F6D3B178707881F0FF01884201D020
:100BF0004846ECE7C8F800400020E8E7F8B50E46A4
:100C0000044625492448083150F8240051F824109E
:100C1000084340F001000121FFF740FF1E4808385B
:100C20009CB350F824000121FFF72CFF18208DF809
:100C3000030019486946183830F81400ADF8000070
:100C400003208DF80200154850F82400FFF7DCFC63
:100C500004208DF8030010486946143830F8140059
:100C6000ADF800000D48083050F82400FFF7CCFC28
:100C70000A4D3146083D55F8240000F093FA55F826
:100C80002400012100F07CFAF8BDFFE70068012193
:100C9000FFF704FFCAE70000981400081C000020BA
:100CA00038B504460C48012150F82400FFF7F6FE41
:100CB00009486946203830F81400ADF800001020CB
:100CC0008DF8030003208DF80200044850F824003A
:100CD000FFF79AFC38BD0000A81400082C00002083
:100CE0000349044A31F8101052F82000416170475E
:100CF000881400082C0000200349044A31F8101021
:100D000052F8200001617047881400082C00002070
:100D10000349044A31F8101052F82000FFF7C5BC0F
:100D2000B81400083C0000207FB5044623480D4657
:100D3000012150F8240040F00100FFF7AFFE04202D
:100D40008DF80F001D4803A9103830F81400ADF8D5
:100D50000C001B4850F82400FFF756FC012D2CD145
:100D60001648403010F81410103810F81400FFF72F
:100D700037FC1248203030F81400009000208DF825
:100D800004000CB10C2000E008208DF805000125BE
:100D90008DF806506846FFF7FBF90848503010F808
:100DA00014008DF808000F208DF809008DF80A0056
:100DB0008DF80B5002A8FFF731FE7FBDC814000864
:100DC0003C000020704700003EB518A207CA8DE81D
:100DD000070019A000F0ECF8264800F03FFA041EC6
:100DE00014DD254800F0E4F8244800F0E1F821463D
:100DF0006846FFF7A3FC22A000F0DAF8684600F08E
:100E0000D7F822A000F0D4F823A008E0601C05D099
:100E1000A01C07D0E41C07D028A000E030A000F000
:100E2000C7F83EBD3EA0FAE744A0F8E72020202006
:100E3000202020202020000057616974696E6720FF
:100E4000666F72207468652066696C6520746F2017
:100E500062652073656E74202E2E2E2028707265B8
:100E600073732027612720746F2061626F72742969
:100E70000A0A0D007C000020241700087C040020D2
:100E80000A0D2053697A653A2000000020427974E7
:100E900065730D0A000000002D2D2D2D2D2D2D2DFB
:100EA0002D2D2D2D2D2D2D2D2D2D2D2D2D2D2D2D72
:100EB0002D2D2D2D2D2D2D2D0A0000000A0A0D4659
:100EC00061696C656420746F20726563656976651D
:100ED000207468652066696C65210A0D00000000B9
:100EE0000A0A0D54686520696D6167652073697A27
:100EF0006520697320686967686572207468616E2F
:100F00002074686520616C6C6F7765642073706114
:100F10006365206D656D6F7279210A0D0000000018
:100F20000A0A0D566572696669636174696F6E209D
:100F30006661696C6564210A0D0000000D0A0A41B2
:100F4000626F7274656420627920757365722E0A0F
:100F50000D00000010B504462021084800F01AF9E1
:100F600000280AD00320FFF7C7FE0448001D0088B0
:100F700020700320FFF7B4FE012010BD00380140AF
:100F800010B504460320FFF7B7FE2146074C204664
:100F900000F05EF98021204600F0FCF80028F9D02E
:100FA000BDE810400320FFF79BBE00000038014061
:100FB00010B5044603E000BFFFF7E2FF641C207891
:100FC0000028F9D110BD00000CB500212648019180
:100FD0000091026842F4803202604FF4A06302681C
:100FE00002F400320092019A521C0192009A12B946
:100FF000019A9A42F3D10268920333D501210091FC
:101000001A490A6842F010020A600A6822F00302D4
:101010000A600A6842F002020A6041684160416861
:101020004160416841F480614160416821F47C1174
:101030004160416841F4E8114160016841F080710C
:10104000016001688901FCD5416821F0030141601C
:10105000416841F0020141604168C1F38101022908
:10106000FAD10CBD00910CBD0010024000200240DE
:1010700070B5002204781346302C04D14478782CC3
:101080000AD0582C08D06FF02F05845C74B36B2CF9
:101090002ED04B2C2CD030E082780AB30224025D93
:1010A0005AB1A2F14105052D0AD9A2F16106052E1A
:1010B00006D91135092D07D913E001200B6011E085
:1010C000A2F13006092E01D8303A04E0052D01D8EE
:1010D000373A00E0573A641C02EB03130B2CDED3C3
:1010E00002E000200B2C00D3002070BD0B6002E05A
:1010F0001AB1980207E0012015E06D2C01D04D2CAB
:1011000003D112B118050860F5E7A4F13006092EE5
:1011100008D803EB830305EB4303521C23440B2A3B
:10112000B3D3E1E700200B2ADED270BD7047000088
:101130000F4810B5016841F00101016041680D4A96
:101140001140416001680C4A11400160016821F4BE
:1011500080210160416821F4FE0141604FF41F01CC
:101160008160FFF731FF05494FF00060086010BD56
:10117000001002400000FFF8FFFFF6FE08ED00E05F
:101180000029818902D041F4005101E021F400518D
:10119000818170470246002012880A4200D0012057
:1011A0007047000030B50446008A85B00D464CF605
:1011B000FF710840E98801432182A1894EF6F310AE
:1011C0000140A8882A8910436A890A431043A081F4
:1011D000A08A4FF6FF410840A9890143A1826846D1
:1011E000FFF768FC1948844201D1039800E0029897
:1011F000A189090400EBC00101EB0010296801D5A9
:10120000490000E08900B0FBF1F06422B0FBF2F18C
:1012100009010B096FF018056B4300EB8300A389EC
:101220001D044FF0320306D503EBC000B0FBF2F013
:1012300000F0070005E003EB0010B0FBF2F000F057
:101240000F000843208105B030BD00000038014088
:10125000C1F3080181807047FEE700002DE9F04FDF
:1012600080460020ADF2244D6B4CDFF8A8B1CDF8DC
:101270000804C4F804B0054607464FF480194FF03F
:10128000FF3ACDF8100400264A460DF20C4168469C
:10129000FFF768FC88B1012868D0002F00DD6D1CC5
:1012A000052D79DD1820FFF76BFE1820FFF768FE8B
:1012B00000200DF2244DBDE8F08FDDF80C24002550
:1012C000524507D042B19DF80100F1B288420BD0DF
:1012D00015209BE00620E9E70620FFF751FEDDF828
:1012E00010040028CFD05BE046B140460DF1030169
:1012F000FEF728FF0027C4F810806CE09DF803007B
:1013000098B30021454B0DF1030002E05A54401CF4
:10131000491C02780AB1FF29F8DD00275F543946DD
:101320000DF21443401C02E05A54401C491C027840
:10133000202A01D01029F7DB5F540DF58161184692
:10134000FFF796FEDDF80804B0F5003F07DB182034
:10135000FFF716FE1820FFF713FE5046A9E7FFF728
:10136000BFF8C4E9027038460BE016E044E062883A
:10137000616802FB0010FFF763F82070A068401C52
:10138000A060E168884202D221780429EFD00620CB
:10139000FFF7F6FD43202AE037E00620FFF7F0FDD7
:1013A000DDF8080485E721690968FFF7A3F860689C
:1013B000216902680B689A4208D01820FFF7E0FD07
:1013C0001820FFF7DDFD6FF0010072E7091D001D19
:1013D00021613F1D6060DDF80C04874206DADDF80C
:1013E0000824606802EB0B018842DCD30620FFF77B
:1013F000C7FD0127761C47E71820FFF7C1FD18201D
:10140000FFF7BEFD6FF0020053E74320FFF7B8FD82
:101410003AE7000000300008680000207C0400204B
:1014200002E008C8121F08C1002AFAD170477047AD
:10143000002001E001C1121F002AFBD17047FFF715
:1014400081F800210220FFF76FFC0220FFF760FC0B
:1014500010B1FFF751F9FEE70020FFF721FC032050
:10146000FFF71EFC0020FFF747FC0320FFF738FCC6
:101470004FF49640FFF72DF9FFF780F9EBE70000F6
:1014800000020400000408000100800000010800C0
:101490000040000000000200040000000400000002
:1014A00004000000040000001000000080000000A4
:1014B0008000000010000000010000200004002057
:1014C00000400080000880000400000010000000C0
:1014D00010000000000100000001000000010000F9
:1014E00000010000000100000100002000040020B5
:1014F000004000800008800000000200020006009A
:10150000060006000600060000000D000A000D009F
:101510000E000F000B00070006002800280028001E
:1015200028002800280017002E2E2E20616E64202F
:10153000612053797374656D2052657365742077EB
:10154000696C6C2062652067656E657261746564A4
:1015500020746F2072652D6C6F6164207468652043
:101560006E6577206F7074696F6E20627974657331
:101570000D0A00000D0A3D202020202020202020E0
:10158000202020202020202020202020202020205B
:10159000202020202020202020202020202020204B
:1015A000202020202020202020202020202020203B
:1015B00020202020202020203D0000000D0A3D207A
:1015C00020202020202020202020202020284329E7
:1015D00020434F505952494748542032303130202F
:1015E00053544D6963726F656C656374726F6E6995
:1015F0006373202020202020202020202020202055
:101600003D0000000D0A3D20202020202020202029
:1016100020202020202020202020202020202020CA
:1016200020202020202020202020204279204D43EF
:1016300044204170706C69636174696F6E205465F9
:10164000616D2020202020203D0000000D0A3D205B
:10165000202020202020202020202020202020208A
:1016600020202020202020202020202020204D6FFE
:1016700064696669656420627920353931383831AA
:101680003231384071712E636F6D20202020202070
:101690003D0000000D0A3D2020202020496E2D41F4
:1016A00070706C69636174696F6E2050726F6772DD
:1016B000616D6D696E67204170706C6963617469FA
:1016C0006F6E20202856657273696F6E20332E3539
:1016D0002E302920202020203D0000000D0A3D3D15
:1016E0003D3D3D3D3D3D3D3D3D3D3D3D3D3D3D3D2A
:1016F0003D3D3D3D3D3D3D3D3D3D3D3D3D3D3D3D1A
:101700003D3D3D3D3D3D3D3D3D3D3D3D3D3D3D3D09
:101710003D3D3D3D3D3D3D3D3D3D3D3D3D3D3D3DF9
:101720003D0000000A0A0D2050726F6772616D6DF6
:10173000696E6720436F6D706C65746564205375C6
:10174000636365737366756C6C79210A0D2D2D2D9D
:101750002D2D2D2D2D2D2D2D2D2D2D2D2D2D2D2DB9
:101760002D2D2D2D2D2D2D2D2D2D2D2D2D0D0A20F9
:101770004E616D653A2000009817000800000020B7
:101780007C00000020140008141800087C000020D1
:10179000040D0000301400080204060800000000D8
:1017A000010203040102030406070809003801408E
:1017B00000440040000801400008014000080140CA
:1017C0000008014000100140001C0140001C0140C5
:1017D00000100140000801400010014000100140CD
:1017E0000020014000200140002001400020014075
:1017F0000020014000000000000000000000000088
:101800000400000400300008000000000000000098
:0418100000000000D4
:04000005080000ED02
:00000001FF
