:020000040800F2
:10000000B83300209901000813290008F31D0008E7
:10001000112900088F0200083F2C00080000000092
:1000200000000000000000000000000001010008C6
:10003000B502000800000000450100082D29000855
:10004000B3010008B3010008B3010008B3010008C0
:10005000B3010008B3010008B3010008B3010008B0
:10006000B3010008B3010008B301000891020008C1
:10007000B3010008B3010008B3010008B301000890
:100080009D020008A902000829020008B301000827
:10009000B3010008B3010008B3010008B301000870
:1000A000B30100080D2A0008B3010008B3010008DD
:1000B000B3010008B3010008B3010008011E0008E5
:1000C000F51D0008B3010008B3010008B3010008E2
:1000D000B3010008B3010008B3010008B301000830
:1000E000B3010008B3010008B3010008DFF80CD029
:1000F00000F088F800480047812C0008B833002041
:10010000224B19680868B0E8F00F80F30988BFF344
:100110006F8F4FF0000080F311884EF00D0E704786
:100120000000000006480068006880F3088862B696
:1001300061B6BFF34F8FBFF36F8F00DF00BF00BF0B
:1001400008ED00E0EFF30980BFF36F8F0F4B1A68E3
:1001500020E9F00F106008B54FF0500080F31188CF
:10016000BFF34F8FBFF36F8F03F056F94FF00000CE
:1001700080F31188BDE8084019680868B0E8F00FFE
:1001800080F30988BFF36F8F704700BF1C00002009
:10019000EFF3058070470000064880470648004797
:1001A000FEE7FEE7FEE7FEE7FEE7FEE7FEE7FEE727
:1001B000FEE7FEE7C1290008ED00000840EA010360
:1001C0009B0703D009E008C9121F08C0042AFAD20D
:1001D00003E011F8013B00F8013B521EF9D27047D1
:1001E000D2B201E000F8012B491EFBD27047002279
:1001F000F6E710B513460A4604461946FFF7F0FF26
:10020000204610BD064C074D06E0E06840F00103B3
:1002100094E8070098471034AC42F6D3FFF76AFF22
:10022000E03700080038000810B5044800F0F7F87F
:10023000BDE81040024800F0F2B80000780000204D
:10024000A800002070B5044600688168C943C9074A
:100250001BD1816821F00101816000F079FC054625
:100260000EE000F075FC401B022809D9A06A40F09E
:100270001000A062E06A40F00100E062012070BD61
:1002800020688068C043C007EBD0002070BDFEE747
:10029000014800F097BA0000B8010020014800F0C2
:1002A00091BA000040020020014800F08BBA000023
:1002B000FC010020704770477047000010B590F8AF
:1002C000242000238CB0012A18D0012280F8242099
:1002D000114A009202689468E443E40711D0009C3C
:1002E000A468E443E4070CD00C4CA24209D1546842
:1002F000096824F470240C43546007E002200CB019
:1003000010BD816A41F0200181620123002180F843
:1003100024101846F3E700000028014000240140A3
:10032000F8B50023009390F824201C46012A12D02F
:10033000012280F824204A681F26072A0DD205686A
:100340006F6B521E02EB82029640B7430E689640D6
:1003500037436F6319E00220F8BD05680D2A0AD201
:100360002F6BD21F02EB82029640B7430E68964075
:1003700037432F6309E0EF6A0D3A02EB82029640A1
:10038000B7430E6896403743EF620A680726056850
:100390000A2A0AD3EF680A3A02EB42029640B743B0
:1003A0008E6896403743EF6008E02F6902EB420207
:1003B0009640B7438E68964037432F610A68102AEB
:1003C00001D0112A20D1124D0268AA4217D1956896
:1003D0002D0219D4956845F4000595600968102927
:1003E00012D10C490C4A0968B1FBF2F101EB810111
:1003F000490000E0491E00910029FBD104E0816A18
:1004000041F020018162012380F824401846F8BDA4
:10041000002401401800002040420F00704710B532
:10042000044600684168890626D50168890723D5F6
:10043000A16AC90603D4A16A41F40071A16281686E
:10044000C1F34241072910D1217B71B9416821F0E4
:1004500020014160A06A20F48070A062A06AC004FC
:1004600003D4A06A40F00100A0622046FFF7D6FF47
:1004700021686FF0120008602068416809062ED5D7
:10048000016849072BD5A16AC90603D4A16A41F4C2
:100490000051A1628168C1F30231072909D0416886
:1004A000490515D48168C1F34241072910D1217B48
:1004B00071B9416821F080014160A06A20F4805048
:1004C000A062A06AC00503D4A06A40F00100A06247
:1004D0002046FFF7F1FE21686FF00C0008602068ED
:1004E000416849060DD50068C0070AD0A06A40F4EB
:1004F0008030A062204600F093F821686FF0010080
:10050000086010BD2DE9F0414FF0000604003546AB
:100510007ED0A06A002728B9E76284F824702046BC
:1005200000F080F82046FFF78DFEA16A01F010016F
:10053000014304D0A06A40F01000A06268E0A16A04
:1005400021F4885141F00201A1626268E169237BD4
:100550000A4346EA43010A43A1684FF48076B14258
:1005600008D0012906D0002194F814C0BCF1010F75
:1005700002D00AE03146F7E7F3B1A36A43F0200363
:10058000A362E36A43F00103E3622368D3F804C083
:100590002CF4694C4CEA010CC3F804C021688B6848
:1005A000DFF870C003EA0C0313438B60A168B1420B
:1005B0000BD0012909D00CE0DFF85CC0A3690CEB7B
:1005C00043330B4343F40061DFE7218A0D05A5F5B2
:1005D00080152168CB6A23F470032B43CB6221681A
:1005E00089680E4B1940914208D1E762A16A21F057
:1005F000020141F00101A162BDE8F081A06A20F092
:10060000020040F01000A062E06A40F00100E062E9
:100610000120F1E7FDF7E1FF00E0FFFFFE0E1FFF05
:10062000704700002DE9F04186B000240546009493
:100630000194029403940068334A34490326DFF896
:10064000D08090423CD1886940F40070886188690C
:1006500000F400700490886940F0040088618869A3
:1006600000F004000490886940F0080088618869FF
:10067000802700F00800CDE90076049069462548FF
:1006800000F07AF9009669464046019600F074F948
:10069000224E2148C6E900048015B460C6E9037003
:1006A000800070612020B0614FF44050F06130460E
:1006B00000F034F908B1FFF7FEFD2E62756218E014
:1006C000174A90421DD1886940F48060886188692A
:1006D00000F480600490886940F0080088618869AF
:1006E000009600F00800049069460196404600F02C
:1006F00043F900220521122000F0A2FD122000F093
:1007000091FD06B0BDE8F0810024014000100240D8
:10071000000C01400008014008000240B801002020
:100720000028014010B590F821100024022903D0C0
:100730000421816301243DE001680A6822F00E0271
:100740000A6001680A6822F001020A601A4A016818
:10075000914201D1012121E0174A1432914201D185
:1007600010211BE0144A2832914201D1891515E06D
:10077000114A3C32914201D189140FE00E4A5032A5
:10078000914202D14FF4803108E00B4A6432914229
:1007900002D14FF4801101E04FF08071064A083A0F
:1007A0005160012180F82110002180F82010416B58
:1007B00001B18847204610BD0800024090F8210092
:1007C000704700002DE9F05FC16B0B6801680A6893
:1007D000046C4FF0040C0CFA04FC4A4DDFF828A11D
:1007E0004A4E4B4FDFF82CB1DFF82CE11CEA030F27
:1007F0002DD05FEA427C2AD50A68920603D40A68A3
:1008000022F004020A600168A94201D1042119E022
:10081000514501D1402115E0B14202D14FF4806130
:1008200010E0B94202D14FF480410BE0594502D1AA
:100830004FF4802106E0714502D14FF4800101E0C0
:100840004FF080612F4A083A5160C16A3BE04FF097
:10085000020808FA04F818EA030F4FF000094FF0F5
:10086000010C35D05FEA827832D50A68920605D449
:100870000A6822F00A020A6080F821C00168A942D1
:1008800001D1022119E0514501D1202115E0B142E9
:1008900002D14FF4007110E0B94202D14FF400517F
:1008A0000BE0594502D14FF4003106E0714502D109
:1008B0004FF4001101E04FF00071124A083A516004
:1008C00080F82090816A00291AD0BDE8F05F0847BF
:1008D0000825A5401D4213D0120711D50A6822F041
:1008E0000E020A6090F84010C26B0CFA01F15160E0
:1008F000C0F838C080F821C080F82090016BE2E792
:10090000BDE8F09F080002401C0002403000024099
:1009100044000240580002406C00024030B528B349
:1009200002C8134A14230A44B2FBF3F29200C263D2
:10093000104A8263022242770B6843F6F0729343B7
:10094000D0E900242243D0E902452C432243046924
:10095000224344692243846922431A430A600021E6
:100960004163012242770177084630BD012030BD46
:10097000F8FFFDBF000002402DE9F84FDFF8A49119
:10098000002409F1040A0AF1040B23464FF00F0872
:100990000BF1040EBEE00127A7403A40BA4272D1E3
:1009A000DFF884C14D68A5EB0C0665452BD00DDC46
:1009B000032D34D005DC35B3012D19D0022D2FD1F4
:1009C0001BE0112D16D0122D2AD119E0B6F5881F83
:1009D00019D006DCB6F5803F15D0B6F5801F1FD1C3
:1009E00011E0B6F5001F0ED0B6F5041F18D10AE0CD
:1009F000CB6815E0CB681B1D12E0CB6808330FE015
:100A0000CB680C330CE08B682BB1012B4FF0080343
:100A100003D0476104E0042302E0076100E0002303
:100A2000FF2A01D8064601E000F104064FEA8405DA
:100A300001D9A5F12005376808FA05FC27EA0C075B
:100A400003FA05F547EA050737604D68ED0060D504
:100A5000364DAE6946F00106AE61AD6924F003067D
:100A600005F001050095324D7719BE68A5072D0FD9
:100A700008FA05FC26EA0C06DFF8B8C0604503D189
:100A80004FF0000C17E044E0DFF8ACC0604502D145
:100A90004FF0010C0FE0DFF8A4C0604502D14FF029
:100AA000020C08E0DFF898C0604502D14FF0030C5B
:100AB00001E04FF0040C0CFA05FC4CEA060CC7F8F8
:100AC00008C04D68D9F80060ED034D4601D51643C6
:100AD00000E096432E604D68DAF80060AD0355469D
:100AE00001D5164300E096432E604D68DBF80060A8
:100AF000ED025D4601D5164300E096432E604D6839
:100B0000DEF80060AD02754601D5164300E096435D
:100B10002E60641C0A6832FA04F57FF43CAFBDE82D
:100B2000F88F000000040140000011100010024086
:100B30000000014000080140000C0140001001408D
:100B4000001401400AB1016170470904FBE700008D
:100B500001488068704700000C0000207047704713
:100B60002DE9F04104460068416946680025CF43FD
:100B7000F9050BD4F143C90508D46FF48071012540
:100B800041612068016841F400410160B80508D462
:100B9000F043C00505D421686FF4007045F00205EC
:100BA0004861780527D4F043C00524D494F83E303A
:100BB000628D94F83D00216B202B08D13AB9212891
:100BC00010D029280ED0282801D121290AD0216847
:100BD0006FF48060486194F83E0045F004051028E9
:100BE00004D008E0204601F055FC04E020680168CC
:100BF00041F400710160380508D4F043C00505D404
:100C000021686FF4006045F008054861002D07D0A9
:100C1000206C284320642046BDE8F04101F034B93F
:100C2000BDE8F0812DE9F041026800245168C56AF1
:100C300090F83E3090F83D60102B1CD0402B1AD01D
:100C4000036C002B7ED053694FF02805DB439F07D0
:100C500079D4CF43BF0576D4016C01B1946990F883
:100C60003D3000219D430B467FD0C91E516180F865
:100C70003C30BDE8F081946953694FF42A07DB43A7
:100C80005FEAC37C4FF02A4604D0BD42F1D0B542A2
:100C9000EFD010E0CD43AD050DD4C16AB94201D10A
:100CA000012103E0C16AB14201D10821C162BDE85E
:100CB000F04101F0A9BB1D0716D4CD43AD0513D4F7
:100CC000416CC9B21161416B11B9826B002AD0D05D
:100CD000896A19B9816B896A0029CAD0006841689C
:100CE00041F400614160C4E79D0706D4CD43AD05E2
:100CF00003D4BDE8F04101F0DBBAE4435268640775
:100D00004FEA025215D4002AB3DB1A0608D4CA43AC
:100D1000520505D45A0705D5BDE8F04101F046BAA1
:100D20005A07A6D4C9438905A3D4BDE8F04101F010
:100D3000FDB9002A9DDB5A060CD4CA43520509D4DA
:100D40005A0702E00FE023E00FE005D5BDE8F041CF
:100D500001F0A3B95A078CD4C943890589D4BDE8E9
:100D6000F04101F031B994696DE7556825F480656B
:100D70005560E243540700D50121120601D582894E
:100D800000E0028B80F83C3092B2FFF7E8FE70E79B
:100D9000DC0606D4CC43A40503D4BDE8F04101F041
:100DA000BBBB212E27D0292E25D05C0655D4CC43A1
:100DB000640552D45B0752D590F83D10438D002B4B
:100DC00091D01269436A1A70426A521C4262428D83
:100DD000521E4285428D002A85D12A29D7D1016829
:100DE0004A6822F480624A602221016380F83D5003
:100DF00000F076F93DE71C0623D4CC43640520D4EB
:100E00005B0720D590F83D10438D002BBFD0436A7F
:100E10001B781361426A521C4262428D521E428507
:100E2000428D002AB3D12929B1D101684A6822F440
:100E300080624A602121016380F83D5000F051F941
:100E400017E75B07A3D4C9438905A0D4418D0029C6
:100E50009DD0416A097811610AE05B0797D4C943C4
:100E6000890594D4418D002991D01169426A11708D
:100E7000416A491C4162418D491E4185F9E670472E
:100E800070B504001BD094F83D00002520B984F80B
:100E90003C50204600F0B4F8242084F83D0020683F
:100EA000016821F00101016000F02CFB4D4B6168ED
:100EB000994201D84C4900E04C49884201D20120B6
:100EC00070BD4B492268B0FBF1F1566826F03F0631
:100ED0000E43566062689A4206D94FF496725143A7
:100EE0004FF47A72B1FBF2F12268491C166A26F0BF
:100EF0003F06314311626168994210D84900401E93
:100F0000B0FBF1F2521CC2F30B02042A01D20420FE
:100F100022E0B0FBF1F0401CC0F30B001CE0A26823
:100F2000F2B301EBC10303EB0116431EB3FBF6F36F
:100F30005B1C43F480431B0549D092B301EBC10213
:100F400002EB0111401EB0FBF1F0401CC0F30B009E
:100F500040F4804040F400402168CA694CF6FF73B9
:100F60009A431043C861D4E907100143206802681E
:100F700022F0C00211430160D4E90301014320685B
:100F8000826848F2FF339A4311438160D4E9051027
:100F900001432068C26822F0FF021143C16001E0F2
:100FA0000EE016E02068016841F00101016025644F
:100FB000202084F83D00256384F83E50002070BD59
:100FC00001EB4106431EB3FBF6F35B1CB3E70120C4
:100FD000C2E701EB4101401EB0FBF1F0401CC0F341
:100FE0000B00B7E7A086010080841E0000093D00C9
:100FF00040420F00704770477047704770470000CD
:101000002DE9F04186B00025044600950195029532
:10101000039500682C49884253D12C4EB06940F0AA
:101020000800B061B069694600F008000490C02073
:10103000009012200190032003902548FFF79CFCAC
:10104000F06940F40010F061F069234E00F40010E4
:1010500004902048C6E900054FF08008C6E9025810
:10106000356187147561C6E906573046FFF756FCAF
:1010700008B1FFF720F9A66374621648174E1438BA
:1010800001C61020A6E82101144846F810597561E0
:10109000C6E90657FFF742FC08B1FFF70CF9666393
:1010A000002205211F20746200F0CAF81F2000F002
:1010B000B9F800220521202000F0C2F8202000F01D
:1010C000B1F806B0BDE8F0810054004000100240C5
:1010D000000C014080000240FC0100204002002082
:1010E0007047704770B5040011D021684CF6CC40B1
:1010F0000860216845F255500860D4E9000141605C
:101100002168A0688860FFF723FD054608E00120FC
:1011100070BDFFF71DFD401B302801D9032070BDB5
:101120002068C0680028F4D121684AF6AA20086027
:10113000002070BD024881680278114481607047C8
:101140000C000020074810B5016841F01001016053
:10115000032000F095F8002000F006F800F03EF8BB
:10116000002010BD0020024000B5014687B00022DB
:10117000192000F065F8192000F054F8134881692F
:1011800041F400618161806905A900F40060069066
:10119000684600F097F900F0C5F90D490D4AB0FB1B
:1011A000F1F10D48491E0260416040F2E732002132
:1011B000C0E90321816000F0AAFB10B1012007B053
:1011C00000BD054800F0DCFBF9E70000001002401C
:1011D00040420F00002C0140D80600200F4808B5FF
:1011E000816941F001018161816901F00101009192
:1011F000C16941F08051C161C069002200F0805096
:1012000000900F21901E00F01BF80549486820F05F
:10121000E06040F00070486008BD0000001002402F
:1012200000000140002809DB00F01F02012191406D
:101230004009800000F1E020C0F800117047000074
:10124000F0B40E4B1B68C3F30223C3F10704042C54
:1012500000D904241D1D072D01D2002300E0DB1E50
:10126000012606FA04F56D1E0D409D409E40761E37
:10127000164045EA0601F0BC01F0E2BC0CED00E0CE
:10128000064A00F0070110684FF6FF03184040EAD5
:101290000120034908431060704700000CED00E096
:1012A0000000FA052DE9F84304460078344FC007E2
:1012B00052D0F8690025C00008D4F86940F0805089
:1012C000F861F869012500F0805000902D48016810
:1012D000C90511D40168804641F480710160FFF7AF
:1012E00037FC064604E0FFF733FC801B642822D855
:1012F000D8F80000C005F6D5386A10F4407020D048
:10130000A18801F4407181421BD0386A1E49012234
:1013100020F440700A6000220A603862C00710D0D2
:10132000FFF716FC064641F2883807E0FFF710FC8D
:10133000811B414502D90320BDE8F883386A800744
:10134000F4D5386A616820F44070084338621DB1F2
:10135000F86920F08050F8612078800705D578681A
:10136000A16820F44040084378602078C00605D585
:101370007868E16820F48000084378600020DBE7AB
:101380000010024000700040400442422DE9F04746
:101390000D46040067D0DFF81881D8F8000000F08F
:1013A0000700A8420CD2D8F8001021F00701294309
:1013B000C8F80010D8F8000000F00700A84252D189
:1013C00020683C4E810712D5400703D5706840F471
:1013D000E06070602078000703D5706840F46050CA
:1013E00070607068A16820F0F00008437060207899
:1013F000C00727D06068012810D03168022810D0BB
:10140000890700292FDA716821F003010143716017
:10141000FFF79EFB074641F288390CE031688903EB
:10142000EFE78901EDE7FFF793FBC11B494502D9BF
:101430000320BDE8F0877068616800F00C00B0EB35
:10144000810FF0D1D8F80010404601F00701A94201
:101450000BD9016821F0070129430160006800F001
:101460000700A84201D00120E3E72078400705D516
:101470007068E16820F4E06008437060207800073D
:1014800006D57068216920F4605040EAC1007060A0
:1014900000F058F87168084AC1F30311515CC84064
:1014A0000649086006480068FFF75EFE0020C0E7B6
:1014B0000020024000100240B03700081800002051
:1014C000100000200F2202600C4A536803F003034F
:1014D0004360536803F0F0038360536803F4E063F0
:1014E000C36052684FF4E06303EAD2020261044829
:1014F000006800F00700086070470000001002401C
:10150000002002400448054900684968044AC1F3C4
:101510000221515CC84070471800002000100240B2
:10152000C03700080448054900684968044AC1F307
:10153000C221515CC84070471800002000100240D2
:10154000C037000812A085B00FC88DE80F0014A0A6
:10155000144B006804905968134801F00C02042AE7
:1015600010D0082A0ED1C1F38342C9031DF802002E
:101570000AD5596804AAC1F34041515C0A4A504354
:10158000B0FBF1F005B0704708494843FAE70000A6
:1015900002030405060708090A0B0C0D0E0F1010B4
:1015A000010200000010024000127A0000093D0014
:1015B0002DE9F84F04006FD02078BE4DC00747D00A
:1015C0006868C0F38100012807D06868C0F3810013
:1015D000022809D16868C00306D52868800337D57A
:1015E00060680028E7D033E06068B0F5803F0BD03A
:1015F00010B1B0F5A02F11D0286820F480302860F9
:10160000286820F4802002E0286840F480302860B8
:10161000606888B1FFF79CFA064609E0286840F444
:1016200080202860F0E7FFF793FA801B642873D8C6
:1016300028688003F7D50BE0FFF78AFA064604E036
:10164000FFF786FA801B6428F1D828688003F7D456
:101650002078DFF8648280074FF0010A4FF000091C
:1016600039D5686810F00C0F07D06868C0F38100A6
:10167000022809D16868C00306D42868800714D5F9
:101680002069012808D110E02069B0B1C8F800A095
:10169000FFF75EFA064605E007E1FFF759FA801BFF
:1016A0000228C4D828688007F7D52868616920F027
:1016B000F80040EAC10028600DE0C8F80090FFF78C
:1016C00047FA064604E0FFF743FA801B022823D8B6
:1016D00028688007F7D4207800072CD57748A169BF
:1016E000D9B1C0F800A0FFF733FA064604E0FFF7CF
:1016F0002FFA801B02280FD8686A8007F7D5704838
:101700004FF4FA510068B0FBF1F0009000BF009870
:10171000411E0091FAD20EE07CE0C0F80090FFF785
:1017200017FA064604E0FFF713FA801B022871D867
:10173000686A8007F7D4207840075BD5E8690027FE
:10174000C00008D4E86940F08050E861E8690127EA
:1017500000F0805000905B480168C90511D4016811
:10176000834641F480710160FFF7F2F9064604E018
:10177000FFF7EEF9801B64284CD8DBF80000C005A9
:10178000F6D5E06801280AD008B1052813D0286AE8
:1017900020F001002862286A20F0040002E0286A94
:1017A00040F001002862E06841F2883B88B1FFF711
:1017B000CFF9064609E0286A40F004002862EEE707
:1017C000FFF7C6F9811B59455BD8286A8007F7D512
:1017D0000BE0FFF7BDF9064604E0FFF7B9F9811BFE
:1017E00059454ED8286A8007F7D41FB1E86920F020
:1017F0008050E861E069A8B36968C1F381010229FA
:1018000046D00228484606D0C8F86000FFF7A0F985
:10181000044639E035E04746C8F86000FFF798F91C
:10182000064604E0FFF794F9801B022829D82868AF
:101830008001F7D4206AB0F5803F05D16868A168BF
:1018400020F4003008436860D4E90801084369685F
:1018500021F4741108436860C7F860A0FFF778F9B5
:10186000044605E023E0FFF773F9001B022808D8BF
:1018700028688001F7D51AE0FFF76AF9001B0228F3
:1018800002D90320BDE8F88F28688001F4D40EE067
:101890000128F7D06868226A00F48031914204D1AF
:1018A000616A00F47010884201D00120EAE700204C
:1018B000E8E700000010024000004242800442427B
:1018C00018000020007000407047704770B590F815
:1018D0003C20012A19D0012500F83C5F0222427009
:1018E00050F83C2C5368946823F070060B684968E4
:1018F000334324F080042143536050F83C2C916022
:10190000457000210170084670BD022070BD10B501
:10191000040003D094F83D0010B107E0012010BD91
:10192000002084F83C00204600F00CF8022084F8E7
:101930003D00211D206801F06FF8012084F83D0072
:10194000002010BD08B500680B49B0F1804F0BD0E6
:101950000A4A904207D1C86940F00200C861C869CC
:1019600000F00200009008BDC86940F00100C861A5
:10197000C86900F00100F5E70010024000040040D3
:101980000168CA6842F00102CA600068816801F01B
:101990000701062903D0016841F001010160002020
:1019A000704770B5044690F83C00012817D0012517
:1019B00084F83C50022084F83D002068826822F0C0
:1019C000770222F47F4282600868502830D00DDC14
:1019D00020284DD005DC98B310283BD148E00220E8
:1019E00070BD302844D0402834D139E0602828D058
:1019F000702806D0B0F5805F2CD0B0F5005F29D1FB
:101A00000AE0CB68D1E90121206801F03BF82068A9
:101A1000816841F0770109E0CB68D1E901212068B4
:101A200001F030F82068816841F48041816011E064
:101A3000CA684968206801F0DFF85021206807E093
:101A400016E0CA684968206801F0E7F8602120685C
:101A500001F022F884F83D50002084F83C0070BD6D
:101A6000CA684968206801F0C7F840212068EFE79C
:101A7000226801461046EBE7704770B504460068DF
:101A800001694FF00005C943890715D4C168C943EE
:101A9000890711D4E91E016101202077206880693F
:101AA0008007204602D0FFF7E7FF04E000F0F3F8DC
:101AB000204600F091F9257720680169C94349075C
:101AC00017D4C168C943490713D46FF004010161F9
:101AD000022020772068806910F4407F204602D0E1
:101AE000FFF7CAFF04E000F0D6F8204600F074F9D2
:101AF000257720680169C943090716D4C168C9431D
:101B0000090712D46FF008010161042020772068D2
:101B1000C0698007204602D0FFF7AEFF04E000F066
:101B2000BAF8204600F058F9257720680169C943C2
:101B3000C90617D4C168C943C90613D46FF0100190
:101B40000161082020772068C06910F4407F20469A
:101B500002D0FFF791FF04E000F09DF8204600F06E
:101B60003BF9257720680169C943C90708D1C168D5
:101B7000C943C90704D1891E0161204600F02EF92E
:101B800020680169C943090609D4C168C943090627
:101B900005D46FF0800101612046FFF795FE2068B3
:101BA0000169C943490609D4C168C943490605D436
:101BB0006FF040010161204600F01AF920680169C8
:101BC000C94389060BD4C168C943890607D46FF09D
:101BD000200101612046BDE87040FFF776BE70BD70
:101BE00000B585B000210091019102910391006838
:101BF0000F4988421AD10F48816941F0080181617B
:101C00008069694600F008000490102000900220CE
:101C1000019003900848FEF7AFFE0849486820F499
:101C2000406040F0E06040F40060486005B000BDF6
:101C30000004004000100240000C01400000014080
:101C400070B5044690F83C0001280DD0012584F8B9
:101C50003C50022084F83D0042B1042A0AD0082AF0
:101C60000CD00C2A11D10DE0022070BD206800F0CC
:101C70001BFF0AE0206800F043FF06E0206800F048
:101C80006DFF02E0206800F095FF84F83D500020D1
:101C900084F83C0070BD704710B5040003D094F880
:101CA0003D0010B107E0012010BD002084F83C0089
:101CB000204600F00CF8022084F83D00211D206829
:101CC00000F0AAFE012084F83D00002010BD7047FE
:101CD00070B5044690F83C000D4601280DD0012651
:101CE00084F83C60022084F83D0042B1042A18D0F8
:101CF000082A2AD00C2A4DD139E0022070BD206874
:101D000000F0D2FE2068816941F0080181612068FD
:101D1000816921F004018161206881692A69114388
:101D200011E0206800F0ECFE2068816941F4006158
:101D300081612068816921F4806181612068816905
:101D40002A6941EA0221816124E0206800F006FF4F
:101D50002068C16941F00801C1612068C16921F0B2
:101D60000401C1612068C1692A69114311E020683A
:101D700000F020FF2068C16941F40061C161206862
:101D8000C16921F48061C1612068C1692A6941EAA1
:101D90000221C16184F83D60002084F83C0070BDE0
:101DA00010B5040003D094F83D0010B107E0012005
:101DB00010BD002084F83C00204600F00CF8022002
:101DC00084F83D00211D206800F026FE012084F8E3
:101DD0003D00002010BD70477047000000680349B7
:101DE000884201D1FFF7A6B970470000002C0140DE
:101DF0007047FEE70148FEF7B3BE0000D8000020A0
:101E00000148FEF70FBF0000D800002010B5406A5F
:101E100090F83D30426B00219162826B91620268C2
:101E2000146824F4806414604185426B5163826BB2
:101E300051630268146824F00104146090F83D4076
:101E40002022602C0AD0282434EA03030ED080F824
:101E50003D2080F83E10FFF712F810BD80F83D20BD
:101E600080F83E100164FEF779FE10BD0268136829
:101E700043F0010313600268136843F48063136046
:101E8000016380F83D40E6E770B5044690F83D00F8
:101E900094F83E10102906D1222804D121680A683E
:101EA00022F400620A60282131EA00024FF00006A5
:101EB0004FF0200526D021684968090503D4602821
:101EC00001D084F83D50266384F83E602068416864
:101ED000090537D5416821F400614160606B3849DC
:101EE00090F82120012A11D04163606BFEF71AFCA3
:101EF00038B32068016821F00101016084F83D5089
:101F0000606B1CE0266384F83D10DFE7A06B416343
:101F1000A06BFEF707FCA0B120684169C9434906E0
:101F200005D40069616A0870606A401C60622068BC
:101F3000016821F00101016084F83D50A06B416B04
:101F4000884710E094F83D10602923D04169C943C7
:101F5000490605D40069616A0870606A401C6062C5
:101F60002046FEF78CFF94F83D00216C490710D500
:101F700028280ED12068416821F4E06141601148B1
:101F8000E062266384F83D5084F83E602046FFF707
:101F900031F870BD84F83D5026644169C943490653
:101FA00005D40069616A0870606A401C606220683C
:101FB000016821F0010101602046FEF7CFFDD2E764
:101FC0000D1E00080000FFFF10B5C26A438D0168B6
:101FD000042B06D0438D032B08D0438D022B1DD03C
:101FE00012E04A6822F480624A600CE04B6823F4F5
:101FF00080634B60042A06D0022A04D001680A6874
:1020000022F480620A6001680969426A1170416ABB
:10201000491C4162418D491E418510BD012A30D0C5
:10202000102A2ED0042A30D0022A2ED00A6842F478
:1020300000720A6001680969426A1170416A491CAC
:102040004162428D521E4285026812690A70416ADD
:10205000491C4162418D491E418501684A6822F44C
:1020600040724A60202180F83D1090F83E20002107
:10207000402A80F83E100CD012210163FEF7BBFF0E
:1020800010BD0A6822F48062D3E70A6842F48062D5
:10209000CFE70163FEF7B1FF10BD10B590F83D101A
:1020A000222914D1418D032912D901680969426A94
:1020B0001170416A491C4162418D491E4185418D23
:1020C000032904D10068416821F48061416010BD9A
:1020D000C26A022AFBD0012901D00029F7D1016888
:1020E0000A6822F480620A6001684A6822F4E062A9
:1020F0004A6001680969426A1170416A491C41627B
:10210000418D491E4185202180F83D1090F83E20E8
:102110000021402A80F83E1004D012210163FEF70E
:102120006AFF10BD0163FEF768FF10BD10B5C16AFC
:1021300090F83D20212A0BD1428D52B1416A0268AC
:1021400009781161416A491C4162418D491E4185EE
:1021500010BD20230022082912D0202910D011F50B
:10216000803F0DD001684C6824F4E0644C6011217C
:10217000016380F83E2080F83D30FEF73DFF10BD42
:1021800001684C6824F4E0644C6001680C6844F415
:1021900000740C60026380F83D3090F83E1080F8C7
:1021A0003E204029E9D1FEF729FF10BD10B590F877
:1021B0003D2090F83E30C16A048D64B1212A03D0DD
:1021C000402B20D1222A1ED1418D99B390F83E1088
:1021D000402936D045E0212AF2D1202300220829C7
:1021E00012D0202910D011F5803F0DD001684C6825
:1021F00024F4E0644C601121016380F83E2080F8F3
:102200003D30FEF7F9FE10BD01684C6824F4E0642F
:102210004C6001680C6844F400740C60026380F840
:102220003D3090F83E1080F83E204029E9D1FEF77D
:10223000E5FE10BDFFE70068416821F48061416060
:10224000F7E7016DC1B1016D012922D0016D0229AD
:10225000EFD190F83D10222923D090F83D1021298C
:10226000E7D1416A026809781161416A491C4162FB
:10227000418D491E4185DCE7C16C0129816C02D08A
:10228000C1F3072107E00268C9B21161016D891C21
:1022900005E0816CC9B202681161016D491C0165DC
:1022A000C7E70068016841F480710160C1E7000080
:1022B00078B590F83E40C26A056B90F83D60002307
:1022C0000168222E73D1066D0EB9402C6FD0046DBB
:1022D0001CB90469B4F5404F1BD0448D94B3468DAE
:1022E000484C012E20D0458D022D4DD00D6845F46F
:1022F00080650D6001684D682D0579D5A24273D0C7
:10230000012A71D0082A6FD0102A6DD0202A6BD0F4
:102310006EE04A698A6900920A6842F480720A6033
:10232000016D491C016578BDA24214D10A6822F4EE
:1023300080620A6001684A68120504D50A6822F4BE
:10234000806217E0FFE74A698A6900920A6842F4EE
:1023500000720A6050E0082A10D0202A0ED0122DF8
:102360000AD0042A03D0022A01D0102AE6D10A6832
:1023700042F480620A603BE0012ADFD00A6822F45E
:1023800080620A600168DEE7042A11D0022A0FD0B9
:10239000102A0DD00D6845F400650D6001684D6987
:1023A0008D6900950D6825F480650D6008E025E0D5
:1023B0000D6845F480650D6001684D69896900917B
:1023C00001684D682D0517D5A24207D0012A05D016
:1023D000082A03D0102A01D0202A0DD14A6842F4DD
:1023E00080524A6008E0FFE74A6842F480524A603F
:1023F00001684A6989690091036578BD48698869FF
:10240000009078BD0000FFFF90F83E1040290FD0EB
:102410000169B1F5804F18D0016DA9B3016D012993
:102420000FD1416CF12201F4407142EAD11106E072
:10243000016D0029416C05D0C9B241F0010100686D
:102440000161704701F0FE01F9E790F83D10212984
:10245000416C07D0C9B241F0010102681161416BC2
:1024600031B902E001F0FE01F7E7826B002AE8D003
:10247000896A19B9816B896A0029E2D000684168CC
:1024800041F4006141607047FFE7416CF02201F4C4
:102490004071CAE72DE9F04190F83D30C26A00254D
:1024A00020261C4F01686FF48064082A01D0202A7E
:1024B00001D1282B04D0212B16D04C61BDE8F0812E
:1024C000C7624A6822F4E0624A6001684C610168B0
:1024D0000A6822F480620A60056380F83D6080F833
:1024E0003E50FEF787FDE9E7C7622122026380F8CC
:1024F0003D6080F83E504A6822F4E0624A6001681C
:102500004C6101680A6822F480620A60FEF7E9FD06
:10251000D4E700000000FFFFF8B590F83D500446F6
:102520000068416821F4E06141602068002641694B
:102530000091016841F0010101602068016821F407
:102540008061016020684168090520D5474F222D30
:1025500048D02A2D46D0616B096849686185618D34
:1025600019B1216C41F004012164416821F400613A
:102570004160606BFEF722F9012808D0606B476369
:10258000606BFEF7CFF810B1606B416B8847608DD0
:1025900008B320684169C943490708D40069616AE2
:1025A0000870606A401C6062608D401E6085206813
:1025B0004169C943490608D40069616A0870606AC4
:1025C000401C6062608D401E6085608D18B1206C7B
:1025D00040F004002064206C00B32046BDE8F840C1
:1025E000FFF752BCA16B096849686185618D19B11B
:1025F000216C41F004012164416821F400614160D3
:10260000A06BFEF7DBF80128C1D0A06B4763A06B7D
:10261000FEF788F80028BAD0A06BB6E72A2D06D1BD
:102620002663282084F83D002046FEF759FD94F8E3
:102630003D10202028290DD0216B222901D0222DE8
:1026400007D1266384F83D0084F83E602046FEF7FB
:1026500047FDF8BD0649E162266384F83D0084F831
:102660003E602046FEF7C6FCF8BD00000D1E0008C7
:102670000000FFFF7FB500211548009101910291F4
:10268000124A03910260921582600124047301755D
:1026900002254FF460220561C2614160FDF732FFFF
:1026A0002004009069460A48FDF708FE0720CDE99E
:1026B0000104039001A90648FDF732FE0920CDE987
:1026C000010501A90248FDF72BFE7FBD0024014052
:1026D000780000203EB500240E48009401940C4977
:1026E00002940160891581600473047501250561F8
:1026F0004FF460214460C161FDF704FF0820CDE97B
:102700000005694602940348FDF70AFE3EBD00003D
:1027100000280140A8000020F0B585B00024304812
:102720000094019402940394816941F02001816135
:10273000816901F020010491816941F00401816106
:10274000816901F004010491816941F0080181610E
:102750008069244F00F008004FF480760490002236
:1027600031463846FEF7EEF90325009569461E48C6
:102770000195FEF701F949F63F40CDE900056946AC
:102780003846FEF7F9F84FF41070CDE900046946B9
:1027900038460294FEF7F0F80420CDE90005134D09
:1027A00069462846FEF7E8F801200096CDE90104C5
:1027B0000220039069463846FEF7DEF82820009094
:1027C0000B48CDE9010469462846FEF7D5F80949CA
:1027D000486840F0E06040F40040486005B0F0BD5B
:1027E000001002400008014000140140000C0140AC
:1027F000000011100000014010B58EB000240794B5
:10280000089409940A940B941C2168460C94FDF7D3
:10281000EEFC16484FF08041C0E900148460C460AB
:1028200004618461FFF773F84FF48050079007A9A3
:102830000E48FFF7B6F80D48FFF7B2FA0B940BA954
:102840000A480C94FFF742F86020CDE90004029496
:102850000022694605480494FFF73AFA08226946BF
:102860000248FFF735FA0EB010BD00003801002015
:1028700010B58EB000240794089409940A940B9420
:102880001C2168460C94FDF7B2FC20481E490160EB
:102890004FF4FA61C0E901144FF6FF71C1604FF4C3
:1028A000007184610161FFF732F84FF480500790A6
:1028B00007A91648FFF775F81448FFF771FA13488F
:1028C000FFF7EAF90B940BA910480C94FEF7FEFFF2
:1028D0006020CDE90004042004900022694602949F
:1028E0000A48FFF7F5F9102000904FF6E8500190E4
:1028F0000C22694604940548FFF7A2F90348FFF744
:102900006FF90EB010BD00000004004078010020F7
:10291000FEE77047012000F037FAFBE7012000F0E6
:1029200033FAFBE7012000F02FFAFBE710B5502047
:1029300080F31188BFF34F8FBFF36F8F00F048FE15
:1029400018B104494FF080500860002080F31188CE
:1029500010BD000004ED00E030B593B028216846BA
:10296000FDF745FC14210AA8FDF741FC00240F9453
:102970000A2000900120109411940225CDE906054B
:102980001021CDE9040112944FF46010CDE9084004
:102990006846FEF70DFE0F20CDE90A054FF4E06012
:1029A000CDE90C4002210AA80E94FEF7EFFC4FF48B
:1029B000404011900F950FA8FEF774FC13B030BD86
:1029C0000D48016841F00101016041680B4A114066
:1029D000416001680A4A11400160016821F48021C8
:1029E0000160416821F4FE0141604FF41F018160E4
:1029F0000549044808607047001002400000FFF8D5
:102A0000FFFFF6FE0040000808ED00E00148FFF778
:102A100034B80000D8060020F0B50268164C174DF7
:102A2000174E4FF08047A04205D0B84203D0A842CD
:102A300001D0B04203D122F070034A681A43A04289
:102A400005D0B84203D0A84201D0B04203D122F44D
:102A50004073CA681A434B6922F080021A4302602D
:102A60008A68C2620A688262A04201D10969016370
:102A700001214161F0BD0000002C01400004004034
:102A80000008004010B5846842EA032224F47F4421
:102A90000A432243826010BD826822F070020A431A
:102AA00042F007018160704730B5026A22F00102EE
:102AB0000262036A4268846924F073050C682C433F
:102AC00023F002058B682B430C4DA84206D123F05E
:102AD0000805CB6843EA050323F0040307D14D69D9
:102AE00022F4407245EA02058A6942EA0502426020
:102AF000846149684163036230BD0000002C0140DD
:102B000030B5026A22F010020262026A43688469E8
:102B10000D6824F4E64444EA05248D6822F020027E
:102B200042EA05120C4DA84206D1CD6822F080027F
:102B300042EA051222F0400207D14D6923F44063B6
:102B400043EA85038D6943EA8503436084614968EC
:102B50008163026230BD0000002C014030B5026A82
:102B600022F480720262036A4268C46923F400732B
:102B700024F073050C682C438D6843EA05230C4D43
:102B8000A84206D1CD6823F4006343EA052323F469
:102B9000806307D14D6922F4405242EA05128D69E3
:102BA00042EA05124260C4614968C163036230BDF4
:102BB000002C014030B5026A22F480520262036A9E
:102BC0004268C4690D6824F4E64444EA05248D682B
:102BD00023F4005343EA0533064DA84204D14D695E
:102BE00022F4804242EA85124260C461496801646D
:102BF000036230BD002C014010B5046A036A23F063
:102C000001030362836923F0F00343EA021324F013
:102C10000A020A438361026210BD10B5036A23F001
:102C2000100303628469036A24F4704444EA0232A4
:102C300023F0A00343EA01118261016210BDFEE7A7
:102C40000907090E002804DB00F1E02080F80014D9
:102C5000704700F00F0000F1E02080F8141D70476D
:102C600002E008C8121F08C1002AFAD17047704755
:102C7000002001E001C1121F002AFBD170470000B3
:102C800096B0FEF75FFAFFF767FEFFF745FD3448A1
:102C9000416941F0010141614069002200F00100F9
:102CA000159005210B20FEF7CBFA0B20FEF7BAFAA0
:102CB000002205211020FEF7C3FA1020FEF7B2FA19
:102CC000002205211120FEF7BBFA1120FEF7AAFA17
:102CD000254824494FF48042016024494160002185
:102CE0008160C0E9031241618161C1610162FEF747
:102CF000C7F8FFF7BFFCFFF7BBFD1B481C4954306A
:102D000001600621416040F6FF718160FEF7EAF93B
:102D1000FFF772FDFFF7DEFC1C2216496846FDF73F
:102D20004DFA0021684600F03EF8134C11491C2270
:102D300020601C3107A8FDF741FA002107A800F028
:102D400032F80C4960601C2238310EA8FDF736FAC3
:102D500000210EA800F027F8A06000F01FF8FEE7A1
:102D60000010024000540040D8000020801A0600E5
:102D7000003000405C3700080000002001460020C1
:102D8000842900D0C81C70470A21B0FBF1F010B5AF
:102D900000B9012000F0DCFA002010BD10B500F0F1
:102DA000FDFA002010BD7FB50D4604464169B0F91B
:102DB000080081B1A16971B1FFF7E0FFD4E9051204
:102DC0008DE80700D4E900102B46226900F0D3FB00
:102DD000039004B070BDFFF7D1FF03A9CDE9000156
:102DE000208A2B4682B2D4E9001000F097FB01281C
:102DF00001D00020EDE70398EBE700002DE9F0415A
:102E0000184E0F46044635693068001D00F0DAF9A7
:102E100038B9306890F82C100120884071698143DE
:102E20007161601C07D137B13168BDE8F0410E48CF
:102E3000091D00F00DBA30682C44AC424460316882
:102E400005D2B068BDE8F041091D00F0E9B970682D
:102E5000091D00F0E5F9F06A844200D2F462BDE891
:102E6000F08100001C000020A40700202DE9F041A3
:102E7000054600F0F9F92C4EF068401CF06030680F
:102E80002A4F10B1B06920B329E03560F0680128FD
:102E900025D1002404EB840007EB800000F0B2F998
:102EA000641C042CF6D32148503000F0ABF91F48C5
:102EB000643000F0A7F91D48783000F0A3F91B48F2
:102EC0008C3000F09FF91948503070601430B060B9
:102ED00005E03068E96AC06A884200D83560B06AA7
:102EE0000121401CB062E86A72698140114371613E
:102EF00000EB800007EB8000291D00F0A9F900F02D
:102F0000D3F9B06900280CD03068E96AC06A8842F9
:102F100007D207494FF080500860BFF34F8FBFF3CF
:102F20006F8FBDE8F08100001C0000201807002012
:102F300004ED00E010484FF42051420706D0C01DB8
:102F40000D4920F00700411AC1F520510B4A00231A
:102F50000144C2E900030839103A21F00701116069
:102F60004B600B600B1AC0E9001393604FF00040F8
:102F70005360D06070470000B80700206400002054
:102F8000064A07494FF080501368012BFCD90860AE
:102F9000BFF34F8FBFF36F8FF6E7000018070020D5
:102FA00004ED00E02DE9F0479A46DDE90984814609
:102FB0006FF00303206B03EB82021044089D20F0A6
:102FC0000706700707D0502080F31188BFF34F8F9A
:102FD000BFF36F8FFEE723180A5C83F834200A5C86
:102FE00012B1401C1028F6D3002784F84370042D3A
:102FF00000D30325E562C4E91157201D00F00DF947
:1030000004F1180000F009F92461C5F104006462BC
:10301000A061E76484F8507052464946304600F09B
:10302000BFF82060B8F1000F01D0C8F80040BDE83B
:10303000F087000030B5114900E011460A6882426D
:10304000FBD34B685C18844203D140681844486045
:10305000084643681C18944209D1084C103C246867
:10306000A24209D052681A4442600A68126802609B
:10307000814200D0086030BD0460F9E764000020A0
:1030800006484168096829B14168C968C968496842
:10309000C16270474FF0FF31FAE700001C000020CA
:1030A00008484068401C4FF0500080F3118804D05D
:1030B000BFF34F8FBFF36F8FFEE7BFF34F8FBFF3A9
:1030C0006F8FFEE76C0000202DE9F04105460026D9
:1030D00000F09AF9314F386808B9FFF72BFFF8680C
:1030E00005424BD1C5B3083568070ED005F007007F
:1030F000C0F108000544680707D0502080F311880C
:10310000BFF34F8FBFF36F8FFEE72DB37868854213
:1031100034D8224910310846046801E021460446AB
:103120006068A84202D220680028F7D1386884423B
:1031300024D00E682068086060680836411B10299A
:103140000FD96019420708D0502080F31188BFF3CF
:103150004F8FBFF36F8FFEE710E041606560FFF7B0
:1031600069FF61687868401A7860BA68904200D256
:10317000B860F86801430020C4E9000100F08CFA4F
:10318000700707D0502080F31188BFF34F8FBFF333
:103190006F8FFEE73046BDE8F0810000540000204C
:1031A00010B5031F4FF080741C601B1F21F001013C
:1031B0001960191F024B0B60143940380A6010BDAA
:1031C000A1300008D0E9013201699A60D0E90123F9
:1031D0005A604A68824201D182684A6000220261D4
:1031E0000868401E0860086870470000044B0360D0
:1031F00003F1540008604FF48070106070470000C5
:103200008402002000F108014FF0FF32C0E90112F2
:10321000C1600161002101607047002101617047B8
:1032200030B50C68621C02D000F1080202E00269AD
:1032300004E01A4653681D68A542FAD953684B60EA
:1032400099608A60516008610168491C016030BD65
:1032500042684A6093688B60936859609160086126
:103260000168491C01607047502080F31188BFF34A
:103270004F8FBFF36F8F0A494868401C4860012890
:103280000CD10848006810F0FF0F07D0502080F3E1
:103290001188BFF34F8FBFF36F8FFEE770470000B9
:1032A0006C00002004ED00E00849486828B1401E89
:1032B000486001D180F311887047502080F3118855
:1032C000BFF34F8FBFF36F8FFEE700006C0000204D
:1032D00070B5002827D0144DA0F108046068E96893
:1032E000084207D1502080F31188BFF34F8FBFF3FE
:1032F0006F8FFEE722683AB1502080F31188BFF348
:103300004F8FBFF36F8FFEE78843606000F07CF85B
:1033100060686968084468602046FFF78BFEBDE876
:10332000704000F0B9B970BD540000204FF0E020AB
:10333000002101618161054964220968B1FBF2F154
:10334000491E4161072101617047000018000020FB
:1033500010B5020014D00F48406B38B1502080F3F4
:103360001188BFF34F8FBFF36F8FFEE700F04CF86B
:1033700000211046FFF742FD00F08EF9002807D12A
:1033800005494FF080500860BFF34F8FBFF36F8F38
:1033900010BD00001C00002004ED00E010B586B058
:1033A0000024039405AA04A903A80494FFF71EFFB0
:1033B000DDE903010094CDE9011000230EA11048BE
:1033C000059A00F0D8F80F490028086311D0502062
:1033D00080F31188BFF34F8FBFF36F8F4FF0FF3033
:1033E000C862012088610C6106B0BDE8104000F0A1
:1033F00041B806B010BD000049444C450000000033
:10340000812F00081C0000200248416B491C4163C9
:10341000704700001C000020144A506B10B10120BE
:10342000106270470020106250691149B0FA80F0B4
:10343000C0F11F0000EB800051F820306BB101EBB0
:10344000800000F10803416849684160994201D158
:1034500049684160C86810607047502080F3118847
:10346000BFF34F8FBFF36F8FFEE700001C000020FB
:10347000180700201CB5264908780190FF20087025
:1034800008788DF800009DF800009DF8002000F0FD
:10349000F000904207D0502080F31188BFF34F8F87
:1034A000BFF36F8FFEE79DF800001A4B00F050004D
:1034B00018700720986006E0401E98609DF8000094
:1034C00040008DF800009DF8000000069868F3D4D5
:1034D000032807D0502080F31188BFF34F8FBFF32C
:1034E0006F8FFEE74FF440709860019808700A48AB
:1034F000016841F470010160016841F070410160B0
:10350000FFF714FF00205860FCF70CFE00201CBDE4
:1035100000E400E06C00002020ED00E02DE9FF5FFA
:103520008346DDE90E87994616468A469000FFF7E6
:10353000CBFD05001CD05420FFF7C6FD040014D0BD
:103540000020256384F85100CDE90240CDE90087D1
:103550004B46324651465846FFF724FD2046FFF7BA
:1035600085FC012004B0BDE8F09F2846FFF7B0FEBF
:103570004FF0FF30F6E7F0B585B00546DDE90B0406
:103580000A9EA8B1E4B1542700972063022084F872
:1035900051000020CDE9024004AF2846CDE9006784
:1035A000FFF700FD2046FFF761FC049805B0F0BD71
:1035B000502080F31188BFF34F8FBFF36F8FFEE76A
:1035C000502080F31188BFF34F8FBFF36F8FFEE75A
:1035D0002DE9F0412E4F0026786B40B1F869401C70
:1035E000F861386A00B101263046BDE8F0813D69D6
:1035F0006D1C3D6113D17868006838B1502080F3AC
:103600001188BFF34F8FBFF36F8FFEE77868B968FB
:103610007960B860786A401C7862FFF731FDF86A1B
:10362000DFF87080854209D37868006880B17868D7
:10363000C068C468606885420DD2F8623868C06AA4
:1036400000EB800158F821000128CAD90126C8E7FB
:103650004FF0FF30F1E7201DFFF7B4FDA06A18B16D
:1036600004F11800FFF7AEFDE06A01217A6981409C
:103670001143796100EB800108EB8100211DFFF708
:10368000E7FDE06A3968C96A8842CDD30126CBE7F5
:103690001C000020180700202DE9F0472C4D0024C5
:1036A0002746686B38B1FFF7DFFD686B401E686323
:1036B000686B40B146E0502080F31188BFF34F8F14
:1036C000BFF36F8FFEE7E86822490126D0B3A1F16E
:1036D00078098846D8F80010E9B1D8F80C00C46819
:1036E00004F11800FFF76EFD201DFFF76BFDE06A87
:1036F0006A6906FA00F11143696100EB800109EB88
:103700008100211DFFF7A4FDE06A2968C96A88428B
:10371000E0D32E62DEE70CB1FFF7B2FCEC693CB1FE
:10372000FFF756FF00B12E62641EF9D10020E86158
:10373000286A38B10849012738070860BFF34F8F5E
:10374000BFF36F8FFFF7B0FD3846BDE8F08700008C
:103750001C0000209007002004ED00E0D037000896
:103760001529000800000000000000000002000011
:103770000000000000000000C83700081D290008F4
:103780000000000000000000000100000000000038
:1037900000000000D837000825290008FEFF0000BF
:1037A0000000000000010000000000000000000018
:1037B00000000000000000000102030406070809E1
:1037C00000000000010203045049445461736B007F
:1037D0004755495461736B00524F545461736B00E9
:1037E000003800080000002078000000602C00086D
:1037F000783800087800002040330000702C000862
:1038000000000000000000000000000001000000B7
:1038100010000000000000000090D0030000000035
:103820000000000000000000000000000000000098
:103830000000000000000000000000000000000088
:103840000000000000000000000000000000000078
:103850000000000000000000000000000000000068
:103860000000000000000000000000000000000058
:08387000AAAAAAAA00000000A8
:04000005080000ED02
:00000001FF
