:020000040800F2
:100000000014002001010008011C00087B190008F1
:10001000FF1B0008D50E00081D220008000000008C
:10002000000000000000000000000000011F0008A8
:100030002111000800000000AD1C0008C51F0008C9
:100040001B0100081B0100081B010008491E0008D5
:100050001B0100081B0100081B0100081B01000810
:100060001B0100081B0100081B0100081B01000800
:100070001B0100081B0100081B0100081B010008F0
:100080001B0100081B0100081B0100081B010008E0
:100090001B0100081B0100081B0100081B010008D0
:1000A0001B0100081B0100081B0100081B010008C0
:1000B0001B0100081B0100081B0100081B010008B0
:1000C0001B0100081B0100081B0100081B010008A0
:1000D0001B010008192000081B0100087D200008F2
:1000E0001B010008D91D00081B010008DFF80CD017
:1000F00000F0B4FD0048004739310008001400202A
:100100000648804706480047FEE7FEE7FEE7FEE7B1
:10011000FEE7FEE7FEE7FEE7FEE7FEE7C91F000891
:10012000ED000008A0F14101192900D820307047E6
:1001300000487047383A000840EA01039B0703D0A3
:1001400009E008C9121F08C0042AFAD203E011F816
:10015000013B00F8013B521EF9D27047D2B201E0D8
:1001600000F8012B491EFBD270470022F6E710B5BC
:1001700013460A4604461946FFF7F0FF204610BD15
:1001800030B505462A460B4612F8010B13F8014B11
:1001900008B1A042F8D01CB1002802D06D1CF1E7D4
:1001A000284630BDCAB2401E10F8011F8A4202D054
:1001B0000029F9D100207047421C10F8011B0029CA
:1001C000FBD1801A704710B5002200E0521C835CFE
:1001D0008C5CA34201D1002BF8D1D8B2E1B2401A15
:1001E00010BD30B505460020034600E05B1C93427D
:1001F00005D2EC5CC85C201A01D1002CF6D130BDD0
:100200002DE9FF4F087881B09946FF2805D0491C99
:100210002D2804D00024002308E000230BE0012453
:10022000F9E703EB830300EB4303491C0878FF283D
:10023000F7D104B15B4200200090147801462D2CC8
:1002400001D02B2C04D1521C2D2C12D00024009450
:1002500000251678FF2E0ED00A24A0FB04C801FB4F
:100260000481002700FB0711521C16EB0C006941AA
:10027000EFE70124EBE7994450EA01020ED0002495
:10028000AA4D2646DFF8A88200F0A7FC82468B46DE
:10029000B9F1000009DAC9F100071BE0019800215B
:1002A000C0E9001105B0BDE8F08F074612E0F8077D
:1002B00007D022462B463046414600F04AF9064612
:1002C000884622462B461046194600F042F904465D
:1002D0000D467F10002FEAD1B9F1000F3246434698
:1002E0005046594602DA00F009FC01E000F031F90D
:1002F000009A0AB181F00041019AC2E90001D1E7F8
:100300002DE9FF4F1F468DB0D7E901464FF0FF386A
:100310002E2045464FF000090B90B9696D1C0E98D0
:100320008847396A824688470028F6D1BAF1FF3FEC
:100330000AD024F4D064002E11DDBAF12B0F08D0BE
:10034000BAF12D0F0BD102E0404611B0ABE744F4F7
:100350008064B9696D1C0E9888478246761E69468E
:10036000600501D52D2000E02B208DF8000001F163
:10037000010B0DF1200809E0B9696D1C0E98884742
:1003800082460F9844F40074761E0560002E02DD4C
:10039000BAF1300FF0D00B998A453ED144F0800479
:1003A00006E00F99681CA9F1010944F40074086083
:1003B000B9696D1C761E0E98884782463028F0D0A9
:1003C0002BE00B998A4505D1200603D444F0800424
:1003D000761E18E0504602F013F908B30DF1130130
:1003E000761E44F400748B4508D2AAF130000BF855
:1003F000010B200607D5A9F1010003E0200602D475
:1004000009F101008146A00502D50F99681C08601A
:10041000B9696D1C0E9888478246002ED1DC53E0E6
:10042000002E51DDBAF1650F02D0BAF1450F4BD164
:10043000A00549D5B9696D1C24F44074761E0E9848
:1004400088478246002E0CDD2B2804D0BAF12D0FF0
:1004500007D144F48074B9696D1C0E9888478246B0
:10046000761EE00501D52D2100E02B2108F8011BA7
:10047000CDF82C8021E00DF12901761E44F40074A2
:1004800088450CD2AAF1300010F0FF0088F8000077
:1004900002D10B99884509D908F1010806E0E00569
:1004A00001D5244801E042F20F708146B9696D1C04
:1004B0000E98884782460F980560002E04DD50464E
:1004C00002F09EF80028D6D1F9690E988847FF20DF
:1004D0008BF8000088F800000020069007904B463B
:1004E0006A4608A906A8FFF78BFEA00502D46FF0A4
:1004F00001002AE714F0240F0AD0E00714D1DDE947
:1005000006123868031D3B600068C0E900120BE06A
:10051000DDE9060100F085FB0146E00704D13868FB
:10052000021D3A600068016028460EE70000244082
:100530000000F03FF1D8FFFF70B5064601F044FF20
:10054000046805460A220021304600F09BF92C6021
:1005500070BD2DE9FE4F81EA030404F0004421F050
:10056000004100944FF0000B23F0004350EA0104D7
:100570005ED052EA03045BD0C3F30A54C1F30A55B8
:100580002C44A4F2F3340194A0FB0254C1F31301F0
:1005900041F48011C3F3130343F4801301FB0244BD
:1005A00000FB034E840A970A44EA815447EA8357C2
:1005B000A4FB076802958D0A05FB07854FEA932C7B
:1005C00004FB0C542705029D4FEA065847EA1637EC
:1005D000B5EB08056EEB070C870E920E47EA811704
:1005E00042EA8312A7FB0201B6EB0B0164EB0004A5
:1005F0002B0D43EA0C335E1844EB1C50DA4651468F
:10060000E7FB0201C5F313044FEA0B3343EA14532B
:100610004FEA0432019C43EA0603A4F10C0402945D
:10062000009CCDE900B400F074F903B0BDE8F08F90
:1006300000200146F9E70EB5C10F80EAE0700844DA
:10064000CA07002140F233438DE80E000A460B46EC
:1006500000F05FF903B000BD70B5C1F30A5201F0BC
:1006600000450024C1F3130140F2FF3341F480112F
:100670009A4201DA002070BD40F233439A42A2F25E
:10068000334203DC524200F07EF800E090402C43FD
:10069000F1D0404270BD000030B5041E71F100047D
:1006A00004DB4FF00044404264EB0101141E73F17F
:1006B000000405DB1C464FF00043524263EB040389
:1006C0008B4208BF824230BD30B5041E71F1000478
:1006D00004DB4FF00044404264EB0101141E73F14F
:1006E000000405DB1C464FF00043524263EB040359
:1006F000994208BF904230BD30B50B4601460020FC
:100700002022012409E021FA02F59D4205D303FAD3
:1007100002F5491B04FA02F52844151EA2F1010254
:10072000F1DC30BD2DE9F05F0546002092469B4686
:1007300088460646814640241BE0284641464746F7
:10074000224600F020F853465A46C01A914110D371
:1007500011461846224600F093FA2D1A67EB01085D
:100760004F4622460120002100F08AFA17EB0009CB
:100770004E41201EA4F10104DFDC484631462A46E2
:100780004346BDE8F09F202A04DB203A21FA02F01C
:100790000021704721FA02F3D040C2F120029140BB
:1007A000084319467047426842B1016811F8013B9D
:1007B00023B1521EC0E90012184670470121C160E2
:1007C000881E704742685AB1C368016843B983689C
:1007D0008B4205D0491E521CC0E900120020704710
:1007E0004FF0FF30704700000FB4002300B589B010
:1007F0000CA900910B996FF00042CB601E4B069341
:100800001E4B07930423CDE901321D4A089202468C
:100810006B460020FFF774FD09B05DF814FB70B55E
:1008200086B006464FF0FF300091CDE9010100206F
:1008300015460C4604903246694604A8FFF7D4FFDB
:1008400003460498211825B108B10A4600E0224663
:100850002A6000280DD0002B02DD0098884208D0C5
:10086000081B0094CDE901043246694604A8FFF74D
:10087000BBFF06B070BD0000A7070008C507000851
:10088000CD0C00082DE9F04791460F4680460446FE
:10089000002614F8015B2DB100F014FA0068405DE9
:1008A000C007F6D12B2D02D02D2D18D0641E4A463C
:1008B0003946204600F013FA27B13968A14201D128
:1008C000C7F8008071054FF002040BD540420028A4
:1008D00003DD01F079FD0460A007BDE8F08746F470
:1008E0008066E4E70028F8DA01F06EFD04606FF03E
:1008F0000040F2E710B5141E73F1000408DA401C42
:1009000041F1000192185B411A4301D120F001002E
:1009100010BD2DE9F04D92469B4611B1B1FA81F21E
:1009200002E0B0FA80F22032904600F0A9F90446C5
:100930000F4640EA0A0041EA0B0153465A46084373
:1009400013D0114653EA010019D0C8F140025046B5
:10095000FFF719FF05460E4650465946424600F03D
:100960008FF9084305D0012004E020463946BDE850
:10097000F08D0020054346EAE0762C4337430A9881
:100980006305E40AA0EB08000022FD0A44EA47548C
:100990000A3002D500200146E9E701051019694136
:1009A000DDE9084500196941BDE8F04DA2E72DE9F0
:1009B000FE4F804681EA0300C00F0C46009021F0F4
:1009C000004123F00045B8EB0200A94105D24046A2
:1009D000214690461C460B46024623F00040104339
:1009E00047D0270DC7F30A00C3F30A510290401AFB
:1009F000019040286BDAC3F3130040F4801B009889
:100A0000924620B10023D2EB030A63EB0B0B019853
:100A10005946C0F14002504600F032F906460D46F4
:100A200050465946019A00F03AF910EB080061412E
:100A3000002487EA115284EAE7731A4340D0009AEF
:100A400062B3019A012A4FEA075215DC001B61EBE1
:100A500002014FF0004202EA0752CDE90042001CB9
:100A600041F5801132462B46FFF753FF03B0BDE836
:100A7000F08F40462146F9E7001B61EB0201001CA4
:100A800041F5801300185B412018A2F5001747EBD1
:100A9000030140EAD570B6196D4111E06D084FEAC7
:100AA000360645EAC0754FEA0752001B61EB0201AA
:100AB000001C41F5801149084FEA300000195141EE
:100AC00032462B4603B0BDE8F04FFFF713BF009846
:100AD000012240000023D0EB020263EBE073009898
:100AE00021464FEAE074B8EB000061EB0401E9E74E
:100AF00083F000435BE781F0004158E72DE9F04DBA
:100B000081EA030404F0004B21F0004514464FF045
:100B1000000A23F0004150EA050220D054EA010205
:100B20001DD0C5F30A570246C5F31303C1F31300E2
:100B3000C1F30A5640F4801543F48013A7EB06086E
:100B4000101BD64608F2FD3873EB050002D308F1FE
:100B5000010801E092185B41B8F1000F03DA0020B0
:100B60000146BDE8F08D00204FF480110646844612
:100B70000EE0171B73EB050705D3121B63EB050390
:100B800006434CEA010C49084FEA300092185B41D9
:100B900050EA0107EDD152EA030012D082EA0400C4
:100BA00083EA0501084305D0101BAB4106D20122A0
:100BB000002306E000224FF0004302E06FF0010244
:100BC00053101AEB06004CEB085110EB0A0041EBF6
:100BD0000B01BDE8F04DFFF78DBE0EB540F233427C
:100BE00002920022CDE900221346FFF792FE03B0E5
:100BF00000BDC1F30A52C1F3130140F2FF3341F4C7
:100C000080119A4202DA00200146704740F23343D5
:100C10009A42A2F2334202DC5242FFF7B4BD00F026
:100C20002FB801F0004330B421F0004150EA010236
:100C300006D00A0DA2F56072C1F31301002A02DC8E
:100C400030BC00207047440F44EAC104C100E018E2
:100C500030BC00EBC25000F091B80000064C074DCC
:100C600006E0E06840F0010394E80700984710347C
:100C7000AC42F6D3FFF73EFAC83B0008E83B000859
:100C8000202A04DB203A00FA02F10020704791404C
:100C9000C2F1200320FA03F3194390407047202A41
:100CA00006DBCB17203A41FA02F043EAE07306E094
:100CB00041FA02F3D040C2F12002914008431946A4
:100CC0007047000000487047F43A000810B5044629
:100CD000FFF7F8FF0068005D00F0010010BD2DE98E
:100CE000F05F82460078002715468B460AF1010422
:100CF000B946302801D09DB113E014F8010B01274B
:100D0000782803D0582801D045B10AE00DB1102D44
:100D100007D10027102514F8010B02E0082500E098
:100D20000A250026B0460EE005FB080005FB06F18B
:100D3000012701EB10461FFA80F8B6F5803F00D37B
:100D4000B94614F8010B294600F04FF80028EBDAF9
:100D5000BBF1000F05D00FB1641E00E05446CBF884
:100D60000040B9F1000F06D001F02EFB0221016016
:100D7000C81EBDE8F09F48EA0640FAE70029A8BF70
:100D80007047401C490008BF20F00100704710B4B4
:100D9000B0FA80FC00FA0CF050EA010404BF10BC69
:100DA000704749B1CCF1200421FA04F411FA0CF196
:100DB00018BF012121430843A3EB0C01CB1D4FEACF
:100DC00000614FEA102042BF002010BC704700EBCA
:100DD000C35010440029A4BF10BC7047401C4900F8
:100DE00008BF20F0010010BC70473A2800D230380C
:100DF00020F02002412A01D3A2F13700884201D31A
:100E00004FF0FF30704710B5012000F069FFBDE8DA
:100E10001040002000F064BF70B52A4D28780528E6
:100E200010D202F0ABF96968401AB0F5FA5F00D849
:100E300041B9287802F05AF802F0A0F968602878E1
:100E4000401C287002F09AF9A9680024401A44F660
:100E5000206188420CD9687802F02AF802F08EF9F5
:100E6000A8606878401CC0B26870052800D36C7018
:100E700000F0A4FC00BB14A11548FFF781F9C8B12C
:100E8000001D06462C21FFF78DF9054604703046FB
:100E9000FFF752FBC6B2681C3A21FFF783F948B14D
:100EA000401C05467D21FFF77DF9447029463046F8
:100EB00002F0FEFB00F036F9BDE870400A2002F0B7
:100EC00095B800001C0000204950442C0000000090
:100ED00094000020FEE7000070B516480024016869
:100EE00021F070410160016841F000410160124D44
:100EF00004E0641CE4B2012002F092F8D5F83C0151
:100F000010B1C82CF5D30DE0C82C0BD2002404E09E
:100F1000641CE4B2012002F083F8D5F83C0118B15A
:100F2000F02C04D3012070BDF02CF1D3FAE700209F
:100F300070BD0000040801400000214270B500F0BF
:100F4000B1F800F08FF8FFF7C7FFCC2000F0B8F839
:100F5000BE2000F0B5F800F075F8044600F072F815
:100F6000072805D9C043E143C0B2CCB2002500E058
:100F7000012504EB002000B2FFF75DFB0022054BCA
:100F8000FFF7E7FAFFF768FB00B2002D01D14042FE
:100F900000B270BD0000E43F38B50121052000F02B
:100FA00093FE01210D4800F0A5FC4FF40044ADF87C
:100FB000004010208DF803000320094D8DF8020039
:100FC0006946284600F048FC2146284600F0CEFC41
:100FD00000F048F8FFF780FF38BD00000002300045
:100FE0000008014070B5154C206820F0704020606A
:100FF000206840F040502060114D0020C5F8BC0131
:10100000022005F5DE7502F00BF80120286020684B
:1010100020F070402060206840F0004020600C20EC
:1010200001F0FEFF55F8800C08B1012400E0002417
:10103000322001F0F5FF204670BD00000408014099
:101040000000214270B500250124FFF7CBFFC0014D
:10105000641C40EA5500E4B2C5B2082CF5D9284614
:1010600070BD00000D4810B5016821F070410160AD
:10107000016841F040510160094C0020C4F8BC01F6
:1010800040F2EE2004F5DE7401F0CAFF012020607A
:10109000BDE810400F2001F0C3BF0000040801406C
:1010A0000000214210B5FFF7DDFFFFF715FFCC2050
:1010B00000F006F8BDE81040442000F001B8000040
:1010C0002DE9F04105461448016821F070410160A6
:1010D000016841F0405101600124104E0027A046F4
:1010E00015F0010F4FEA5505C6F8BC7106D0022075
:1010F00001F096FFC6F8BC813C2005E03C2001F0E1
:101100008FFFC6F8BC81022001F08AFF641CE4B2A4
:10111000082CE5D9BDE8F081040801400000214217
:101120007047000010B54FF400710348FFF71DF839
:1011300002490020088010BD940000201400002007
:101140002DE9F05FDFF86CA2DFF86C9205460F2402
:101150004FF0010B4FF000084FF4FA765746CAF8EB
:10116000AC81FA2001F042FFC7F8ACB1304601F083
:101170003DFFFFF7D7FF35B94FF4FA628FA191A079
:1011800000F076FA90B190A14F46484601F0B0F8D1
:1011900093A1944801F0ACF8304601F027FFFFF727
:1011A000C1FF91A1384601F0A3F812E090A1484692
:1011B00001F09EF802E0304601F018FFFA2293A1F8
:1011C00093A000F055FA0028F5D198E0304601F0E0
:1011D0000DFFFA228DA184A000F04AFA0028F5D173
:1011E0008FA1384601F084F802E0304601F0FEFE9F
:1011F000FA2286A18AA000F03BFA0028F5D18CA142
:10120000384601F075F802E0304601F0EFFEFA22B0
:101210007EA187A000F02CFA0028F5D17CA13846E9
:1012200001F066F802E0304601F0E0FEFA2277A114
:1012300077A000F01DFA0028F5D115B1012D3DD0A1
:101240005DE07FA14F46484601F052F8C346DFF803
:10125000F8A17E4DB84629E0641CE4B2142C11D3E9
:1012600000247BA14746404601F042F87FA1384662
:1012700001F03EF88849384601F03AF887A138462F
:1012800001F036F8BAF80000574600040ED58E4833
:1012900000F03CFA20B1014668608CA001F05EF8D5
:1012A000A7F800B0C8218848FEF75FFFFA2243A1E3
:1012B000686800F0DDF90028CED120E085A100E0CB
:1012C00089A1384601F014F8FA2250A181A000F05B
:1012D000CFF90028F4D141F2707238A139A000F0A2
:1012E000C7F920B18CA1384601F002F836E791A188
:1012F000484600F0FDFF02E0304601F077FEFA229A
:1013000042A139A000F0B4F90028F5D18DA14C46D6
:10131000484600F0EDFF02E0304601F067FEFA2299
:101320003AA18BA000F0A4F90028F5D193A12046A2
:1013300000F0DEFF02E0304601F058FEFA2233A151
:1013400091A000F095F90028F5D19AA1204600F06F
:10135000CFFF02E0304601F049FEFA222BA198A00F
:1013600000F086F90028F5D1A0A1204600F0C0FFCA
:1013700002E0304601F03AFEFA2224A19EA000F0DD
:1013800077F90028F5D1A7A1204600F0B1FF02E0CF
:10139000304601F02BFEFA221CA1A5A000F068F94E
:1013A0000028F5D1ADA1204600F0A2FFBDE8F05F16
:1013B000FFF7B8BE0000214200380140474F5420DB
:1013C0004950000000000000BFAACABC5769466926
:1013D000C1ACBDD3B3F5CABCBBAF0D0A0000000061
:1013E0002B2B2B000048004041540D0A0000000048
:1013F00020202020CCF8B9FD57694669C1ACBDD387
:10140000B3F5CABCBBAF0D0A000000004F4B000093
:1014100041542B4349504D55583D310D0A000000B1
:1014200041542B524553544F52450D0A00000000C1
:1014300041542B43574D4F44453D310D0A000000A8
:1014400043574A41500D0A0080000020140000203C
:101450000A2057494649C1ACBDD3B3F6C1CBB5E369
:10146000B4EDCEF3D3B42E2E2E0D0A00C7EBBCEC98
:10147000B2E957694669CDF8C2E7C8C8B5E3CAC73B
:10148000B7F1BFAAC6F4BBF2BDF8D0D0D6D8D0C24F
:10149000C5E4CDF80D0A0000183B0008C5E4CDF8FE
:1014A000B7BDB7A8B6FE3AB0B4D6C7C4DCC5E4CD64
:1014B000F8B0B4BCFCCAB9D3C3CAD6BBFA415050C9
:1014C000C5E4CDF80D0A0000340300200D0A257391
:1014D0000D0A000041542B4357534D41525453546D
:1014E0004152543D310D0A00BDF8C8EBD6C7C4DCEB
:1014F000C5E4CDF8C4A3CABD2CC7EBCAB9D3C3CACF
:10150000D6BBFA415050C5E4D6C357694669CDF8F9
:10151000C2E70D0A00000000D6C7C4DCC5E4CDF860
:10152000CAA7B0DC2CC7EBD6D8CAD4A3A1A3A10DFF
:101530000A000000D6C7C4DCC5E4CDF8B3C9B9A61B
:101540000D0A0000436C69656E74300D0A000000DE
:1015500041542B43495053544152543D302C225452
:101560004350222C223132312E34322E3138302E5B
:101570003330222C383238320D0A0000436C696552
:101580006E74310D0A00000041542B4349505354EE
:101590004152543D312C22544350222C22313231BD
:1015A0002E34322E3138302E3330222C383238322D
:1015B0000D0A0000436C69656E74320D0A0000006C
:1015C00041542B43495053544152543D322C2254E0
:1015D0004350222C223132312E34322E3138302EEB
:1015E0003330222C383238320D0A0000436C6965E2
:1015F0006E74330D0A00000041542B43495053547C
:101600004152543D332C22544350222C223132314A
:101610002E34322E3138302E3330222C38323832BC
:101620000D0A0000436C69656E74340D0A000000F9
:1016300041542B43495053544152543D342C22546D
:101640004350222C223132312E34322E3138302E7A
:101650003330222C383238320D0A000045535038CE
:1016600032363620496E6974204F4B0D0A00000057
:1016700070B514460D460646FEF79EFD82B2314611
:101680000B4800F053FE0EE000F098F840B92946F0
:101690000848FEF775FD18B1FFF744FD002070BD46
:1016A0000A2001F0A3FC641EA4B2EDD2012070BD9B
:1016B000004800409400002070B59AB015460E46D0
:1016C0000446FFF72FFD2B46224609A1684600F08D
:1016D00055FE64220BA16846FFF7CAFF002804D11B
:1016E0002A463146084800F021FE1AB070BD0000BD
:1016F00041542B43495053454E443D25752C256498
:101700000D0A00003E0000000048004070B501F0E6
:101710006FFB064628211248FEF727FDDEB111A116
:10172000304601F057FB0569ADB110A1304601F01C
:1017300051FB04697CB1224629460DA000F00EFE43
:1017400023462A4612A1064800F018FE304601F052
:101750001DFB034870BD14A000F000FE002070BD0A
:1017600094020020535349440000000050534400A9
:10177000CAD5B5BD57694669D0C5CFA20D0A535326
:1017800049443A25730D0A5053443A25730D0A0013
:1017900041542B43574A41503D222573222C222588
:1017A00073220D0A000000006A736F6E207374725A
:1017B000696E672077726F6E67210000064908889E
:1017C00028B14A88904204D1002008807047012047
:1017D00070474880FBE700001400002001490860C2
:1017E000704700001404014030B51A4A837901683B
:1017F00053B313688B431360111D0B680468A34334
:101800000B60017911440B68046823430B60114B92
:10181000083319680468A14319601C1D2168056814
:10182000A94321604179102905D011440A68006854
:1018300002430A6030BD19680268114319602168CB
:1018400000680143216030BD0079104402688A437A
:10185000026030BD00040140F0B5CC78002204F0F5
:101860000F03E40601D58C7823430C784FF00F0C5E
:1018700014F0FF0F4FF0010E1BD005680E880EFA12
:1018800002F42640A64210D196000CFA06F725EA8B
:10189000070703FA06F5CE783D43282E02D0482EDE
:1018A00002D002E0446100E00461521C082AE5D342
:1018B00005600A88FF2A1CD94468002202F1080644
:1018C0000EFA06F50E882E40AE420ED196000CFAA6
:1018D00006F7BC4303FA06F7CE783C43282E00D126
:1018E0004561CE78482E00D10561521C082AE5D307
:1018F0004460F0BDF0B5144C002801DAE36900E063
:101900006368450D2E0185B2C0F30157B540C0F3A1
:101910000342032F05D0C6020AD503269640B343DF
:1019200007E023F07062636823F07063636002E095
:10193000AB4343F0706201B12A43002801DAE2614F
:10194000F0BD6260F0BD00000000014002460020D2
:1019500092680A4200D00120704702460020D268F7
:101960000A4200D001207047416170470161704711
:101970000AB10161704741617047FEE710B501F09F
:1019800017FB4FF4E134204601F09AFF204600F0A7
:1019900047FC00F065F800F023F800F0D3F80120D0
:1019A00000F032F8012800D00020FFF7C9FBFFF754
:1019B000F3FAFFF7C3FABDE8104002A1074800F0B0
:1019C00097BC000048617264576172655F496E6937
:1019D0007420537563636565640D0A000038014027
:1019E00008B50121102000F06FF94FF40040ADF868
:1019F000000048208DF8030069460248FFF72CFFDD
:101A000008BD0000001001402DE9F0410125124CF5
:101A1000124FEE0308B1257001E0207820B1314665
:101A20003846FFF793FF30B131463846FFF78EFF57
:101A300001280DD00DE00A2001F0D8FA0020207016
:101A400031463846FFF782FF18B90120BDE8F08122
:101A500025700020FAE7000050000020001001402F
:101A600038B50121102000F02FF94FF46040ADF897
:101A7000000001208DF802001020094C8DF80300B1
:101A800069462046FFF7E8FEBDF800102046FFF744
:101A90006DFF4FF480412046FFF766FF38BD000020
:101AA00000100140094A012808D0022809D0032863
:101AB0000AD14FF400411046FFF758BF4FF40051D0
:101AC000F9E74FF48041F6E770470000001001404D
:101AD000094A012808D0022809D003280AD14FF466
:101AE00000411046FFF740BF4FF40051F9E74FF4B3
:101AF0008041F6E7704700000010014070B5104CBF
:101B0000012806D0022807D0032817D14FF400453A
:101B100004E04FF4005501E04FF48045294620468B
:101B2000FFF71BFF00282946204603D0BDE8704080
:101B3000FFF71ABFBDE87040FFF718BF70BD000087
:101B400000100140FEB50121084600F0BDF84FF439
:101B5000C06000F089F829208DF8080001248DF874
:101B6000094000268DF80A608DF80B4002A800F0AD
:101B700049F865042846FFF731FE8DF80460082017
:101B80008DF8050000958DF806406846FFF72CFE9D
:101B900001214FF0C05000F08BF8012000F06EF8EA
:101BA000012000F079F8012825D0FFF72CF9012059
:101BB00000F0FEF8612000F0E3F80028FAD04FF4BE
:101BC000007000F001F9012000F0F8F800F08CF945
:101BD00000F082F90121022000F052F900F07CF9B6
:101BE000202000F069F900F077F9002000F054F9A6
:101BF00000F072F9FEBD012000F046F8D7E7FEE7DD
:101C00007047000030B50F23C27801780125F2B18A
:101C1000144A126801F1E02102F4E062C2F5E062C8
:101C2000120AC2F10404D3404278A24084781C40D6
:101C30001443220181F80024007800F01F018D4038
:101C40004009800000F1E020C0F8005130BD01F0F3
:101C50001F0085404809800000F1E020C0F8805155
:101C600030BD00000CED00E0024908430249086065
:101C7000704700000000FA050CED00E00149086221
:101C80007047000000000E4202490A6842EA8000E4
:101C90000860704700700040034A01460020526807
:101CA0000A4200D0012070470070004070470000D9
:101CB000044A0029D16901D0014300E08143D16188
:101CC0007047000000100240044A0029916901D0C9
:101CD000014300E081439161704700000010024021
:101CE00001490860704700004004424230B5204A74
:101CF0005168204B11F00C0103D0042901D00829B0
:101D000001D0036012E05168536801F470114FF084
:101D1000020413F4803F04EB914102D053689B030B
:101D200001D5154B00E0134B5943016051680F2357
:101D300003EA1111114B5C5C0168E1404160546899
:101D4000072505EA14241C5D21FA04F48460546814
:101D500005EAD4241B5DD940C1605268032303EA1D
:101D60009232064B1B1F9A5CB1FBF2F1016130BD50
:101D70000010024000127A0000093D0055000020CA
:101D8000034600205909094A01290AD002290AD02C
:101D9000516A03F01F02012393400B4200D001203F
:101DA00070471168F5E7116AF3E700000010024080
:101DB0000149086070470000800442420149086000
:101DC000704700003C04424202490A6A02430A6228
:101DD000704700000010024010B5022000F024F807
:101DE000002808D04FF40030FFF7F8FCBDE81040A1
:101DF000022000F001B810BD02490A8882430A801F
:101E000070470000042800400248018841F010019A
:101E100001807047042800400248018821F0100129
:101E2000018070470428004006490988C2B2114069
:101E3000044A121F1288024202D009B101207047E1
:101E4000002070470428004010B50220FFF7ECFF87
:101E5000012808D00120FFF7E7FF01280ED1BDE8D7
:101E60001040FFF7C9BF4FF40030FFF7B7FC022066
:101E7000FFF7C2FFBDE8104000F02EB810BD000013
:101E8000044A0029118801D0014300E081431180F8
:101E9000704700000028004000B50246FFF7B4FF7D
:101EA0000449100C0880081D02805DF804EBFFF760
:101EB000B3BF00001828004000B50246FFF7A4FF9A
:101EC0000449C2F303400880081D02805DF804EB5A
:101ED000FFF7A2BF08280040024801888906FCD508
:101EE00070470000042800400448018821F00801E0
:101EF000018001880907FCD57047000004280040D4
:101F0000704700000CB5002226480092019201683B
:101F100041F4803101604FF4A063016801F40031A5
:101F200001910099491C0091019911B900999942B8
:101F3000F3D10168890333D5012101911A490A6857
:101F400042F010020A600A6822F003020A600A687E
:101F500042F002020A6041684160416841604168A4
:101F600041F480614160416821F47C114160416825
:101F700041F4A8114160016841F08071016001687D
:101F80008901FCD5416821F003014160416841F0BD
:101F9000020141604168C1F381010229FAD10CBDFF
:101FA00001920CBD00100240002002404FF0E021E1
:101FB0000428086903D020F004000861704740F04D
:101FC0000400FAE7704700000F4810B5016841F0BF
:101FD0000101016041680D4A1140416001680C4AED
:101FE00011400160016821F480210160416821F401
:101FF000FE0141604FF41F018160FFF783FF054937
:102000004FF00060086010BD001002400000FFF8B3
:10201000FFFFF6FE08ED00E070B5154C40F22551CB
:10202000204600F065F800280ED0204600F0EEF8BB
:10203000104AC1B21088030406D444044FF00003D0
:1020400006D50A2901D0138070BD40F400400DE090
:102050000D2909D0C0F30D04074D401C80B229554D
:102060001080C728EFD870BD40F48040108070BD4C
:1020700000380140800000203403002010B50F4CD0
:1020800040F22551204600F033F8002814D00C4AC5
:102090001088B0F5007F01D3002010800748001D94
:1020A0000088084B11885854491C11802046BDE80F
:1020B0001040202100F008B810BD0000004800408A
:1020C0001400002094000020C943018070470029BB
:1020D000818902D041F4005101E021F40051818155
:1020E00070470246002012880A4200D00120704743
:1020F00070B501F01F0501260024C1F3421306FA52
:1021000005F2012B0FD0022B0FD0838A4FEA112149
:102110000088134206FA01F600EA060001D000B179
:102120000124204670BD8389F0E7038AEEE710B5ED
:10213000C1F3421301F01F040121A140012B07D07C
:10214000022B07D01430002A026805D00A4304E0AD
:102150000C30F8E71030F6E78A43026010BD00004B
:1021600030B50446008A85B00D464CF6FF71084034
:10217000E98801432182A0894EF6F3110840A9881D
:102180002A8911436A8902431143A181A08A4FF62B
:10219000FF410840A9890143A1826846FFF7A6FDD7
:1021A0001948844201D1039800E00298A1890904EA
:1021B00000EBC00101EB0010296801D5490000E0E7
:1021C0008900B0FBF1F06422B0FBF2F109010B09C8
:1021D0006FF018056B4300EB8300A3891D044FF0DB
:1021E000320306D503EBC000B0FBF2F000F00700AD
:1021F00005E003EB0010B0FBF2F000F00F00084325
:10220000208105B030BD0000003801408088C0F357
:1022100008007047C1F3080181807047FEE70000A5
:10222000F0B5074687B001210C20FFF74DFD0121D5
:102230008804FFF73DFD10208DF80300C501294EED
:10224000ADF8005003248DF8024069463046FFF790
:1022500003FB012229463046FFF78AFB18208DF840
:1022600003006810ADF800001F4E8DF8024069466B
:102270003046FFF7F1FA04208DF80300ADF8005066
:102280008DF8024069463046FFF7E6FA00240C203C
:10229000ADF80E00154DADF80A400197ADF81040AD
:1022A000ADF80C40ADF8084001A92846FFF758FFEB
:1022B00001212846FFF70BFF27218DF8141001207C
:1022C0008DF8170002208DF815008DF8164005A82E
:1022D000FFF798FC012240F225512846FFF727FF1F
:1022E00007B0F0BD00080140000C0140004800406C
:1022F0000FB44FF4947130B5CBB005466C4650AB7B
:1023000020464F9A00F04EF809E02846641CFFF77B
:1023100081FF40212846FFF7E4FE0028F9D021780C
:102320000029F2D14BB030BC5DF814FB2DE9F0412F
:1023300016460D46074600240CE015F8011B3846EA
:10234000FFF768FF40213846FFF7CBFE0028F9D0A1
:10235000641CA4B2B442F0D3BDE8F0810FB4054BC5
:1023600010B503A9044A029800F052F910BC5DF8B8
:1023700014FB000055300008840000200FB4084B07
:1023800010B504A902AA039800F042F9044602A974
:10239000002000F0DFFC204610BC5DF814FB0000BC
:1023A000552D00087CB5491E1C461546CDE9000197
:1023B000044B6A462146284600F02AF9009A00217B
:1023C00011707CBD3F2D0008004870479000002030
:1023D00030B528B1144C031F002021680A4605E0DF
:1023E000084630BD9A4203D810465268002AF9D1F7
:1023F000002800D041680BD00468A3EB0005A5427B
:1024000004D11B681C440346046002E0436000E002
:1024100023603AB11C68D51AA54203D115682C4433
:102420001C6052685A6030BD880000202DE9F047DA
:1024300082460F4C10480D4E0E4F001B4FF0000807
:1024400020F007054FF0010900221146504600F028
:102450004BFE002802D1306810B10020BDE8F087A3
:102460003C60C4E90058C6F80090EDE78C000020FD
:1024700004040020880000200010002002E008C8AA
:10248000121F08C1002AFAD170477047002001E0EE
:1024900001C1121F002AFBD1704700002DE9FF5F28
:1024A000DDE90220010DDDF838B0024318D044F612
:1024B0001050A1F2FF3141430D140F98012820D094
:1024C000A5EB0B00401C5FEA000A4FF00004474EEA
:1024D000DFF81C91A046504616D5CAF1000728E047
:1024E0000F98012443A2012808D0002100980F9BD7
:1024F000C0E90021C0E90243BDE8FF9F6FEA0B017C
:10250000F4E7CBF10000DEE7074612E0F80707D05A
:102510002246334640464946FEF71BF88046894628
:102520002246334610461946FEF713F804460E4677
:102530007F10002FEAD1DDE90201BAF1000F424617
:102540004B4602DAFEF705F801E0FEF7D7FA04463B
:102550000E460022284BFEF7B7F803D84FF0FF30A5
:10256000014607E00022254B20463146FEF71FFAC0
:10257000FEF73FFB102409E0002C0ADB0A220023AF
:10258000FEF7D0F8019B30321A55641E50EA010262
:10259000F2D1641C019AC4F1110314440F9A012A68
:1025A00003D0012208430DD10AE0084304D00020E3
:1025B0004FF0110B0F9080E7A3EB0B056D1E0DE0A4
:1025C0005B4504DD4FF0000205F1010504E003DA8C
:1025D0004FF00002A5F10105002AECD000980F99F8
:1025E000C0E90231C0E9004586E700000000244050
:1025F0000000F03F300000000000F0430000E03F2A
:1026000030380A2801D201207047002070470000AE
:102610002DE9FF4F95B09B468946064600250FE2FF
:10262000252877D100242746F84A0121059400E0A7
:10263000044316F8013F203B01FA03F01042F7D1A2
:1026400030782A2811D06FF02F033078A0F13002B3
:10265000092A16D8059A44F0020402EB820203EB21
:1026600042021044761C0590EFE759F8042B0592BE
:10267000002A03DA504244F40054059044F0020466
:10268000761C30782E2816D116F8010F44F0040479
:102690002A280DD06FF02F023078A0F13003092BDB
:1026A00009D807EB870302EB4303C718761CF3E74F
:1026B00059F8047B761C30786C280FD006DC4C2847
:1026C00017D068280DD06A2814D104E0742810D0DF
:1026D0007A280FD10DE044F400140AE044F4801489
:1026E00001E044F440147278824202D104F580146F
:1026F000761C761C307866280BD013DC582877D0EF
:1027000009DC002875D04528F6D04628F4D04728A3
:102710001AD19DE118E0632835D0642879D0652866
:1027200012D195E1702873D008DC6728F1D06928B0
:102730006FD06E280DD06F2806D1B5E073282CD04D
:10274000752875D0782874D05A46179990476D1C13
:1027500075E1C4F30250022809D003280DD0D9F83E
:10276000001004280DD00D6009F1040967E1D9F8C3
:102770000010EA17C1E90052F6E7D9F800100D8001
:10278000F2E70D70F0E719F8041B8DF80010002037
:102790008DF80100EA46012003E059F804AB4FF040
:1027A000FF3061074FF0000102D40DE008F1010194
:1027B0008846B9420FDA8045F8DB1AF8081000297C
:1027C000F4D108E008F1010188468142FADB1AF8E9
:1027D00008100029F6D105985B46A0EB08072146B2
:1027E0003846179A00F094FA284400EB080507E0F1
:1027F0004DE029E10DE01AF8010B5A461799904770
:10280000B8F10108F7D25B4621463846179A13E122
:1028100042E00A220092C4F302524FF0000A022A58
:1028200008D059F804CB032A4FEAEC710AD00DE026
:1028300029E02AE009F1070121F00702F2E802C1CC
:10284000914609E00FFA8CFC4FEAEC71042A03D19F
:102850004FFA8CFC4FEAEC71002907DA0A46002196
:10286000DCF1000C61EB02012D2202E0220504D50F
:102870002B228DF80420012203E0E20701D0202260
:10288000F7E7904659E00A2102E010220DE01021FE
:102890004FF0000A00910BE010224FF0000A44F0C4
:1028A00004040827009203E008224FF0000A009277
:1028B000C4F30252022A05D059F804CB0021032A9E
:1028C00008D009E009F1070121F00702F2E802C18E
:1028D000914605E01FFA8CFC042A01D10CF0FF0C94
:1028E0004FF00008220728D5702806D0009B83F0FF
:1028F000100353EA0A0305D00EE040228DF80420AD
:10290000012208E05CEA010206D030228DF80420A2
:102910008DF8050002229046009B83F0080353EADD
:102920000A030AD15CEA010201D1620705D530220F
:102930008DF804204FF001087F1E582804D034A0E1
:1029400003900EA802900DE036A0F9E753466046CA
:10295000009AFDF7E7FE84460398825C0298401EC9
:10296000029002705CEA0100F0D1029806A9081AF0
:1029700000F1200A600702D524F4803400E001272A
:10298000574502DDA7EB0A0000E0002000EB0A013A
:10299000009005984144401A0590E00306D45B4638
:1029A0002146179A059800F0B3F90544002706E080
:1029B00001A85A46C05D179990476D1C7F1C47457A
:1029C000F6DBE0030CD55B462146179A059800F02C
:1029D0009FF9054404E030205A46179990476D1C32
:1029E0000099481E00900029F5DC08E00298029941
:1029F0005A460078491C0291179990476D1CBAF10C
:102A00000001AAF1010AF1DC65E1000009280100DA
:102A10003031323334353637383961626364656654
:102A20000000000030313233343536373839414216
:102A3000434445460000000000F058F90544761C68
:102A4000307800287FF4ECAD19B02846BDE8F08F4F
:102A5000620700D4062709F1070222F0070CFCE800
:102A60000223E14603F000485FEA080C02D00FF2AF
:102A7000702C0DE05FEA045C02D50FF2682C07E0D1
:102A80005FEAC47C02D00FF2602C01E0AFF2700C60
:102A90004FF0FF3823F00043CDF850C065280CD02C
:102AA00006DC452809D046281DD047283DD13DE009
:102AB000662818D067287ED138E00021112F01DB6D
:102AC000112000E0781CCDE9000106A90EA8FFF74F
:102AD000E5FCDDE90F010E9A03910021009207F158
:102AE000010A04914DE04FF000400097CDE901103C
:102AF00006A90EA8FFF7D2FCDDE90F0203920E9B98
:102B000011990022DDF80CA00093049211B9791CF0
:102B100000EB010AB7EB0A0004D4C0F1FF3007F163
:102B2000010A0490AAEB0700019044E0012F00DAAB
:102B300001270021112F01DD112000E03846CDE9E9
:102B4000000106A90EA8FFF7A9FCDDE90F010E9A06
:102B50000391002104910092BA4621070CD40399F5
:102B6000514500DA8A46BAF1010F05DD009AAAF153
:102B70000101515C302908D0B84202DA10F1040F8B
:102B800006DA0121CDE9011015E0AAF10101E9E71A
:102B9000002805DC049901440491AAEB000102E03D
:102BA000411C514500DD8A460499401A401C0190A1
:102BB0004FF000400290200704D40198504501DBFB
:102BC000CDF8048000208DF84F0002980DF14F07DA
:102BD000B0F1004F25D02B200E9002984FF0020844
:102BE00000280CDA404202902D200E9007E00A21C6
:102BF0000298FDF781FD3031029007F8011DB8F110
:102C00000001A8F10108F2DC02980028EFD1791E3A
:102C10000E980870307800F0200040F0450007F86A
:102C2000020D12A8C01B00F107081498007800B12B
:102C3000012000EB0A01019801EBE0710598414485
:102C4000401A401E0590E00306D45B462146179AC1
:102C5000059800F05DF805441498007818B15A46BC
:102C6000179990476D1CE00324D55B462146179ABF
:102C7000059800F04DF805441CE00498002807DB97
:102C8000DDE90301884203DD0098405C179901E00B
:102C9000179930205A469047049805F10105401CC9
:102CA00004900198401E019004D12E205A46179995
:102CB00090476D1CBAF10001AAF1010ADDDC05E0C4
:102CC00017F8010B5A46179990476D1CB8F100018F
:102CD000A8F10108F4DC5B462146179A0598ABE69B
:102CE0002D0000002B000000200000002DE9F04125
:102CF000044600251E461746880404D405E03946DC
:102D00002020B0476D1C641EF9D52846BDE8F0812F
:102D10002DE9F041044600251E469046C80301D522
:102D2000302700E02027880404D505E041463846D6
:102D3000B0476D1C641EF9D52846BDE8F0814A688D
:102D4000002A06D00A68531C0B6010704868401EA9
:102D5000486070470A68531C0B601070704710B5CC
:102D600088B103687BB142688168914206D25C5C9D
:102D7000202C03D8491C81600028F5D1914201D153
:102D8000491E816010BD002010BD000070B50446D2
:102D90000F4E19E0A0892568C0050AD4A06820B1AB
:102DA000FFF7F4FFA089C00503D4206908B171685A
:102DB0008847A089800503D4206A08B171688847D4
:102DC0007168204688472C46002CE3D170BD000076
:102DD00008000020002200F04FB910B5016828203B
:102DE0008847040002D02821FDF7BFF9204610BD16
:102DF00000221146AFF300802DE9F04387B00D4665
:102E0000064691461C216846FDF7AFF92748002485
:102E100004604460A6B330460096FDF7CDF9401C2F
:102E2000DFF88880CDE90104D8E90212D8F8100053
:102E30000491CDE9052008F10800FFF7CEFF070057
:102E400018D06846FFF78BFF0146384600F0B2FB0A
:102E500068B1B9F1000F14D06846FFF780FFDDE9D3
:102E60000101814203D202990098405C48B1384682
:102E7000FFF78CFFDDE9011088420BD204460CE01D
:102E800011E01DB10299009808442860384607B047
:102E9000BDE8F083080000D0441E15B13019286049
:102EA00001E0C8E900640020F1E700000000002014
:102EB00010B5044664210848FDF757F907A10648F4
:102EC000FFF75CFA0448FDF777F982B22046BDE8C7
:102ED00010400149FEF7F0BBD00200207B224D22BA
:102EE0003A22737461747573227D0A0010B504462A
:102EF00064210B48FDF739F90A480BA150F824303A
:102F0000143850F824200648FFF738FA0448FDF733
:102F100053F982B22046BDE810400149FEF7CCBB10
:102F2000D00200203C0000207B224D223A22636820
:102F300065636B696E222C224944223A2225732252
:102F40002C224B223A222573227D0A0010B504461A
:102F500064210B48FDF709F90A480BA150F8243009
:102F6000143850F824200648FFF708FA0448FDF703
:102F700023F982B22046BDE810400149FEF79CBB10
:102F8000D00200203C0000207B224D223A226368C0
:102F900065636B6F7574222C224944223A22257393
:102FA000222C224B223A222573227D0A00000000A7
:102FB00010B56FF00400FEF7F9FF094809490068F1
:102FC000B0FBF1F00849C0B200EB40020870C2EB60
:102FD000C0104FF6FF7202EAC000488010BD00002A
:102FE0006800002000127A007C0000200B4949880C
:102FF00048434FF0E021486100238B61086940F0AD
:10300000010008610869C20701D0C003FAD5086948
:1030100020F0010008618B61704700007C000020F7
:103020000B49097848434FF0E021486100238B6148
:10303000086940F0010008610869C20701D0C003B7
:10304000FAD5086920F0010008618B617047000023
:103050007C00002004490A885206FCD5024AC1B20D
:10306000121D1180704700000038014010B5FDF7B7
:103070005FF80068007810BD2DE9F041884628B15E
:10308000B8F1000F02D0856822B90CE00020BDE83D
:10309000F0812D6835B34046296AFDF794F8002881
:1030A000F7D11FE02D68EDB12E6A5FEA0804F9D070
:1030B000002EF7D0B44215D002E098B1641C761C03
:1030C0002078FDF72FF807463078FDF72BF8874278
:1030D0002078F2D0FDF726F804463078FDF722F884
:1030E0008442DFD12846D2E72DE9F0410B3020F0B1
:1030F0000706104D19E02068B04215D3B0420AD936
:10310000871B201DD4F80480FDF716F8A019C0E92C
:103110000078286004E060682860201DFDF70CF846
:10312000201D2660BDE8F081251D2C68002CE2D111
:103130000020F7E78800002040F2F314FEF71EFCA1
:1031400032250D4EFDF768FE641CA4B2B4FBF5F009
:1031500005FB104028B9D6F8B40158B10020C6F8D4
:10316000B4010020FEF750FC0128EBD10220FEF74D
:10317000C5FCE7E70120F2E700002242034800888F
:103180000249091F098800EB014070471C280040D4
:103190002DE9F04107460026C8680C463546B0F5D3
:1031A0007A7F59D2401CE0602168A068095C5B29E5
:1031B00052D1401CA0602046FFF7D1FD4CB1D4E9AC
:1031C0000110884203D22268125C5D2A33D0884203
:1031D00003D3A068401EA0603EE0401E04F110082A
:1031E000A0604046FFF7F9FD88B30EB32860456044
:1031F0000546A068401CA0602046FFF7B0FD2146B0
:10320000284600F0D7F920B32046FFF7A8FD04B305
:10321000D4E90110884203D22168095C2C29E0D04E
:103220006268904215D22168085C5D2811D102E0E5
:1032300006463546DDE7E068401EE0602020C7E92D
:103240000260A068401CA0600120BDE8F081FFE79B
:1032500016B13046FFF79AFD0020F6E7034610B599
:1032600000200246995CA1F13004092C01D83038C5
:103270000AE0A1F14104052C01D8373804E0A1F19E
:103280006104052C08D857380844032A00D20001ED
:10329000521C042AE6D310BD002010BD2DE9F041D8
:1032A00092B000260C4605461096FFF7DFFE074653
:1032B0000020E4B32168D1B36B4627E022681144B3
:1032C000425C342A1BD00ADCA2F12B01092923D24B
:1032D000DFE801F015221517221515151500382AFB
:1032E0000DD006DC352A0AD0362A08D0372A13D169
:1032F00005E0392A03D0452A01D0652A0CD11A5499
:1033000000E01F54401C3F2806D22CB1A168D4F81D
:1033100004C00A186245D1D31E54984610A9184615
:1033200000F0C0FA0F4610990646884503D10020E8
:1033300012B0BDE8F081124A124B30463946C5E959
:103340000667FDF7C1F902D86FF000400DE00022DA
:103350000D4B30463946FDF79FF902D84FF000403B
:1033600003E030463946FDF777F968610820E860E8
:10337000109AA168A2EB08000844A0600120D7E7DA
:103380000000C0FFFFFFDF410000E0C12DE9F04178
:1033900007460026C8680C463546B0F57A7F76D2D7
:1033A000401CE060002C72D0D4E9011088426ED23B
:1033B0002168095C7B296AD1401CA0602046FFF788
:1033C000CEFCD4E90110884203D22268125C7D2A27
:1033D0004CD08842A0F10100A06058D204F110083E
:1033E0004046FFF7FAFCE8B3F6B1286045600546B1
:1033F000A068401CA0602046FFF7B1FC214628468B
:1034000000F047F878B32046FFF7A9FC2869286246
:10341000002028613CB3D4E90110884234D22168ED
:10342000095C3A2930D102E006463546E0E7401C07
:10343000A0602046FFF793FC2146284600F0BAF82A
:1034400088B12046FFF78BFCD4E90110884203D2F3
:103450002168095C2C29C3D06268904214D221688B
:10346000085C01E00FE00FE07D280DD1E068401E10
:10347000E0604020C7E90260A068401CA060012015
:10348000BDE8F08103E016B13046FFF77FFC002075
:10349000F6E72DE9F84F8146D1F800C088684FF073
:1034A000000A0CEB0008CDF800A01CF8000008F1A1
:1034B00001050E462C465746222875D1002170681A
:1034C00007E05C2B04D1521C824269D2491C641C67
:1034D000641CA4EB0C02824202D22378222BF0D18E
:1034E000A4EB0C0282425BD22078222858D1A4EBB4
:1034F0000800401A3169401C8847070054D00097E3
:103500003DE029785C2905D000986D1C00F8011B6E
:10351000009034E00221601B012841DB68786628B6
:1035200014D008DC22281DD02F281BD05C2819D0ED
:10353000622835D108E06E280ED072280ED074288B
:103540000ED075282CD112E0082200E00C22009841
:1035500000F8012B009011E00A22F8E70D22F6E7AF
:103560000922F4E7009A02F8010B009206E06A468D
:103570002146284600F0F8F9010011D00D44A5427B
:10358000BFD3009981F800A01021C9E90317306862
:10359000201A401CB0600120BDE8F88F04E0FFE76E
:1035A00017B171693846884715B13068281AB0607C
:1035B0000020F1E770B50C0005465ED021680029B7
:1035C0005BD0A0686368021D9A4205D808440422B3
:1035D00031A1FCF706FE78B3A0686268411D0126A0
:1035E000914206D82168052208442DA1FCF7F9FD77
:1035F00028B3A0686268011D914206D821680422A0
:10360000084429A1FCF7EDFDE8B1D4E901018142AC
:1036100003D22268525C222A1DD0814221D2226824
:10362000525C2D2A02D0303A092A1AD8214628465F
:10363000BDE87040FFF732BE0420E86006E0EE60AF
:10364000A068401D04E002206E61E860A068001DD3
:10365000A060012070BD21462846BDE87040FFF7FC
:1036600018BF814203D22268525C5B2A07D0814294
:1036700003D22068405C7B2807D0002070BD214623
:103680002846BDE87040FFF783BD21462846BDE8C7
:103690007040FFF77BBE00006E756C6C0000000090
:1036A00066616C736500000074727565000000004F
:1036B0002DE9FE4304460846FFF79AFB05006CD04F
:1036C00037A1FFF787FB0669072236A13046FCF7D2
:1036D00088FD48B92046FFF739FC4FF4FA70FFF730
:1036E00085FC2046FFF702FC092230A13046FCF79A
:1036F00078FD10B92046FFF7F9FB05222EA13046D0
:10370000FCF76FFD03222EA13046FCF76AFD00286E
:103710003FD1FFF733FD2B4E56F82410401A0A28EC
:1037200037D929A12846FFF755FB076927A1284665
:10373000FFF750FBD0F81080FFF720FD46F824007B
:103740003A46214622A0FEF709FE042224A138466B
:10375000FCF747FD30B1042223A13846FCF741FDB8
:1037600050B116E022A0002C07C88DE8070010D841
:103770000220FEF7ADF908E020A0002C07C88DE874
:10378000070006D80220FEF78DF96946404600F092
:1037900071F82846FFF7FAFA0120BDE8FE83000021
:1037A0004D00000057454C434F4D4500636F6E6E12
:1037B00065637465640000006C6F67696E000000EB
:1037C00073617900BC0200204300000049440000FE
:1037D00069643D2564205361793D25730D0A00001D
:1037E000706C61790000000073746F70000000005D
:1037F0006C656420706C6179656400006C656420A0
:1038000073746F70656400002DE9F04704008A4608
:1038100016D054F8047CD4F800903E1F564500D9C9
:1038200056462046FEF7D4FD0546884632462146D8
:103830005046FFF759FC40B1C0F80090BDE8F08752
:10384000BDE8F0470846FEF7F1BD44E9017955B1FE
:1038500029686A18211F8A4202D9611B091F296041
:10386000C5F80480EAE7024AC2F80080E6E70000F3
:10387000880000200B46024601A10948FEF738BD2A
:103880007B224D223A22736179222C224944223A2A
:10389000222573222C2243223A222573227D0A00FC
:1038A0000048004000B583B00A460021CDE9001170
:1038B00001466846FCF7B3FFDDE9000103B000BD37
:1038C00070B5054686B0012144F20500FEF7FCF90B
:1038D0004FF40070ADF8100003248DF8124018204A
:1038E0001F4E8DF8130004A93046FDF7B5FF3015C3
:1038F000ADF8100004208DF8130004A93046FDF740
:10390000ABFF25208DF814008DF815408DF816407A
:1039100001208DF8170005A8FEF774F90020ADF816
:103920000400ADF80600ADF80800ADF80C000C205E
:103930000C4CADF80A00009569462046FEF710FCD5
:10394000012240F225512046FEF7F1FB01212046DD
:10395000FEF7BDFB40212046FEF7B6FB06B070BD6A
:1039600000080140003801402DE9F04707460026D5
:10397000C81B1446894606285CDBB81CFFF76EFCA2
:103980000546A0F55C404FF48061884252D3A5F50E
:1039900058408A4650451AD2B81DA9EB00014FF095
:1039A0000C08062946DB01785C2943D1417875294A
:1039B00040D1801CFFF752FCA0F55C41514539D243
:1039C000C5F3090161F39F2000F5803002E04FF05C
:1039D00006082846802801D2012210E0B0F5006FC9
:1039E00002D20222C0260AE0B0F5803F02D20322B2
:1039F000E02604E0B0F5881F1CD20422F026511EF8
:103A000007E000F0BF03256843F0800380096B5492
:103A1000491E11F0FF01F4D1012A01D9304301E020
:103A200000F07F0021680870206810442060404644
:103A3000BDE8F0870020FBE7C03B0008C43B00085E
:103A4000C43B0008C43B0008C43B0008C43B00085A
:103A5000C43B0008C43B0008C43B0008C43B00084A
:103A6000FFFFFFFFFFFFFFFFFFFFFFFFFFFF000064
:103A70000040404040404040404041414141414081
:103A80004040404040404040404040404040404036
:103A900040050202020202020202020202020202C5
:103AA00002202020202020202020200202020202CA
:103AB0000202909090909090101010101010101022
:103AC000101010101010101010101010020202022E
:103AD0000202888888888888080808080808080872
:103AE000080808080808080808080808020202026E
:103AF00040000000713A000841542B43574A41509E
:103B00003D22323134222C22332E313431353932B8
:103B100036220D0A00000000C5E4CDF8B7BDB7A8F5
:103B2000D2BB3AB4AEBFDAC5E4CDF8D5FDC8B7B85C
:103B3000F1CABD3A7B2253534944223A225769467F
:103B400069C3FBD7D6222C22505344223A2257690C
:103B50004669C3DCC2EB227D0D0A000037313231E9
:103B60000000000037313232000000006536336556
:103B700037633539320000006263303935313366DE
:103B80003200000037313233000000003830333368
:103B90000000000037313334000000003233373486
:103BA00034363935390000006430643337643166A7
:103BB00061000000613539666566366263000000A9
:103BC0002E00000000000000E83B0008000000207C
:103BD000940000007C2400087C3C00089400002035
:103BE0006C1300008C24000800000000000000009E
:103BF0002D240008D1230008093800080000000027
:103C0000F83A00080000000000000000000000007A
:103C10008C3B0008943B00085C3B0008643B0008B8
:103C2000843B0008A83B0008783B0008B43B000830
:103C30009C3B00086C3B00080102040608000000E1
:103C40000001020304010203040607080900000042
:103C5000007E560300000000000000000102030483
:103C60000607080900000000000000000000000036
:0C3C700000000000000000000000000048
:04000005080000ED02
:00000001FF
