:020000040800F2
:10000000080400208D050008790500087B0500081C
:100010007D0500087F05000881050008000000003C
:100020000000000000000000000000008305000840
:100030008505000800000000870500088905000804
:10004000CD050008D1050008D5050008D905000830
:10005000DD050008E1050008E5050008E9050008E0
:10006000ED050008F1050008F5050008F905000890
:10007000FD0500080106000805060008090600083D
:100080000D060008110600081506000819060008EC
:100090001D0600082106000825060008290600089C
:1000A0002D0600083106000835060008390600084C
:1000B0003D060008410600084506000849060008FC
:1000C0004D060008510600085506000859060008AC
:1000D0005D0600086106000865060008690600085C
:1000E0006D0600087106000875060008790600080C
:1000F0007D060008810600088506000889060008BC
:100100008D0600089106000895060008990600086B
:100110009D060008A1060008A5060008A90600081B
:10012000AD060008B1060008B5060008B9060008CB
:100130002110000063304220A5508440E770C66063
:100140004AA129918CC16BB1CEE1ADD13112EFF151
:10015000522273329442B552D662F77218833993A1
:10016000BDD35AA3FFF39CC36224DEE320044334CF
:10017000C774E6648554A4444BB56AA509952885DF
:10018000ACC5CFF553368DD511167226D77630060D
:10019000B44695567AA75BB738871997FEE7DFF71D
:1001A000C448BCC78668E5584008A778022861188B
:1001B000EDD9CCC9AFF98EE9699948892BB90AA95B
:1001C000B77AD44A711A966A333A500AFDDB122A7A
:1001D0009EEBBFFB588B799B1AAB3BBB877CA66C15
:1001E000222CC55C600C033CAEED411CECCD8FFDB8
:1001F0000BBD2AAD499D688DB66E977EF44ED55ED7
:10020000511E322E9FFF700EDDDFBEEF1BBFFCCFF5
:10021000788F599FA9818891EBA1CAB12DC10CD1CA
:1002200080106FE1C230A1000450E32046702540E9
:100230009893B983DAB3FBA31CD33DC35EF37FE38A
:10024000F32290123542D23277621452EAB55672D6
:100250008985A8954FE56EF50DC52CD5C324E234EC
:100260006674810424544764DBA705449987FAB770
:100270007EF75FE73CD71DC7F236D326B01691064E
:10028000154676764CD934560EF96DC9C8992FE9C2
:10029000ABA98AB96548445827680678E108C018B0
:1002A0007DCBA3283FEB5CDBF98B1EFBBBABD89B64
:1002B000545A754A167A376AD01AF10A923AB32A12
:1002C0006CDD0FEDAABD4DCDE89D8BAD267CC98DB3
:1002D000454C645C832CA23CC10CE01C3EFF1FEF2C
:1002E0009BAF7CDFD98FBABF176EF89F554E367E15
:1002F000B23E932EF01ED10E80B54E48006850F0ED
:1003000001004C4908604C4801684C4801404A488B
:100310000160484801684A48014046480160454834
:10032000006830F48020434908604348006830F496
:10033000FE00414908605FF41F004249086000F078
:1003400005F85FF000604049086001BD80B500F02D
:1003500001F801BD82B000200190002000903548D6
:10036000006850F48030334908603248006810F467
:10037000003000900198401C01900098002803D1A3
:100380000198B0F5A06FF0D12A480068800302D52B
:100390000120009001E0002000900098012847D142
:1003A0002A48006850F01000284908602748006873
:1003B00080088000254908602448006850F0020049
:1003C000224908601C4800681B4908601A480068F8
:1003D000194908601848006850F4806016490860A0
:1003E0001548006830F47C10134908601248006812
:1003F00050F4E810104908600E48006850F0807012
:100400000C4908600B4800688001FBD50A48006869
:1004100080088000084908600748006850F0020022
:10042000054908600448006810F00C000828F9D15C
:1004300002B0704700100240041002400000FFF8B4
:10044000FFFFF6FE0810024008ED00E00020024029
:1004500019E050F8042BD30744BFA9F101039A18FF
:10046000091F0023042942F8043BF9D25FEA817C8A
:10047000134604D54FF0000CA2F800C09B1CC9071E
:1004800044BF0021197050F8041B0029E1D17047C6
:1004900010B5074979441831064C7C44163404E001
:1004A0000A68081D114488470146A142F8D110BDD1
:1004B000500000005C00000010B402000020002387
:1004C0008B4205D252F82300034C20605B1CF7E7F7
:1004D0000148006810BC7047003002400A00D2B2E8
:1004E000002A05D0054A12680243044B1A6004E052
:1004F000024A12688243014B1A607047141002408E
:1005000051FFFFFF04000000000000200000000079
:1005100080B501214020FFF7E1FF72210248FFF77B
:10052000CBFF02490860FEE7300100080000002010
:1005300000F00DF8002801D0FFF7AAFFAFF300800C
:100540000020AFF30080FFF7E3FF00F002F8012086
:10055000704700F001B800000746384600F002F886
:10056000FBE7000080B5AFF30080024A11001820BD
:10057000ABBEFBE7260002007047FEE7FEE7FEE7A2
:10058000FEE770477047704770470000014880479A
:1005900001480047F90200089D050008AFF30080FC
:1005A000AFF30080FFF7C4FFFFF7E6BFFFF7E5BF3B
:1005B000FFF7E4BFFFF7E3BFFFF7E2BFFFF7E1BFDD
:1005C000FFF7E0BFFFF7DFBFFFF7DEBFFFF7FEBFBC
:1005D000FFF7FEBFFFF7FEBFFFF7FEBFFFF7FEBF4F
:1005E000FFF7FEBFFFF7FEBFFFF7FEBFFFF7FEBF3F
:1005F000FFF7FEBFFFF7FEBFFFF7FEBFFFF7FEBF2F
:10060000FFF7FEBFFFF7FEBFFFF7FEBFFFF7FEBF1E
:10061000FFF7FEBFFFF7FEBFFFF7FEBFFFF7FEBF0E
:10062000FFF7FEBFFFF7FEBFFFF7FEBFFFF7FEBFFE
:10063000FFF7FEBFFFF7FEBFFFF7FEBFFFF7FEBFEE
:10064000FFF7FEBFFFF7FEBFFFF7FEBFFFF7FEBFDE
:10065000FFF7FEBFFFF7FEBFFFF7FEBFFFF7FEBFCE
:10066000FFF7FEBFFFF7FEBFFFF7FEBFFFF7FEBFBE
:10067000FFF7FEBFFFF7FEBFFFF7FEBFFFF7FEBFAE
:10068000FFF7FEBFFFF7FEBFFFF7FEBFFFF7FEBF9E
:10069000FFF7FEBFFFF7FEBFFFF7FEBFFFF7FEBF8E
:1006A000FFF7FEBFFFF7FEBFFFF7FEBFFFF7FEBF7E
:0C06B000FFF7FEBFFFF7FEBFFFF7FEBF25
:040000050800059D4D
:00000001FF
