:020000040800F2
:1000000000800020F1000008000000000000000057
:1000100000000000000000000000000000000000E0
:1000200000000000000000000000000000000000D0
:100030000000000000000000000000004100000877
:1000400080B400AF4FF4C053C4F201034FF4C05268
:10005000C4F20102D26882F48042DA604FF4A05305
:10006000C4F201034FF4A052C4F20102D26882F03C
:100070000202DA60BD465DF8047B704780B483B04D
:1000800000AF78600B46FB704EF21003CEF2000317
:100090004EF21002CEF2000212681A604EF2100305
:1000A000CEF200034EF21002CEF200021168FA788E
:1000B00052000A431A604EF21003CEF200037A682F
:1000C0005A604EF21003CEF2000300229A604EF204
:1000D0001003CEF200034EF21002CEF200021268BC
:1000E00042F001021A600C37BD465DF8047B704790
:1000F00080B500AF4FF48053C4F202034FF4805236
:10010000C4F20202926942F020029A614FF48053D5
:10011000C4F202034FF48052C4F20202926942F028
:1001200040029A614FF4A053C4F201034FF4A0526D
:10013000C4F20102126822F0F0021A604FF4A053D8
:10014000C4F201034FF4A052C4F20102126842F05B
:1001500020021A604FF4C053C4F201034FF4C0529E
:10016000C4F20102526822F070625A604FF4C05328
:10017000C4F201034FF4C052C4F20102526842F0CB
:1001800000725A604FF4A053C4F201034FF4A0521E
:10019000C4F20102D268DA604FF4C053C4F2010322
:1001A0004FF4C052C4F20102D26842F48042DA60D5
:1001B0004FF47A700021FFF761FF4FF47A7000F07E
:1001C00019F84FF4C053C4F201034FF4C052C4F203
:1001D0000102D26882F48042DA604FF4A053C4F284
:1001E00001034FF4A052C4F20102D26882F002026D
:1001F000DA60E2E780B483B000AF78607B680CE03F
:1002000000BF4EF21003CEF200031B6803F48033EC
:10021000002BF6D07B68013B7B607B68002BEFD125
:0C0220000C37BD465DF8047B704700BF42
:04000005080000F1FE
:00000001FF
