:020000040800F2
:10000000C80500209D010008A5010008A7010008FF
:10001000A9010008AB010008AD01000800000000C4
:10002000000000000000000000000000AF01000818
:10003000B101000800000000B3010008A53100086C
:10004000B7010008B7010008B7010008B7010008B0
:10005000B7010008B7010008B7010008B7010008A0
:10006000B7010008B7010008B7010008B701000890
:10007000B7010008B7010008B7010008B701000880
:10008000B7010008B7010008690E0008B7010008B1
:10009000B7010008B7010008B7010008B701000860
:1000A000B7010008B7010008B7010008B701000850
:1000B000B70100080000000000000000B7010008C0
:1000C000B7010008B7010008B701000800000000F0
:1000D000B701000841360008B7010008B701000861
:1000E000B7010008B7010008B701000800000000D0
:1000F0000000000000000000000000000000000000
:10010000000000000000000000000000B70100082F
:100110000000000000000000B7010008000000001F
:1001200000000000000000000000000000000000CF
:1001300000000000000000000000000000000000BF
:10014000B7010008B701000800000000000000002F
:10015000000000000000000000000000000000009F
:10016000B7010008B7010008B7010008B70100088F
:10017000B7010008000000000000000000000000BF
:1001800000000000B7010008DFF80CD000F058FCB8
:1001900000480047D94E0008C8050020064880479F
:1001A00006480047FEE7FEE7FEE7FEE7FEE7FEE75C
:1001B000FEE7FEE7FEE7FEE71D32000889010008C2
:1001C0002DE9F05F0546002092469B46884606468C
:1001D000814640241BE0284641464746224600F01F
:1001E00020F853465A46C01A914110D3114618467A
:1001F000224600F0D5FA2D1A67EB01084F46224639
:100200000120002100F0CCFA17EB00094E41201E1E
:10021000A4F10104DFDC484631462A464346BDE8E6
:10022000F09F202A04DB203A21FA02F000217047D7
:1002300021FA02F3D040C2F120029140084319464E
:100240007047D2B201E000F8012B491EFBD2704783
:100250000022F6E710B513460A4604461946FFF792
:10026000F0FF204610BD00000FB400B58DB010A9FE
:1002700009900B9000914FF0FF300A9000200C90F5
:1002800005480690054807906A4609A80F9900F0AE
:10029000BDFA0DB05DF814FB2908000847080008F6
:1002A0002DE9FF5F1D464FF0FF3BD5E90146914622
:1002B0005F464FF00008A9697F1C01988847296AAA
:1002C000824688470028F6D1BAF1FF3F0CD024F4CB
:1002D000C064002E19DD600614D5BAF12B0F09D0C9
:1002E000BAF12D0F0ED103E0584604B0BDE8F09FDF
:1002F00044F48064A9697F1C01988847761E824671
:10030000002E02DDBAF1300F03D0B9F1000F26D074
:1003100032E0A969761E44F400747F1C0198884776
:100320008246002E05DDBAF1780F06D0BAF1580FDB
:1003300003D0B9F1000F10D01EE0B9F1000F02D0C8
:10034000B9F1100F18D1A969761E24F400747F1C2E
:10035000019888478246102002E0082000E00A2029
:10036000814609E008FB0908A969761E44F4007477
:100370007F1C019888478246002E05DD494650467D
:1003800000F02FFA0028EDDAE96901988847A00506
:1003900002D46FF00100A8E7E00725D1600613D56D
:1003A000600502D5C8F1000000E0404629680A1D3A
:1003B0002A600968220501D5087015E0220701D5D9
:1003C000088011E008600FE02868011D29600068BE
:1003D000210502D580F8008006E0210702D5A0F8AB
:1003E000008001E0C0F8008038467EE72DE9FE4F2E
:1003F000804681EA0300C00F0C46009021F00041C6
:1004000023F00045B8EB0200A94105D24046214641
:1004100090461C460B46024623F00040104347D04E
:10042000270DC7F30A00C3F30A510290401A019046
:1004300040286BDAC3F3130040F4801B0098924607
:1004400020B10023D2EB030A63EB0B0B0198594652
:10045000C0F14002504600F0A3F906460D46504652
:100460005946019A00F0ABF910EB080061410024F5
:1004700087EA115284EAE7731A4340D0009A62B3C4
:10048000019A012A4FEA075215DC001B61EB0201B9
:100490004FF0004202EA0752CDE90042001C41F54C
:1004A000801132462B4600F025FA03B0BDE8F08FEC
:1004B00040462146F9E7001B61EB0201001C41F5B3
:1004C000801300185B412018A2F5001747EB0301C9
:1004D00040EAD570B6196D4111E06D084FEA360655
:1004E00045EAC0754FEA0752001B61EB0201001C90
:1004F00041F5801149084FEA300000195141324658
:100500002B4603B0BDE8F04F00F0E5B9009801229A
:1005100040000023D0EB020263EBE0730098214619
:100520004FEAE074B8EB000061EB0401E9E783F007
:1005300000435BE781F0004158E72DE9FE4F81EA77
:10054000030404F0004421F0004100944FF0000B3C
:1005500023F0004350EA01045ED052EA03045BD06A
:10056000C3F30A54C1F30A552C44A4F2F3340194A2
:10057000A0FB0254C1F3130141F48011C3F3130330
:1005800043F4801301FB024400FB034E840A970AE4
:1005900044EA815447EA8357A4FB076802958D0A11
:1005A00005FB07854FEA932C04FB0C542705029D9D
:1005B0004FEA065847EA1637B5EB08056EEB070C0D
:1005C000870E920E47EA811742EA8312A7FB0201C7
:1005D000B6EB0B0164EB00042B0D43EA0C335E1801
:1005E00044EB1C50DA465146E7FB0201C5F3130405
:1005F0004FEA0B3343EA14534FEA0432019C43EAB7
:100600000603A4F10C040294009CCDE900B400F0B0
:1006100071F903B0BDE8F08F00200146F9E72DE93C
:10062000F04D81EA030404F0004B21F0004514462C
:100630004FF0000A23F0004150EA050220D054EAAE
:1006400001021DD0C5F30A570246C5F31303C1F3D7
:100650001300C1F30A5640F4801543F48013A7EB4E
:100660000608101BD64608F2FD3873EB050002D3CE
:1006700008F1010801E092185B41B8F1000F03DABC
:1006800000200146BDE8F08D00204FF480110646A1
:1006900084460EE0171B73EB050705D3121B63EBB3
:1006A000050306434CEA010C49084FEA3000921852
:1006B0005B4150EA0107EDD152EA030012D082EA11
:1006C000040083EA0501084305D0101BAB4106D2A4
:1006D0000122002306E000224FF0004302E06FF009
:1006E000010253101AEB06004CEB085110EB0A0004
:1006F00041EB0B01BDE8F04D00F0EDB80EB540F256
:10070000334102910021CDE900110A460B4600F069
:10071000F1F803B000BD00F0004230F000400AD014
:10072000C10D01F56071C0F3160042EA0151C20823
:1007300040071143704700200146704701F0004315
:1007400030B421F0004150EA010206D00A0DA2F5B2
:100750006072C1F31301002A02DC30BC0020704734
:10076000440F44EAC104C100E01830BC00EBC250A1
:1007700000F07AB830B50B46014600202022012453
:1007800009E021FA02F59D4205D303FA02F5491B5F
:1007900004FA02F52844151EA2F10102F1DC30BD75
:1007A000202A04DB203A00FA02F100207047914031
:1007B000C2F1200320FA03F3194390407047202A26
:1007C00006DBCB17203A41FA02F043EAE07306E079
:1007D00041FA02F3D040C2F1200291400843194689
:1007E00070473A2800D2303820F02002412A01D345
:1007F000A2F13700884201D34FF0FF30704700006C
:10080000026811441378016018467047D1600449AA
:1008100051610449116200211161114600F028B9AB
:1008200001080008650A0008426842B1016811F831
:10083000013B23B1521EC0E9001218467047012146
:10084000C160881E704742685AB1C368016843B9E5
:1008500083688B4205D0491E521CC0E9001200205B
:1008600070474FF0FF3070470029A8BF7047401C09
:10087000490008BF20F00100704710B4B0FA80FCB6
:1008800000FA0CF050EA010404BF10BC704749B1F3
:10089000CCF1200421FA04F411FA0CF118BF012163
:1008A00021430843A3EB0C01CB1D4FEA00614FEA43
:1008B000102042BF002010BC704700EBC350104412
:1008C0000029A4BF10BC7047401C490008BF20F09D
:1008D000010010BC704710B5141E73F1000408DA53
:1008E000401C41F1000192185B411A4301D120F0F4
:1008F000010010BD2DE9F04D92469B4611B1B1FAB1
:1009000081F202E0B0FA80F220329046FFF748FF11
:1009100004460F4640EA0A0041EA0B0153465A4694
:10092000084313D0114653EA010019D0C8F1400220
:100930005046FFF776FC05460E465046594642465D
:10094000FFF72EFF084305D0012004E0204639467A
:10095000BDE8F08D0020054346EAE0762C4337439E
:100960000A986305E40AA0EB08000022FD0A44EAA5
:1009700047540A3002D500200146E9E70105101965
:100980006941DDE9084500196941BDE8F04DA2E77C
:1009900070B521F0004303430CD0C1F30A55002485
:1009A000D5EB040564EB0403D617AD1AB34102DBA3
:1009B0000020014670BD201841EB025170BD0EB5FC
:1009C000C10F80EAE0700844CA07002140F23343B7
:1009D0008DE80E000A460B46FFF78CFF03B000BD02
:1009E000C1F30A52C1F3130140F2FF3341F4801105
:1009F0009A4202DA00200146704740F233439A429D
:100A0000A2F2334202DC5242FFF70BBCFFF7C8BE32
:100A100030B5041E71F1000404DB4FF00044404285
:100A200064EB0101141E73F1000405DB1C464FF05A
:100A30000043524263EB0403994208BF904230BD29
:100A4000064C074D06E0E06840F0010394E807001B
:100A500098471034AC42F6D3FFF79AFBA85200082F
:100A6000C8520008C0B24FF4F05100F0E9B90000DC
:100A70002DE9F34F8BB04FF0000801F10C000C464C
:100A80004FF0010B46460DF1080A01906269012101
:100A90000198904705002DD0252D2CD0216A88473C
:100AA000C0B16269012101989047216A88470028F6
:100AB000F7D1411E62690198904700E0761CA16958
:100AC0000B988847216A88470028F7D1E1690B987D
:100AD0008847DBE7A1690B9888470746A84201D100
:100AE000761CD3E7E1690B9888477F1C02D1B8F1E7
:100AF000000F6FD046E1002762693D4639460198F4
:100B000090472A2804D16269012101989047012564
:100B1000DFF884926269012101989047A0F13001C9
:100B20000A290AD24F45E5DC07EB870100EB4107B4
:100B3000303FDFD445F01005ECE7E90601D46FF053
:100B400000476C280AD04C2814D0682815D06A2891
:100B50000DD074281CD07A281AD01DE062690121BA
:100B6000019890476C2802D045F0040514E045F048
:100B700002050DE045F020050AE0626901210198B7
:100B80009047682802D045F0080505E045F4006567
:100B90006269012101989047C4E9015765283DD059
:100BA00019DC58287AD00CDC452837D004DC2528FD
:100BB00026D0412831D131E046282FD047282CD1EA
:100BC0002CE05B2877D0612828D063287CD064286B
:100BD00023D15AE0D0E06F2848D008DC66281DD029
:100BE00067281BD0692821D06E2816D127E07028ED
:100BF00045D0732868D0752847D078280DD14DE0AE
:100C0000A1690B988847054625283FF469AFE1693B
:100C10000B9888476D1C3FF46AAFB3E023466A46E1
:100C20006FF001000B99AFF300809EE045F04000AB
:100C30006060A80723464FF0000236D43EE0E80784
:100C40007FF447AF2068011D21600068290501D5A8
:100C500006701BE7290701D5068017E7A90703D50A
:100C6000F117C0E9006111E706600FE745F04000A9
:100C70006060A80723464FF0080216D41EE040F635
:100C80000E0125EA0100606016E045F0400060605A
:100C9000A80723464FF00A0207D40FE045F04000B2
:100CA0006060A80708D5234610226FF001000B9959
:100CB000AFF3008059E007E0234610226FF00100F7
:100CC0000B99FFF7EDFA50E04FF000094F464B4605
:100CD000632802D05B2806D040E0E80601D401205A
:100CE000A06001273AE062690121019890475E28DF
:100CF00005D14FF001096269494601989047216981
:100D000039B900210A46534643F82120491C0829D5
:100D1000FADBB0B3216969B9C11700EBD162531195
:100D20000AEB830122F01F02821A01200B68904017
:100D300003430B6062690121019890475D28E8D167
:100D4000B9F1000F09D00020514651F82020D243BC
:100D500041F82020401C0828F7DB02AB2246009710
:100D60006FF001000B99AFF3008000280CDA401CF3
:100D700008D1BBF1000F05D04FF0FF300DB0BDE83A
:100D8000F08FFFE74046F9E7E90701D108F10108D4
:100D900006444FF0000B79E6CCCCCC0C2DE9F04D9D
:100DA00000231A461B1A8A4103DB00200146BDE8D6
:100DB000F08DC1F30A52C1F3130141F480154FF0D5
:100DC000000BD10702D100186D41521E00270446C6
:100DD00040F2FF11384601EB620A3E468046024669
:100DE00000204FF48011FFF71CFAC2197141BB18A3
:100DF00046EB0100B4EB030C75EB000C04D3E41AD2
:100E000065EB000517460E46241908F101006D41F7
:100E100080463428E3DDF91946EB0600091BA8419A
:100E200003D24FF0FF32134601E0002213461BEBC2
:100E3000070046EB0A51BDE8F04DFFF74CBD00003E
:100E40007F2801D9002208E0064A02EB5002C007C1
:100E5000127800D1120902F00F02012090400840E0
:100E60007047000068520008014800F07DBA000099
:100E70004400002070B5044600202268936813F0F7
:100E80000C0F4ED0D3689B0111D5637E012B0ED180
:100E9000237E012B0BD10C21234B02E0984232D24E
:100EA000401C1568ED436D06F8D4402010606029A1
:100EB0000CD020688268520706D58268920703D456
:100EC000826842F0100282600C290AD02068826891
:100ED000120706D58268920703D4826842F0200286
:100EE0008260602908D06C2904D0042500F0C2FD7E
:100EF000064612E00C25F9E70825F7E700F0BAFDF1
:100F0000801B0B2809D9206C40F010002064606C15
:100F100040F001006064012070BD206880682842B4
:100F2000ECD1002070BD00000094090070B50446AB
:100F30000068816801F00301012925D10168C90712
:100F400022D0816801F00D0101290FD1816841F0A3
:100F50000201816021680320086000F08BFD0546D6
:100F60000EE000F087FD401B022809D9206C40F0FC
:100F700010002064606C40F001006064012070BDCE
:100F800020688068C007ECD1002070BD70B50446B1
:100F90000068816801F00301012902D10168C907D5
:100FA0001FD18168104A11420CD1816841F00101C2
:100FB000816000F05FFD05460EE000F05BFD401B28
:100FC000022809D9206C40F010002064606C40F0C9
:100FD00001006064012070BD20680068C043C00744
:100FE000EBD1002070BD00003F00008030B5040050
:100FF00004D019B100231046054D05E0002030BD96
:10100000E25C42405B1CA85C8B42F9D330BD00001F
:101010009A5000087047704770477047F0B594B019
:101020000024009490F83C202546012A19D001267E
:1010300080F83C60026893685B077DD44B681F278B
:10104000052B11D2D2F830C003EB43035B009F4065
:101050002CEA070C0F689F404CEA070CC2F830C01E
:1010600035E0022014B0F0BD0A2B0FD2D2F834C004
:101070005B1F03EB43035B009F402CEA070C0F68E8
:101080009F404CEA070CC2F834C020E00F2B0FD26F
:10109000D2F838C00A3B03EB43035B009F402CEAC5
:1010A000070C0F689F404CEA070CC2F838C00EE0EE
:1010B000D2F83CC00F3B03EB43035B009F402CEA9C
:1010C000070C0F689F404CEA070CC2F83CC002684E
:1010D00093684FF0070713F00C0F73D10B680A2BBE
:1010E00011D3D2F818C00A3B03EB430307FA03FEFF
:1010F0002CEA0E0CD1F808E00EFA03FE4CEA0E0CB6
:10110000C2F818C00FE0D2F814C003EB430307FA8B
:1011100003FE2CEA0E0CD1F808E00EFA03FE4CEAAE
:101120000E0CC2F814C002684B69D2F80CC0CCF3A4
:10113000C10C4FEA4C0C00E0CBE003FA0CF3D1F801
:1011400010C0DFF8F0E1BCF1010F42D0BCF1020F9A
:101150004DD0BCF1030F58D0BCF1040F63D0136E17
:1011600091F800C003F0F843B3EB8C6F03D1136E1A
:1011700023F0004313660268536E91F800C003F039
:10118000F843B3EB8C6F03D1536E23F000435366E7
:101190000268936E91F800C003F0F843B3EB8C6FD4
:1011A00003D1936E23F0004393660268D36E91F8E7
:1011B00000C003F0F843B3EB8C6F03D1D36E23F080
:1011C0000043D3660268936803F00303012B3AD10E
:1011D00036E0D2F860C00CEA0E0C91F800E043EA69
:1011E0008E634CEA030C4CF000431366EAE7D2F836
:1011F00064C00CEA0E0C91F800E043EA8E634CEAFE
:10120000030C4CF000435366DCE7D2F868C00CEAEC
:101210000E0C91F800E043EA8E634CEA030C4CF0AC
:1012200000439366CEE7D2F86CC00CEA0E0C91F83E
:1012300000E043EA8E634CEA030C4CF00043C0E745
:101240001368DB074AD1CB68012B52F8B03F04D0BA
:101250000F78BE40B34313601EE091F800C006FA59
:101260000CF6334313600A6803680A2A0AD39E699E
:10127000093A02EB42029740BE438F6897403E43D3
:101280009E6109E05E69521C02EB42029740BE4338
:101290008F6897403E435E610968274A102904D051
:1012A000112905D0122906D018E093681B0204E02A
:1012B0009368DB0101E093685B02002B0EDB009575
:1012C00003689E6806F00306012E0BD11E68F60720
:1012D00008D0016C41F020010164012480F83C50E9
:1012E0002046BFE64FF0A046102908D011291AD099
:1012F0001229F3D1916841F480019160EEE7B34285
:10130000ECD1916841F4000191600C490C4A0968E4
:10131000B1FBF2F101EB8101490000E0491E0091AF
:101320000029FBD1DAE7B342D8D1916841F080714E
:10133000E3E7000000F0FF830003005030000020CE
:1013400040420F0070B5054600F00BF8034C60807A
:10135000284600F06EFA0120607070BD0000002089
:1013600070470068006C704710B50446006801685B
:10137000490702D54168490705D40168090735D5F1
:101380004168090732D5216CC90603D4216C41F4A8
:1013900000712164C168C26801F4005102F4406226
:1013A0000A431DD1016809071AD5816849070FD47E
:1013B000416821F00C014160206C20F480702064B1
:1013C000206CC0040CD4206C40F00100206407E0C5
:1013D000206C40F010002064606C40F001006064FC
:1013E0002046FFF7AFFF21680C20086020680168E5
:1013F000890602D54168890605D4016849063BD5AE
:101400004168490638D5216C41F400512164C16816
:10141000C26C12F0C00F08D08A0127D4C26801F450
:10142000005102F440620A4320D1016849061DD5EB
:10143000C16889021AD4816809070FD4416821F074
:1014400060014160206C20F480502064206CC00555
:101450000CD4206C40F00100206407E0206C40F0C8
:1014600010002064606C40F0010060642046FFF7CB
:10147000D1FD2168602008602068016809060CD54C
:101480004068000609D5206C40F480302064204676
:1014900000F042F921688020086020680168C905D1
:1014A0000DD54068C0050AD5206C40F4003020649A
:1014B0002046FFF7B1FD21684FF480700860206876
:1014C000016889050DD5406880050AD5206C40F477
:1014D000802020642046FFF7A0FD21684FF40070B3
:1014E000086020680168C9061BD54168C90618D57F
:1014F000616B012907D017498A68D20627D088680E
:1015000000F4404050B1206C40F480602064606C76
:1015100040F0020060642046FFF722FF216810209F
:10152000086020680168490510D5416849050DD556
:10153000216C41F480412164616C41F008016164D7
:101540004FF4806101602046FFF765FD10BDC06863
:10155000C007D7E700030050F0B54FF0000595B085
:1015600004002F462E46009505D0206CC00649D4B5
:10157000206C18B134E0012015B0F0BD6664E6645B
:10158000A66484F83C60204600F0C8F820688068B3
:10159000C00025D42046FFF7C9FC0546206C00F0AA
:1015A000100129431CD1206C20F4885040F0020027
:1015B00020642068816821F0405181602068816842
:1015C00041F0805181604F484F490068B0FBF1F015
:1015D00000EB8000400000E0401E00900028FBD19E
:1015E00020688168C90002D5806880000AD5206C17
:1015F00020F0020040F010002064606C40F0010018
:1016000060640125206C00F01000284371D120682F
:10161000816849076DD4216C21F4807141F0020189
:10162000216400963949826802F00302012A02D13E
:101630000068C00705D18868626820F44030104314
:101640008860D4E902100843616B012902D04FF48D
:10165000805200E00022617E42EA4132104394F859
:1016600020203843012A0AD1A9B1216C21F00201BE
:1016700041F020012164616C41F001016164A16AC3
:10168000012902D0E26A1143084321688A6812F0F6
:101690000C0F08D013E0A18C1D4A02EB414101431D
:1016A00041F48030EBE7CA6844F202039A43CA600F
:1016B000217E94F83020890341EA420108432168E1
:1016C000CA68144B1A400243CA6020690128206886
:1016D000016B21F00F0102D1E269521E1143016337
:1016E0006664206C20F0020040F00100206407E0F6
:1016F000FFE7206C20F0020040F01000206401257C
:10170000284639E73000002040420F000003005017
:101710000000FEFF07C0F0FF7047000010B586B064
:10172000044614216846FEF793FD2068B0F1A04FEF
:1017300022D11248416941F080514161416901F073
:1017400080510591416941F4002141614069694638
:1017500000F400200590022000900320019000205A
:101760000290074800F0C0F800221146122000F055
:101770008BFB122000F07AFB06B010BD0010024077
:101780000008004810B504460068806840074ED441
:1017900094F83C0001284AD0012084F83C002046FF
:1017A000FFF7F4FB002210B184F83C2010BD216C3F
:1017B00040F60163994341F480712164216C21F466
:1017C000801121642168CB689B0105D5236C23F42B
:1017D000005343F480532364236CDB0404D5636C0F
:1017E00023F00603636400E0626484F83C201C225A
:1017F0000A606169082921684A6802D042F00C0237
:1018000006E022F004024A6021684A6842F00802B9
:101810004A60616B012904D121684A6822F01002F4
:101820004A6021688A6842F004028A6010BD022082
:1018300010BD10B5044690F83C00012808D00120E6
:1018400084F83C006C212046FFF714FB10B110E037
:10185000022010BD2068416821F01C014160204633
:10186000FFF764FB28B9216C21F4885141F0010194
:101870002164002184F83C1010BD10B590F82110AF
:101880000024022903D004218163012418E00168A7
:101890000A6822F00E020A6001680A6822F001025A
:1018A0000A6090F84020012303FA02F1C26B5160F4
:1018B00080F82130002180F82010416B01B1884769
:1018C000204610BD70B5044600F0D4F80546601CF3
:1018D00002D004480078044400F0CCF8401BA04239
:1018E000FAD370BD340000202DE9F84FDFF8609185
:1018F000002209F1040A0AF1040B4FF00F080BF162
:10190000040E9EE001269640334070D04C68022CB5
:1019100001D0122C11D1D40800EB84073D6A540782
:10192000E40E08FA04FC25EA0C05D1F810C00CFA04
:1019300004FC4CEA050CC7F820C0076854000325D6
:1019400091F804C0A5400CF0030CAF430CFA04FC62
:101950004CEA070CC0F800C04F68012F05D0022FD9
:1019600003D0112F01D0122F11D18768D1F80CC0EC
:10197000AF430CFA04FC4CEA070CC0F808C04768F7
:10198000B7430E79C6F3001696403E434660C668DC
:10199000AE438D68A5403543C5604C68E4004FD523
:1019A0002C4CA56945F00105A561A46922F0030549
:1019B00004F001040094284C2E19B7689407250FF1
:1019C00008FA05F4A743B0F1904F04D0234CA0428D
:1019D00003D101240DE000240BE0214CA04201D1F1
:1019E000022406E01F4CA04202D1032401E027E0BC
:1019F0000524AC403C43B460D9F800404D464E68E5
:101A00009C43F60300D51C432C60DAF80040554691
:101A10004E689C43B60300D51C432C60DBF80040A5
:101A20005D464E689C43F60200D51C432C60DEF8F0
:101A3000004075464E689C43B60200D51C432C609E
:101A4000521C0B6833FA02F47FF45CAFBDE8F88FE8
:101A50000004014000100240000001400004004862
:101A600000080048000C00480AB18161704781629B
:101A70007047000001488068704700003400002073
:101A800090F84120202A24D190F84020012A20D02B
:101A9000012280F84020242280F841200268136847
:101AA00023F0010313600268136823F4805313606A
:101AB000026813680B43136001680A6842F0010270
:101AC0000A60202180F84110002180F8401008466B
:101AD00070470220704790F84120202A22D190F8C8
:101AE0004020012A1ED0012280F84020242280F8C4
:101AF00041200268136823F0010313600268136831
:101B000023F4706343EA0121116001680A6842F01E
:101B100001020A60202180F84110002180F8401065
:101B2000084670470220704770B5040004D094F84E
:101B30004100002510B106E0012070BD84F840503E
:101B4000204600F0FFF8242084F841002068016856
:101B500021F0010101606068216820F07060086177
:101B60002068816821F400418160E0680128A06854
:101B700007D040F4044021688860E068022803D060
:101B800006E040F40040F6E721684FF4006048604A
:101B900020684168114A114341602068C16821F4FE
:101BA0000041C160D4E904010843A16940EA012071
:101BB0002168C860D4E907010843216808602068EB
:101BC000016841F0010101606564202084F8410052
:101BD000256384F84250002070BD000000800002A0
:101BE0002DE9FF4F83B00446DDE9108790F84100EE
:101BF000DDF848909A469346202874D15FEA0800A1
:101C000014D09FB194F8400001286CD0012084F8D2
:101C10004000FFF72FFF0546012200901923D10352
:101C2000204601F043F9002871D103E04FF4007021
:101C300060646CE0222084F84100402084F8420077
:101C400000266664C4F8248067856663CDE9009544
:101C500053465A462046049901F0E0F810B184F842
:101C6000406054E0618D3548FF274FF080784FF099
:101C7000007AFF2904D927853A464346009005E0BB
:101C8000618D2185009094F82820534620460499C0
:101C900001F0F6F84B46002204212046009501F0A1
:101CA00005F9A0BB2068406A616A0870606A401C40
:101CB0006062208D401E80B22085618D491E618545
:101CC000618DD9B1D0B94B460022802120460095C4
:101CD00001F0ECF8D8B9608DFF2805D927853A4680
:101CE0004346009606E026E0608D2085009694F835
:101CF000282053462046049901F0C2F8608D002840
:101D0000C8D12A464946204601F0FCF818B1012006
:101D100007B0BDE8F08F20682021C16120684268CB
:101D2000074B1A40426084F8411084F8426084F8FE
:101D300040600020ECE70220EAE700000024008079
:101D400000E800FE2DE9F04186B004461421684603
:101D5000FEF77EFA1949206888422BD1184C606939
:101D600040F400306061606900F400300590606903
:101D700040F4802060616069122500F480200590A5
:101D8000C813012603274FF004088DE8E1016946D6
:101D9000A806FFF7A9FD80208DE8E1016946094802
:101DA000FFF7A2FDE06940F40010E061E06900F493
:101DB0000010059006B0BDE8F0810000005400401E
:101DC0000010024000040048024881680278114473
:101DD0008160704734000020074810B5016841F069
:101DE00010010160032000F06FF8002000F006F8F9
:101DF00000F024F8002010BD0020024070B50D4D09
:101E000004464FF47A712878B1FBF0F00A4909686A
:101E1000B1FBF0F000F047FD48B9102C07D20022CA
:101E20002146501E00F030F800206C6070BD01208B
:101E300070BD000034000020300000200A4882B04D
:101E4000816941F001018161816901F00101009125
:101E5000C16941F08051C161C06900F080500090BB
:101E6000072002B000F030B800100240002809DB63
:101E700000F01F02012191404009800000F1E020A4
:101E8000C0F8001170470000F0B40E4B1B68C3F39C
:101E90000223C3F10704042C00D904241D1D072DBF
:101EA00001D2002300E0DB1E012606FA04F56D1EB8
:101EB0000D409D409E40761E164045EA0601F0BC4E
:101EC00001F0F0BB0CED00E0064A00F007011068DD
:101ED0004FF6FF03184040EA012003490843106011
:101EE000704700000CED00E00000FA052DE9F84F06
:101EF00004460068774DC0037ED5E8690026C0001F
:101F000008D4E86940F08050E861E869012600F0F3
:101F10008050009070480168C90511D4016880465E
:101F200041F480710160FFF7A5FD074604E0FFF76B
:101F3000A1FDC01B642835D8D8F80000C005F6D52F
:101F4000286A10F4407052D0A18801F44071814297
:101F50004DD0286A4FF4803797FAA7F1B1FA81F192
:101F60008B005E494FF001080B4420F44070C3F829
:101F7000008497FAA7F3B3FA83F301EB83010022FD
:101F8000C1F800242862C00731D0FFF773FD07466F
:101F900041F2883A4FF0020907E0FFF76BFDC11BE1
:101FA000514502D90320BDE8F88F99FAA9F0B0FA9B
:101FB00080F040F040004946B8EB501F01D128683E
:101FC0000BE091FAA1F0B0FA80F040F04000B1EBE4
:101FD000501F01D1286A00E0686A99FAA9F1B1FAA4
:101FE00081F101F01F0108FA01F21042D5D0286AF0
:101FF000616820F4407000E006E0084328621EB1EA
:10200000E86920F08050E8612078C00705D0286B8F
:10201000A16820F00300084328632078800605D5D6
:10202000286BE16820F010000843286320688003D3
:1020300005D56868216B20F480000843686020782B
:10204000400605D5286B216920F02000084328634D
:102050002088000405D5286B616920F04000084302
:1020600028632088800505D56868E16920F40000B0
:10207000084368602078000605D5E86AA16920F465
:10208000F8700843E8622088C00405D5286B216AEF
:1020900020F48070084328632068400305D5286B2E
:1020A000616A20F48060084328632068000305D536
:1020B000286BA16A20F40060084328632068C002EE
:1020C00005D5286BE16A20F40050084328630020FE
:1020D00069E700000010024000700040000042422A
:1020E0002DE9F0470D4604006DD0DFF83081D8F8B7
:1020F000000000F00700A8420CD2D8F8001021F030
:1021000007012943C8F80010D8F8000000F00700C4
:10211000A84258D12078424E800705D57068A16842
:1021200020F0F000084370602078C0073AD0606863
:10213000012201280CD0022822D0022393FAA3F115
:10214000B1FA81F141F02001490904D0316803E07E
:102150004FF40033F2E7716A93FAA3F3B3FA83F30F
:1021600003F01F039A4011422DD0716821F0030142
:1021700001437160FFF77EFC074641F288390AE0AF
:102180004FF00073DAE7FFF775FCC11B494502D930
:102190000320BDE8F0877068616800F00C00B0EBC8
:1021A000810FF0D1D8F80010404601F00701A94294
:1021B0000BD9016821F0070129430160006800F094
:1021C0000700A84201D00120E3E72078400705D5A9
:1021D0007068E16820F4E0600843706020780007D0
:1021E00006D57068216920F4605040EAC100706033
:1021F00000F04EF87168F02292FAA2F201F0F001BC
:10220000B2FA82F2D140074A515CC84006490860E0
:1022100006480068FFF7F2FD0020BAE70020024000
:10222000001002409A5100083000002038000020C1
:1022300008480949006849684FF4E06292FAA2F23E
:1022400001F4E061B2FA82F2D140044A515CC84024
:10225000704700003000002000100240AA51000822
:1022600008480949006849684FF4605292FAA2F29E
:1022700001F46051B2FA82F2D140044A515CC84084
:10228000704700003000002000100240AA510008F2
:10229000164B10B55968164801F00C02042A20D0DC
:1022A000082A1ED14FF4701494FAA4F401F47012A9
:1022B000B4FA84F4E2400F4CA45CDA6A0F2393FA78
:1022C000A3F302F00F02B3FA83F3DA40094B1033A1
:1022D000C9039A5C06D500231946FDF771FFA0FBE0
:1022E000040110BD0448A4FB000110BD0010024011
:1022F00000127A00B251000800093D002DE9F84FA4
:10230000040071D02078F94EC0074FF0010526D0A7
:1023100070684FF40038C0F38100012807D070685E
:10232000C0F3810002281BD17068C00318D598FA49
:10233000A8F0B0FA80F040F02000400901D03068E9
:1023400000E0706A98FAA8F1B1FA81F101F01F017A
:1023500005FA01F1084262D060680028D1D05EE041
:102360006068B0F5803F0BD010B1B0F5A02F17D04A
:10237000306820F480303060306820F4802002E043
:10238000306840F480303060F06AA16820F00F00BF
:102390000843F062606818B3FFF76CFB074609E07A
:1023A000306840F480203060EAE7FFF763FBC01B31
:1023B000642870D898FAA8F0B0FA80F040F02000B5
:1023C000400901D0306800E0706A98FAA8F1B1FACB
:1023D00081F101F01F0105FA01F10842E5D01EE08C
:1023E000FFF748FB074605E0C5E0FFF743FBC01BCE
:1023F0006428DED898FAA8F0B0FA80F040F0200007
:10240000400901D0306800E0706A98FAA8F1B1FA8A
:1024100081F101F01F0105FA01F10842E5D12078B0
:10242000DFF8CC8280074FF0000B4FF0020759D540
:1024300070684FF0F80A10F00C0F07D07068C0F306
:10244000810002281BD17068C00318D497FAA7F046
:10245000B0FA80F040F02000400901D0306800E080
:10246000706A97FAA7F1B1FA81F101F01F0105FA3C
:1024700001F108422BD0206901287CD127E0206996
:1024800088B395FAA5F0B0FA80F048F82050FFF72D
:10249000F1FA814606E053E1FFF7ECFAA0EB090000
:1024A000022886D897FAA7F0B0FA80F040F0200012
:1024B000400901D0306800E0706A97FAA7F1B1FADC
:1024C00081F101F01F0105FA01F10842E4D0306802
:1024D0009AFAAAF26169B2FA82F220F0F800914009
:1024E0000843306025E0FFE795FAA5F1B1FA81F1E4
:1024F00048F821B0FFF7BEFA814605E0FFF7BAFAC7
:10250000A0EB09000228CCD897FAA7F0B0FA80F027
:1025100040F02000400901D0306800E0706A97FA6E
:10252000A7F1B1FA81F101F01F0105FA01F10842AA
:10253000E4D1207800076AD5A069A0B395FAA5F088
:10254000B0FA80F008EB8000C0F88054FFF792FAF0
:10255000814605E0FFF78EFAA0EB09000228A0D81B
:1025600097FAA7F0B0FA80F040F06000B5EB501F8A
:1025700002D130680CE092E197FAA7F0B0FA80F04F
:1025800040F06000B7EB501F01D1306A00E0706A84
:1025900097FAA7F1B1FA81F101F01F0105FA01F2F2
:1025A0001042D7D033E0FFE795FAA5F1B1FA81F1F7
:1025B00008EB8101C1F880B4FFF75CFA814605E0C1
:1025C000FFF758FAA0EB090002289CD897FAA7F069
:1025D000B0FA80F040F06000B5EB501F01D13068D8
:1025E0000BE097FAA7F0B0FA80F040F06000B7EB8C
:1025F000501F01D1306A00E0706A97FAA7F1B1FA72
:1026000081F101F01F0105FA01F21042D8D12078C2
:10261000400772D5F0694FF0000AC00009D4F06994
:1026200040F08050F061F0694FF0010A00F08050F6
:10263000009030480168C90511D4016841F48071E7
:102640000160FFF717FA814605E0FFF713FAA0EBE8
:102650000900642874D827480068C005F5D5E068EB
:1026600001280AD008B1052811D0306A20F00100F5
:102670003062306A20F0040002E0306A40F001006D
:102680003062E068C0B3FFF7F5F981460CE0306ACC
:1026900040F004003062F0E7FFF7ECF9A0EB09012D
:1026A00041F2883081424BD897FAA7F0B0FA80F017
:1026B00040F04000B5EB501F01D130680BE097FAB5
:1026C000A7F0B0FA80F040F04000B7EB501F01D106
:1026D000306A00E0706A97FAA7F1B1FA81F101F06F
:1026E0001F0105FA01F21042D6D035E00010024079
:1026F000000042420070004000E034E0FFF7BAF909
:10270000814607E0FFF7B6F9A0EB090141F28830F6
:10271000814215D897FAA7F0B0FA80F040F0400057
:10272000B5EB501F01D130680CE097FAA7F0B0FA72
:1027300080F040F04000B7EB501F02D1306A01E05A
:1027400086E0706A97FAA7F1B1FA81F101F01F01F2
:1027500005FA01F21042D5D1BAF1000F03D0F069A9
:1027600020F08050F061E06998B37168C1F3810195
:10277000022970D002284FF080714FF0007A58463D
:102780000AD091FAA1F1B1FA81F148F82100FFF7DE
:1027900071F9044657465FE08B4691FAA1F1B1FA10
:1027A00081F1C14648F82100FFF764F9A8460746C1
:1027B000554604E0FFF75EF9C01B022848D895FA99
:1027C000A5F0B0FA80F040F02000400902D0306857
:1027D00001E066E0706A95FAA5F1B1FA81F101F0C5
:1027E0001F0208FA02F10842E4D1D4E908100843B4
:1027F000716821F47411084370609BFAABF0B0FA71
:1028000080F0474649F82080FFF734F9044604E099
:10281000FFF730F9001B02281AD895FAA5F0B0FA94
:1028200080F040F02000400901D0306800E0706A7C
:1028300095FAA5F1B1FA81F101F01F0107FA01F152
:102840000842E5D02DE0FFF715F9001B022803D957
:102850000320BDE8F88F15E097FAA7F0B0FA80F0F2
:1028600040F02000400901D0306800E0706A97FA1B
:10287000A7F1B1FA81F101F01F0105FA01F1084257
:10288000E1D10EE00128E4D07068226A00F48031C2
:10289000914204D1616A00F47010884201D0012095
:1028A000D7E70020D5E710B5401EB0F1807F01D3F7
:1028B000012010BD4FF0E02460610F21601700F08F
:1028C000F1FE0020A06107202061002010BD7047AC
:1028D000704700002DE9F04102680446D069116894
:1028E000936840F60F0528424FF0000505D1860693
:1028F0007BD58E0679D5216E88E003F0010601F4C0
:102900009077374371D0C70707D0CF0505D501278A
:102910001762E26F42F00102E267820708D5DA0728
:1029200006D0276802223A62E26F42F00402E267B0
:10293000420708D5DA0706D0236804221A62E26F3C
:1029400042F00202E26702070AD501F02002324398
:1029500006D0236808221A62E26F42F00802E2679A
:10296000020509D54A0107D523684FF400621A62AF
:10297000E26F42F02002E267E26F002A2ED080066A
:1029800005D5880603D5216E09B120468847E06F3A
:1029900021688968490602D410F0280F20D020460B
:1029A00000F0E4FC20688168490614D5816821F0B4
:1029B00040018160E06E70B11D494163E06EFEF739
:1029C0005CFF00280AD0E06E416B00E02046BDE8C5
:1029D000F041084709E02046FFF77AFFBDE8F081A3
:1029E0002046FFF775FFE567F8E7C60209D55B02E9
:1029F00007D54FF4801010622046BDE8F041FFF784
:102A000066BF030605D50B0603D5616E0029DDD12F
:102A1000E4E74006E2D54806E0D51168204621F0FB
:102A20004001116020216167656600F09FF9D5E7DC
:102A30005933000810B5040002D0606F10B107E0F0
:102A4000012010BD002084F87000204600F026F818
:102A5000242060672068016821F0010101602046A0
:102A600000F0EEFC0128ECD0606A10B1204600F0C6
:102A7000E3FB2068416821F490414160206881684F
:102A800021F02A0181602068016841F001010160A4
:102A90002046BDE8104000F033BC000010B586B001
:102AA000044614216846FDF7D3FB16492068884286
:102AB00026D11548816941F480418161816901F421
:102AC00080410591416941F40021416140696946B5
:102AD00000F400200590302000900220019000209A
:102AE000029003200390072004900848FEF7FCFEA4
:102AF000002211462520FFF7C7F92520FFF7B6F978
:102B000006B010BD00380140001002400008004827
:102B100030B5836F202B4BD1B1B1AAB190F8703092
:102B2000012B45D0012380F870304165A0F8582072
:102B3000A0F85A200022026681681B03FF249942F4
:102B400007D1016911B125E0012030BD40F2FF112C
:102B500026E07F25E1B1B1F1805F1ED0A0F85C20B6
:102B6000C2672221816701688C6844F001048C608F
:102B70008168994201D10169C1B10E49016680F8AD
:102B800070200068016841F490710160002030BD40
:102B9000016941B9A0F85C40E2E7016919B13F2140
:102BA000A0F85C10DCE7A0F85C50D9E70249E5E743
:102BB000022030BDE53300088B3300082DE9FF41CA
:102BC00080462C480090031F01AA2BA13148FDF735
:102BD0004BFB284E203EF06901283ED10121B01D5B
:102BE00000F0CAFA00220221B01DFEF7FFF9307092
:102BF000012106F1090000F0A9FA0022022106F1E4
:102C00000900FEF7F3F93070708802F0D5F810EE85
:102C1000100AFDF780FD04460D4606F1090002F09A
:102C20003FF90746B01D02F09FF810EE100AFDF7BD
:102C300072FD41EC100B174853EC102B16A13238E3
:102C40000097CDE9024500F001FD82B21149B28042
:102C500032233239404600F02FF8306A012801D182
:102C60000198B06115220B494046FFF751FFBDE8BE
:102C7000FF81000020000020667265713A256469BA
:102C80006D6D65643A25646E6F726D616C3A256492
:102C9000000000009201002054656D703A25303428
:102CA0002E326648756D3A253032644C6967687417
:102CB0003A2530382E3266002DE9F8430446406F3D
:102CC0001F4615460E4620284ED1CEB1C5B194F808
:102CD0007000012848D0012084F870004FF00008EF
:102CE000C4F87C8021206067FEF7C4FEA4F8505031
:102CF0008146A4F85250A068B0F5805F03D004E08C
:102D00000120BDE8F883206910B13546002610E0A7
:102D100000250EE08021204600F042FCB8B9C5B184
:102D200015F8010B21680885B4F85200401EA4F87C
:102D30005200B4F852004B464FF0000200970028B2
:102D4000E8D14FF04001204600F02AFC30B10320CA
:102D5000D7E736F8020BC0F30800E3E720206067EE
:102D600084F870800020CCE70220CAE77047016831
:102D70008A69D243920701D400228A62006881697D
:102D8000C943C90703D0816941F0010181617047DE
:102D90002DE9F0410446006816460D468069C0439F
:102DA000C00637D44FF00008202720688069C04350
:102DB000800616D5681CF8D0FEF75CFE801BA84282
:102DC00001D8002DF1D154F8440F40F0200044F810
:102DD0000409677084F8028084F800800120BDE84F
:102DE000F08121681020C8612068C7612046FFF784
:102DF000BEFF54F8440B4168074A11404160206807
:102E000040F0040044F82009677784F81E8084F8B5
:102E10001C80E3E70020E2E700E800FE2DE9F8432C
:102E200004461646DDE9089714489846DAB2009041
:102E30000023204600F024F83A464946204600F098
:102E400087F8B8B9F5B2B8F1010F08D02168300A97
:102E500088623A464946204600F07AF850B9206820
:102E600085624B46002240212046009700F01EF864
:102E7000002800D00120BDE8F88300000020008079
:102E8000F0B50068059C45684FF48066064FC1F3B5
:102E9000090106EA545641EA02413E431943B5434B
:102EA00021430D434560F0BDFF63FF032DE9F04171
:102EB0001D4617460E460446DDF8188008E0681CDB
:102EC00006D0FEF7D7FDA0EB0800A8420BD855B1FD
:102ED0002068806936EA000012D00020B842EED0A7
:102EE0000020BDE8F08154F8440F40F0200044F881
:102EF0000409202060700020A07020700120F0E7FD
:102F00000120EBE770B516460D4604460DE032464B
:102F100029462046FFF73CFF08B1012070BDFEF7AF
:102F2000A9FD801BA84207D835B120688069C0433D
:102F30008006ECD4002070BD54F8440F40F020000F
:102F400044F80409202060700020A0702070E4E79D
:102F500070B516460D4604460FE032462946204617
:102F6000FFF716FF08B1012070BD681C05D0FEF701
:102F700081FD801BA84207D835B120688069C04315
:102F80008007EAD4002070BD54F8440F40F02000C0
:102F900044F80409202060700020A0702070E2E74F
:102FA00030B587B018216846FDF752F915484FF043
:102FB000A041002401604FF44031C0E90114012513
:102FC0000461457680F82040C0E90A54C561C460B8
:102FD00080F830400821416104764463FEF7BCFA72
:102FE00000B1FEE7072000900394CDE9015404945A
:102FF000694604480594FEF711F8002800D0FEE762
:1030000007B030BD4400002070B586B0142168467A
:10301000FDF71EF92448416941F4002141614169ED
:1030200001F400210591416941F480014161416948
:1030300001F480010591416941F400314161416928
:1030400001F400310591416941F4802141614069F9
:10305000164E00F480204FF40055059000222946BA
:103060003046FEF701FD124800240095CDE9010429
:1030700069461048FEF738FC0C2000900220CDE98C
:1030800001040720CDE9034069464FF09040FEF768
:103090002BFC01200095CDE90104694630460394DC
:1030A000FEF722FC06B070BD00100240000400488C
:1030B0000000211000080048114810B50F490160B8
:1030C0001049416000210122C0E902120161416101
:1030D0008161C1610162FEF727FD00B1FEE70021B9
:1030E0000748FEF7CDFC00B1FEE700210448FEF7DB
:1030F000F2FC002800D0FEE710BD000000540040A4
:10310000940000200E0900200C4810B50A49016007
:103110004FF4E1314160002181600C22C160C0E9BF
:1031200004128161C16101624162FFF783FC0028E2
:1031300000D0FEE710BD000000380140E000002094
:103140000149886070470000240000200EB5024647
:1031500008484FF4FA73806809B1032100E00221A6
:103160000092CDE901130123E5228021FEF738FD0D
:103170000EBD0000240000200EB5024608484FF4A2
:10318000FA73806809B1032100E002210092CDE9C1
:1031900001130123E3228021FEF722FD0EBD000072
:1031A00024000020FEF710BE30B59DB028216846EF
:1031B000FDF74EF8142117A8FDF74AF834210AA8A4
:1031C000FDF746F802250120049000951020059097
:1031D00000244FF46010CDE9084007956846FFF7DA
:1031E0008DF800B1FEE70F20CDE917054FF48060A0
:1031F000CDE91940022117A81B94FEF771FF00B119
:10320000FEE721200A900C940D940AA8FEF76EFEAA
:10321000002800D0FEE71DB030BD00000548016861
:1032200041F47001016003494FF00060803908608B
:103230007047000088ED00E090F82410C90706D020
:1032400001684A68836A22F400321A434A6090F89F
:103250002410890706D501684A68C36A22F48032BF
:103260001A434A6090F82410490706D501684A6855
:10327000036B22F480221A434A6090F82410090755
:1032800006D501684A68436B22F400421A434A603B
:1032900090F82410C90606D501688A68836B22F469
:1032A00080521A438A6090F82410890606D5016876
:1032B0008A68C36B22F400521A438A6090F8241083
:1032C000490611D501684A68036C22F480121A433A
:1032D0004A60016CB1F5801F06D101684A68436CF1
:1032E00022F4C0021A434A6090F82410090606D559
:1032F00001684A68806C22F4002202434A607047E9
:10330000F8B500250446C567FEF7B4FB07462068FC
:1033100000686FF07E46000708D53B4600224FF458
:1033200000112046009600F03BF960B92068006863
:1033300040070AD53B4600224FF480012046009604
:1033400000F02EF908B10320F8BD20206067A067C7
:1033500084F870500020F8BD10B5406A0021A0F834
:103360005A10A0F85210FFF7B3FA10BD01680A68AE
:1033700022F490720A6001688A6822F001028A6071
:103380002021816700210166704710B5B0F85C20EC
:10339000836F0168222B04D0886940F0080088619F
:1033A00010BD898C436D11401980416D891C4165A8
:1033B000B0F85A10491EA0F85A10B0F85A10002957
:1033C000EED101680A6822F490720A6001688A6886
:1033D00022F001028A602021816700210166FFF747
:1033E000EDFB10BD10B5B0F85C20836F0168222B97
:1033F00004D0886940F00800886110BD898C1140B4
:10340000426D1170416D491C4165B0F85A10491E5A
:10341000A0F85A10B0F85A100029EED101680A68D5
:1034200022F490720A6001688A6822F001028A60C0
:103430002021816700210166FFF7C0FB10BD00005D
:1034400070B504460020A2682169E3690A436169F6
:10345000054619430A4321680B684A4E334013431B
:103460000B6021684A68E36822F440521A434A60BC
:10347000226AA1690A4321688B6823F430631343ED
:103480008B60414A2168914210D14049096B11F08B
:10349000030114D0012905D0022905D003290DD13B
:1034A00002210CE004210AE0082108E0384A914298
:1034B00002D0384A914201D1002100E01021E36995
:1034C0004FF400424FF6EF7693422DD109291DD2D9
:1034D000DFE801F00508121C151C1C1C1800FEF783
:1034E000A7FE01E0FEF7BCFE4100606801EB500161
:1034F000B1FBF0F080B20AE027496068F6E7FEF71A
:10350000C7FEF1E74FF480316068EFE70125A0F1D5
:103510001001B14230D84FF6F0710140C0F34200C3
:1035200001432068C16028E009291DD2DFE801F0CD
:103530000508121C151C1C1C1800FEF779FE01E082
:10354000FEF78EFE0146606801EB5001B1FBF0F022
:1035500080B20AE011496068F6E7FEF799FEF1E7EC
:10356000606802EB5001F1E70125A0F11001B142C2
:1035700002D82168C86000E001250020206660664E
:10358000284670BDF369FFEF00380140001002408B
:1035900000440040004800400024F40000127A007B
:1035A0002DE9F0471F4690460E4604464FF0000AAC
:1035B0004FF02009089D37E0681C35D0FEF75AFA15
:1035C000C01BA84221D805B32068016849072BD544
:1035D000C069C043000527D421684FF40060086229
:1035E0002068016821F4D07101602068816821F0B1
:1035F00001018160C4F87490C4F87890C4F87C909C
:1036000084F870A00320BDE8F0872068016821F4E9
:10361000D07101602068816821F001018160C4F8E7
:103620007490C4F87890EBE72068C06936EA00002F
:1036300004D000204045BFD00020E4E70120F9E796
:103640000148FFF747B90000E00000200FB4084B25
:1036500010B504A902AA039800F0EAFF044602A9E3
:10366000002001F07CFB204610BC5DF814FB00003C
:103670005F4D000803B401984100009850EAC12052
:1036800018BF04204A0D18BF40F0010040F2FF723D
:10369000B2EB515F08BF40F00200012808BF0520CF
:1036A00002B070470907090E002804DB00F1E02092
:1036B00080F80014704700F00F0000F1E02080F85F
:1036C000141D7047000000002DE9F04D2DED040B96
:1036D0002DED0C8B96B0DDE92350259CDDF888A0FC
:1036E00025F0004624F00048BAF1000F14BF012174
:1036F000002101EB4502FE4953184A1093422AD398
:10370000002814BF0123002303EB44030B44F949B1
:103710008B4220D358EA00019FEDF78B6FD0DFF882
:10372000E0B35D4503D1BAF1000F05D187E0BAF1EE
:10373000000F08BF002100D0012101EB450111F568
:10374000001F08D8002814BF0121002101EB44010B
:1037500011F5001F0BD99DED241B9DED220B16B01A
:10376000BDEC0C8B04B0BDE8F04D00F05DBE002751
:10377000002DBCBFE349884521DAE3498845A8BF4D
:1037800002271CDAC3451ADCE04901EB2851142951
:1037900008DDC1F1340220FA02F101FA02F282429C
:1037A0000DD108E058B9C1F1140228FA02F101FA6A
:1037B00002F2424503D101F00101C1F1020756EACC
:1037C0000A011DD1002C1BDA002D18BF022F01D0D9
:1037D000012F0AD0022000F073FE16B0BDEC0C8B56
:1037E00004B0BDE8F04D00F007BE022000F068FE16
:1037F00000F002FE51EC100B81F0004183E01EE06E
:103800009FEDC39B9FEDC4AB002872D1BD4880459E
:103810002DD105F1804010F5801008BFBAF1000FDE
:103820000DD0B34515DC002CA1BF9DED240B16B0C7
:10383000BDEC0C8B04B0A8BFBDE8F08D12E0B0EE7B
:10384000480AF0EE680A16B0BDEC0C8B04B0BDE877
:10385000F08D002C06DA9DED240B51EC100B81F05D
:10386000004150E0AE48784490ED000BEBE7D845BE
:103870004FD1002C4ADA2EB186423BD1BAF1000F6B
:1038800044D126E0BAF1000F13D0022000F018FE58
:1038900000F0E6FD8DED020B9DED220B8DED000B92
:1038A00010EE900A039961F31E0003909DED020B48
:1038B000C9E78DED029B9DED220B19EE901A10EEDB
:1038C000900A8DED000B61F31E0003909DED020B3D
:1038D000B9E78DED02AB9DED220B1AEE901A10EEBA
:1038E000900A8DED000B61F31E0003909DED020B1D
:1038F000A9E729E00ADA9DED220B51EC180B53ECF5
:10390000102BFCF78CFE41EC100B9CE79DED220B7D
:1039100099E7864218DAB4F1804F0DD0A4F1005037
:10392000B0F1FF5010D1002D0EDB9DED220B51ECBC
:10393000100B01F07BFBE6E79DED220B53EC102B07
:1039400051EC100B00F0AEBC9DED220B51EC100BB6
:1039500001F0B6FABAF1000FCDE90C0134D19FEDB8
:10396000720BDEB1A6F1E040B0F17F602CD1002DEA
:1039700001DD002C0DDA002D01DD002C1FDB002DF8
:1039800016DA002C14DB012F08BF9FED690B3FF402
:103990005AAFB0EE490AF0EE690A54E7022F18BF99
:1039A000002D0CD0012F0AD1002DFFF64CAF06E000
:1039B000002DB8BF002C07DA012F3FF444AFB0EE62
:1039C0004A0AF0EE6A0A3EE7012000EBE57A5AEA7D
:1039D00007000CD05848002580457CDD57495848E1
:1039E000884514DDB0420DDB002C19DB2BE00120F3
:1039F00000F066FD16B0BDEC0C8B04B0BDE8F04DD8
:103A000000F01EBDB34502DC002C09DC1BE0864241
:103A100002DA002C17DA03E05E4527DD002C12DD08
:103A2000022000F04DFD00F01BFD10EE901A19EE83
:103A3000900A8DED020B8DED009B61F31E0003904B
:103A40009DED020BFFE6022000F03AFD00F018FDAC
:103A500010EE901A18EE900A8DED020B8DED008B92
:103A600061F31E0003909DED020BECE69DED220B31
:103A700053EC182B51EC100BFCF759FD9FED320B5A
:103A8000CDE90A0153EC102B9DED0A0B51EC100B04
:103A9000FCF753FD9FED2E1B53EC112BFCF74AFD59
:103AA0009DED0A1B53EC112BFCF747FD9FED2A1BE4
:103AB00053EC112BFCF73EFD9DED0A0B41EC190B6D
:103AC00053EC102B51EC100BFCF737FD53EC192B7A
:103AD000FCF733FD00E07EE09FED210B41EC1A0B7B
:103AE00053EC102B9DED0A0B51EC100B3CE0000049
:103AF000FFFF1F00FFFF0F00000000000000F03F6D
:103B00000000F03F0000F07F0000404301FCFFFF99
:103B1000000000000000F07F000000000000000036
:103B2000F619000000000000000000000000008006
:103B3000000000000000F0FF0000E0410000F04342
:103B4000FFFFEF3F00000000000000000000D03F3A
:103B5000555555555555D53F000000000000E03F34
:103B6000000000604715F73FFCF7E7FC41EC190B3C
:103B70009FEDFD0B51EC1A0B53EC102BFCF7DDFC09
:103B800041EC1A0B9FEDFA0B53EC102B9DED0A0B39
:103B900051EC100BFCF7D1FC53EC1A2BFCF7C7FCD3
:103BA00041EC1A0B51EC190B53EC1A2BFCF71EFCD1
:103BB0000690CDE906519DED060B53EC192B51EC07
:103BC000100BFCF7B4FC53EC1A2BFCF7B3FC41ECE4
:103BD000100B00F09FB90020B6F5801F0EDA9FEDA4
:103BE000E60B53EC102B9DED0C0B51EC100BFCF77E
:103BF000A4FCCDE90C016FF034000E4600EB26501A
:103C0000A0F2FF38C6F31300DD4940F07F6646F0AE
:103C100040568842D8BF002409DDDA498142C8BF36
:103C2000012404DC0024A6F5801608F10108D6481A
:103C3000784400EBC4000D9690ED00BB9DED0C0B9D
:103C400053EC1B2B51EC100BFCF771FC9DED0C0B96
:103C500041EC1A0B53EC1B2B51EC100BFCF7C6FB81
:103C600041EC100B51EC180B53EC102BFCF7D7FC6C
:103C700041EC1C0B51EC1A0B53EC1C2BFCF75DFCBC
:103C800041EC190BC1488DED109B7844109590EDD7
:103C9000000B4FF0005040EA660000EB84408DEDD1
:103CA0000A0B00F500200B909DED0A0B53EC1B2B2B
:103CB00051EC100BFCF73BFC9DED0C1B53EC112B56
:103CC000FCF738FC41EC100B53EC102B9DED100B66
:103CD00051EC100BFCF731FC9DED0A0B41EC1B0B7A
:103CE00053EC102B9DED100B51EC100BFCF725FC49
:103CF00053EC1A2BFCF71EFC53EC1B2BFCF717FCA8
:103D000053EC1C2BFCF719FC41EC1B0B53EC192B4F
:103D100051EC190BFCF711FC41EC1A0B9C480621E5
:103D2000B0EE4A0AF0EE6A0A784400F0E9FAB0EE22
:103D300040CAF0EE60CA53EC1A2B51EC1A0BFCF798
:103D4000FCFB53EC1C2BFCF7F8FB9DED100B41EC3E
:103D50001A0B53EC192B51EC100BFCF747FB53ECEF
:103D60001B2BFCF7EAFB53EC1A2BFCF73FFB9DEDFA
:103D7000100B41EC1A0B53EC102B51EC100BFCF711
:103D8000DCFB41EC1C0B9FED84DB53EC1D2BFCF7A3
:103D90002DFB53EC1A2BFCF729FB0A90CDE90A51B5
:103DA0009DED0A0B53EC1D2B51EC100BFCF7BFFBE8
:103DB00053EC1C2BFCF7BBFB53EC1A2BFCF7BAFBA8
:103DC0009DED0A0B41EC1C0B53EC102B9DED100BE1
:103DD00051EC100BFCF7B1FB41EC1A0B53EC192B17
:103DE00051EC1C0BFCF7A9FB9DED0A0B41EC190BE8
:103DF00053EC102B51EC1B0BFCF79FFB53EC192BD6
:103E0000FCF7F4FA41EC190B51EC1A0B53EC192B9B
:103E1000FCF7ECFA1090CDE910519DED100B53EC2E
:103E20001A2B51EC100BFCF782FB53EC192BFCF70F
:103E300081FB41EC190B9FED5A0B53EC102B9DEDC0
:103E4000100B51EC100BFCF778FB41EC1A0B9FEDBB
:103E5000560B51EC190B53EC102BFCF76EFB41EC9D
:103E6000190B9FED530B53EC102B9DED100B51ECE8
:103E7000100BFCF762FB53EC192BFCF7B7FA41EC83
:103E8000100B4D48784400EBC40090ED001B51EC42
:103E9000100B53EC112BFCF7A9FA41EC190B40461F
:103EA000FCF78DFDCDE90A0153EC192B51EC1A0BEF
:103EB000FCF79CFA41EC100B4048784400EBC4003E
:103EC00090ED00BB51EC100B53EC1B2BFCF78EFA62
:103ED0009DED0A1B53EC112BFCF788FA0690CDE9F7
:103EE00006519DED0A0B53EC102B9DED060B51EC8A
:103EF000100BFCF71CFB53EC1B2BFCF718FB53ECD3
:103F00001A2BFCF714FB53EC192BFCF713FB41ECB9
:103F1000100B00BF781EB0EE48AAF0EE68AA5AEA6D
:103F2000000008BF9FED268B9DED241B53EC102B4A
:103F30008DED001B00959DED240B51EC100BFCF753
:103F4000FCFA9DED000B41EC190B53EC102B9DED91
:103F5000240B51EC100BFCF7EAFA9DED061B53EC19
:103F6000112BFCF7EAFA2FE0FE822B654715F73F8D
:103F700044DF5DF80BAE543E0000000000004043FB
:103F80008E9803007AB60B00A4150000D21500002D
:103F9000DC140000000000000000000000000840E9
:103FA000000000E009C7EE3FFD033ADC09C7EE3F21
:103FB000F5015B14E02F3EBE701300002A130000D1
:103FC000000000000000F0BF53EC192BFCF70EFAC4
:103FD0009DED060B41EC190B53EC102B9DED000BE6
:103FE00051EC100BFCF7A9FACDE910019DED100B77
:103FF00051EC190B53EC102BFCF7F8F9CDE9020149
:104000000C46AB498C422FDB611A084318D19DED59
:10401000100B53EC102B9DED020B51EC100BFCF729
:1040200086FA41EC1B0B9FEDA40B51EC190B53ECE2
:10403000102BFCF7DBF953EC1B2BFCF7E9FC2DD222
:10404000022000F03DFA00F00BFA10EE901A18EE84
:10405000900A8DED020B8DED008B61F31E00039035
:104060009DED020BFFF7EFBB954A24F00041914212
:1040700014D39449214408437FF4E5AC9DED100B23
:1040800053EC102B9DED020B51EC100BFCF74FFA8B
:1040900053EC192BFCF7BCFC7FF6D5AC24F00040A8
:1040A00089498A4A002601EB205182422BDA481CBA
:1040B0004FF4801121FA00F02044854AC0F30A51E0
:1040C0007A44A1F2FF3192ED000B824A8DED0A0B8A
:1040D000CA4020EA0202C0F3130040F48010C1F18C
:1040E000140120FA01F60B92002CB8BF76429DED28
:1040F0000A0B53EC102B9DED100B51EC100BFCF741
:1041000016FACDE910019DED100B51EC190B53EC93
:10411000102BFCF76BF99FED700B0A90CDE90A515B
:1041200053EC102B9DED0A0B51EC100BFCF705FA2C
:1041300041EC1B0B9FED6A0B53EC102B9DED0A0B12
:1041400051EC100BFCF7F9F99DED100B41EC1C0B39
:1041500053EC102B9DED0A0B51EC100BFCF7E7F91B
:1041600053EC192BFCF7E6F99FED5F1B53EC112B79
:10417000FCF7E3F953EC1C2BFCF738F941EC190B75
:1041800051EC1B0B53EC192BFCF730F9CDE9020174
:104190009DED020B53EC1B2B51EC100BFCF7C7F9F8
:1041A00053EC192BFCF7C6F99DED020B41EC190BF2
:1041B00053EC102B51EC100BFCF7BFF9CDE90A01C1
:1041C0004B489DED0A0B0521784400F099F89DEDD0
:1041D0000A1B51EC100B53EC112BFCF7AEF99DEDC3
:1041E000021B53EC112BFCF7A5F9CDE906019DED5F
:1041F000020B53EC192B51EC100BFCF79EF953EC0E
:10420000192BFCF7F3F89FED3C0B41EC190B53EC29
:10421000102B9DED060B51EC100BFCF788F99DED72
:10422000060B41EC1B0B53EC102B9DED020B51ECDC
:10423000100BFCF782F953EC1B2BFCF7F0F953EC55
:10424000192BFCF774F99DED021B53EC112BFCF7B5
:104250006EF953EC1A2BFCF76DF9CDE9020101EB75
:10426000065001150029C8BF039015DC9DED020B17
:10427000324651EC100BFCF78BFBFFF7FBF90428DF
:1042800008BF00F0FDF832469DED020B51EC100B1B
:10429000FCF77EFBCDE902019DED020B51EC180B02
:1042A00053EC102BFCF749F9FFF72DBB0000000081
:1042B0000000904000000000FE822B654715973CEF
:1042C00000CC904000346F3F01FCFFFF0000E03F56
:1042D0009C110000FFFF0F0000000000432EE63F8E
:1042E000396CA80C615C20BEEF39FAFE422EE63F25
:1042F0006C10000000000000000000000000004002
:1043000070B504462DED028B4D1E00EBC500B0EEDE
:10431000408AF0EE608A90ED000B35F0060017D071
:1043200053EC182B51EC100BFCF707F941EC100B78
:104330006D1E04EBC50090ED001B51EC100B53EC0F
:10434000112BFCF753F841EC100B35F00600E7D1C8
:10435000022D36D0042D1CD0062D1CBFBDEC028BC7
:1043600070BD53EC182B51EC100BFCF7E6F894EDF4
:104370000A1B53EC112BFCF739F853EC182BFCF704
:10438000DCF894ED081B53EC112BFCF72FF841ECF3
:10439000100B53EC182B51EC100BFCF7CEF894EDEE
:1043A000061B53EC112BFCF721F853EC182BFCF7F0
:1043B000C4F894ED040B53EC102BFCF717F841EC08
:1043C000100B53EC182B51EC100BFCF7B6F894EDD6
:1043D000021B53EC112BFCF709F853EC182BFCF7DC
:1043E000ACF894ED001B53EC112BFBF7FFFFBDEC79
:1043F000028B41EC100B70BD9FED070B10B553EC19
:10440000102B9FED070B51EC100BFCF708F941EC5A
:10441000100B10BD000000000000000000000000B4
:10442000000000000000F03F10B553EC112B51ECE0
:10443000100BFBF7DBFF41EC100B10BD0000000080
:104440009FED050B10B553EC102B51EC100BFCF746
:10445000E6F841EC100B10BD000000000000000069
:104460009FED050B10B553EC102B51EC100BFCF726
:1044700064F841EC100B10BD00000000000000705B
:104480009FED050B10B553EC102B51EC100BFCF706
:1044900054F841EC100B10BD0000000000000010AB
:1044A00002E008C8121F08C1002AFAD170477047FD
:1044B000002001E001C1121F002AFBD1704700005B
:1044C0000149086070470000400000202DE9FF5FAF
:1044D000DDE90220010DDDF838B0024318D044F6C2
:1044E0001050A1F2FF3141430D140F98012820D044
:1044F000A5EB0B00401C5FEA000A4FF00004474E9A
:10450000DFF81C91A046504616D5CAF1000728E0F6
:104510000F98012443A2012808D0002100980F9B86
:10452000C0E90021C0E90243BDE8FF9F6FEA0B012B
:10453000F4E7CBF10000DEE7074612E0F80707D00A
:104540002246334640464946FBF7F7FF80468946F8
:104550002246334610461946FBF7EFFF04460E4647
:104560007F10002FEAD1DDE90201BAF1000F4246C7
:104570004B4602DAFBF7E1FF01E0FCF750F8044696
:104580000E460022284BFCF743FA03D84FF0FF30C9
:10459000014607E00022254B20463146FBF726FF67
:1045A000FCF71EFA102409E0002C0ADB0A22002383
:1045B000FBF706FE019B30321A55641E50EA0102D9
:1045C000F2D1641C019AC4F1110314440F9A012A18
:1045D00003D0012208430DD10AE0084304D0002093
:1045E0004FF0110B0F9080E7A3EB0B056D1E0DE054
:1045F0005B4504DD4FF0000205F1010504E003DA3C
:104600004FF00002A5F10105002AECD000980F99A7
:10461000C0E90231C0E9004586E7000000002440FF
:104620000000F03F300000000000F0430000E03FD9
:104630002DE9FF4F95B09B468946064600250FE2BF
:10464000252877D100242746F84A0121059400E067
:10465000044316F8013F203B01FA03F01042F7D162
:1046600030782A2811D06FF02F033078A0F1300273
:10467000092A16D8059A44F0020402EB820203EBE1
:1046800042021044761C0590EFE759F8042B05927E
:10469000002A03DA504244F40054059044F0020426
:1046A000761C30782E2816D116F8010F44F0040439
:1046B0002A280DD06FF02F023078A0F13003092B9B
:1046C00009D807EB870302EB4303C718761CF3E70F
:1046D00059F8047B761C30786C280FD006DC4C2807
:1046E00017D068280DD06A2814D104E0742810D09F
:1046F0007A280FD10DE044F400140AE044F4801449
:1047000001E044F440147278824202D104F580142E
:10471000761C761C307866280BD013DC582877D0AE
:1047200009DC002875D04528F6D04628F4D0472863
:104730001AD19DE118E0632835D0642879D0652826
:1047400012D195E1702873D008DC6728F1D0692870
:104750006FD06E280DD06F2806D1B5E073282CD00D
:10476000752875D0782874D05A46179990476D1CD3
:1047700075E1C4F30250022809D003280DD0D9F8FE
:10478000001004280DD00D6009F1040967E1D9F883
:104790000010EA17C1E90052F6E7D9F800100D80C1
:1047A000F2E70D70F0E719F8041B8DF800100020F7
:1047B0008DF80100EA46012003E059F804AB4FF000
:1047C000FF3061074FF0000102D40DE008F1010154
:1047D0008846B9420FDA8045F8DB1AF8081000293C
:1047E000F4D108E008F1010188468142FADB1AF8A9
:1047F00008100029F6D105985B46A0EB0807214672
:104800003846179A00F094FA284400EB080507E0B0
:104810004DE029E10DE01AF8010B5A46179990472F
:10482000B8F10108F7D25B4621463846179A13E1E2
:1048300042E00A220092C4F302524FF0000A022A18
:1048400008D059F804CB032A4FEAEC710AD00DE0E6
:1048500029E02AE009F1070121F00702F2E802C18C
:10486000914609E00FFA8CFC4FEAEC71042A03D15F
:104870004FFA8CFC4FEAEC71002907DA0A46002156
:10488000DCF1000C61EB02012D2202E0220504D5CF
:104890002B228DF80420012203E0E20701D0202220
:1048A000F7E7904659E00A2102E010220DE01021BE
:1048B0004FF0000A00910BE010224FF0000A44F084
:1048C00004040827009203E008224FF0000A009237
:1048D000C4F30252022A05D059F804CB0021032A5E
:1048E00008D009E009F1070121F00702F2E802C14E
:1048F000914605E01FFA8CFC042A01D10CF0FF0C54
:104900004FF00008220728D5702806D0009B83F0BE
:10491000100353EA0A0305D00EE040228DF804206C
:10492000012208E05CEA010206D030228DF8042062
:104930008DF8050002229046009B83F0080353EA9D
:104940000A030AD15CEA010201D1620705D53022CF
:104950008DF804204FF001087F1E582804D034A0A1
:1049600003900EA802900DE036A0F9E7534660468A
:10497000009AFBF725FC84460398825C0298401E4F
:10498000029002705CEA0100F0D1029806A9081AB0
:1049900000F1200A600702D524F4803400E00127EA
:1049A000574502DDA7EB0A0000E0002000EB0A01FA
:1049B000009005984144401A0590E00306D45B46F8
:1049C0002146179A059800F0B3F90544002706E040
:1049D00001A85A46C05D179990476D1C7F1C47453A
:1049E000F6DBE0030CD55B462146179A059800F0EC
:1049F0009FF9054404E030205A46179990476D1CF2
:104A00000099481E00900029F5DC08E00298029900
:104A10005A460078491C0291179990476D1CBAF1CB
:104A20000001AAF1010AF1DC65E10000092801009A
:104A30003031323334353637383961626364656614
:104A400000000000303132333435363738394142D6
:104A5000434445460000000000F058F90544761C28
:104A6000307800287FF4ECAD19B02846BDE8F08F0F
:104A7000620700D4062709F1070222F0070CFCE8C0
:104A80000223E14603F000485FEA080C02D00FF26F
:104A9000702C0DE05FEA045C02D50FF2682C07E091
:104AA0005FEAC47C02D00FF2602C01E0AFF2700C20
:104AB0004FF0FF3823F00043CDF850C065280CD0EC
:104AC00006DC452809D046281DD047283DD13DE0C9
:104AD000662818D067287ED138E00021112F01DB2D
:104AE000112000E0781CCDE9000106A90EA8FFF70F
:104AF000EDFCDDE90F010E9A03910021009207F110
:104B0000010A04914DE04FF000400097CDE90110FB
:104B100006A90EA8FFF7DAFCDDE90F0203920E9B4F
:104B200011990022DDF80CA00093049211B9791CB0
:104B300000EB010AB7EB0A0004D4C0F1FF3007F123
:104B4000010A0490AAEB0700019044E0012F00DA6B
:104B500001270021112F01DD112000E03846CDE9A9
:104B6000000106A90EA8FFF7B1FCDDE90F010E9ABE
:104B70000391002104910092BA4621070CD40399B5
:104B8000514500DA8A46BAF1010F05DD009AAAF113
:104B90000101515C302908D0B84202DA10F1040F4B
:104BA00006DA0121CDE9011015E0AAF10101E9E7DA
:104BB000002805DC049901440491AAEB000102E0FD
:104BC000411C514500DD8A460499401A401C019061
:104BD0004FF000400290200704D40198504501DBBB
:104BE000CDF8048000208DF84F0002980DF14F079A
:104BF000B0F1004F25D02B200E9002984FF0020804
:104C000000280CDA404202902D200E9007E00A2185
:104C10000298FBF7AFFD3031029007F8011DB8F1A3
:104C20000001A8F10108F2DC02980028EFD1791EFA
:104C30000E980870307800F0200040F0450007F82A
:104C4000020D12A8C01B00F107081498007800B1EB
:104C5000012000EB0A01019801EBE0710598414445
:104C6000401A401E0590E00306D45B462146179A81
:104C7000059800F05DF805441498007818B15A467C
:104C8000179990476D1CE00324D55B462146179A7F
:104C9000059800F04DF805441CE00498002807DB57
:104CA000DDE90301884203DD0098405C179901E0CB
:104CB000179930205A469047049805F10105401C89
:104CC00004900198401E019004D12E205A46179955
:104CD00090476D1CBAF10001AAF1010ADDDC05E084
:104CE00017F8010B5A46179990476D1CB8F100014F
:104CF000A8F10108F4DC5B462146179A0598ABE65B
:104D00002D0000002B000000200000002DE9F041E4
:104D1000044600251E461746880404D405E039469B
:104D20002020B0476D1C641EF9D52846BDE8F081EF
:104D30002DE9F041044600251E469046C80301D5E2
:104D4000302700E02027880404D505E04146384696
:104D5000B0476D1C641EF9D52846BDE8F0810A688D
:104D6000531C0B601070704710B5008840BAFBF7F9
:104D7000C5FC9FED0B1B53EC112BFBF7DEFB9FEDEE
:104D80000A1B53EC112BFBF7D8FB9FED091B53ECCF
:104D9000112BFBF7CCFBFBF7D1FC00EE100A10BD8A
:104DA000D7A3703D0A976540000000000000F03E68
:104DB000CDCCCCCCCC6C474070B500282DED048B0D
:104DC0004FD0FBF79BFC9FED289B53EC192BFBF777
:104DD000B4FB9FED271B53EC112BFBF720FCFBF7DB
:104DE000ADFC254D04462861FBF795FC41EC180B02
:104DF0002046FBF790FC53EC192BFBF79BFB9FED38
:104E00001F1B53EC112BFBF798FB53EC182BFBF7F4
:104E100006FCFBF793FCE860FBF77DFC41EC100B14
:104E20009FED181BFEF750FCB0EE408AF0EE608A52
:104E30009FED161B9FED170BFEF746FCB0EE401AD8
:104E4000F0EE601A53EC182B51EC110BFBF775FBCD
:104E5000FBF774FC00EE100A85ED050ABDEC048B2F
:104E600070BD9FED0E0AF9E76666666666660A40E3
:104E70000000000000FEAF40000000200000000025
:104E80000088C3401D386744696FF3BF9D11A5BDFD
:104E9000C1D71A40000000000000244000000000BC
:104EA000008840BA00EB4001C1EBC010FA2101EBD1
:104EB00010400249C0B20870704700002400002072
:104EC00082B0CDE9000121F0004001909DED000B82
:104ED00002B051EC100B70471FB5FCF77DFFFEF7D9
:104EE00063F9FEF791F8FEF75BF8FEF7E5F8FEF7D9
:104EF0000BF94448FEF724F942491522FE31A1F18D
:104F0000B200FDF705FE404E04204FF000084EF6BB
:104F10006029B06186F80180B16999FBF1F0FCF776
:104F2000D1FC38485038FCF72DFC70780028FDD0B3
:104F300035480121801DFEF71FF933480022022168
:104F4000801DFCF753F8304C3070A41D0AE02E4849
:104F5000801DFEF711F92C4800220221801DFCF76C
:104F600045F83070A078317888424FF00101EED1D9
:104F700025480930FEF7EAF82348002202210930CB
:104F8000FCF734F8204C307009340BE01E48012146
:104F90000930FEF7DBF81C48002202210930FCF73B
:104FA00025F83070A07831788842EFD17088FFF70B
:104FB00003FF10EE100AFBF7AEFB044612480D4645
:104FC0000930FFF76DFF07460F48801DFFF7CCFE45
:104FD00010EE100AFBF79FFB41EC100B094853EC55
:104FE000102B0AA1CC300097CDE90245FEF72EFB2D
:104FF000044982B2CC31B2803223A1F18000FDF7A6
:105000005BFE87E7940000200000002054656D706F
:105010003A2530342E326648756D3A253032644C6C
:10502000696768743A2530382E32660000B52DED78
:10503000048B83B041EC190BFBF7B0FE41EC180B6D
:1050400018EE100A18EE901A8DED008B002818BF8C
:105050000120084320F00040C0F17F6000F1E040F3
:10506000C00F14D019EE101A19EE900A8DED009BA6
:10507000002918BF0121084320F00040C0F17F60E3
:1050800000F1E040C00F04BF0120FFF719FA51EC16
:10509000180B03B0BDEC048B00BD00316253C4F5A6
:1050A000A697B988DBEA7D4C1F2E4372211087B684
:1050B000E5D4FACB98A93E0F5C6D86B7E4D5427370
:1050C00020113F0E5D6CFBCA99A8C5F4A79601306C
:1050D00063527C4D1E2FB889DAEB3D0C5F6EF9C828
:1050E0009BAA84B5E6D7407122137E4F1C2DBA8B44
:1050F000D8E9C7F6A59403326150BB8AD9E87F4E40
:105100001D2C02336051C6F7A495F8C99AAB3C0D2B
:105110005E6F4170231285B4E7D67A4B1829BE8F93
:10512000DCEDC3F2A1900736655439085B6AFDCC0B
:105130009FAE80B1E2D344752617FCCD9EAF3809EF
:105140005A6B4574271681B0E3D2BF8EDDEC7B4AE3
:10515000192806376455C2F3A0914776251483B207
:10516000E1D0FECF9CAD3A0B586904356657C0F1CB
:10517000A293BD8CDFEE79481B2AC1F0A3920534BF
:10518000675678491A2BBC8DDEEF82B3E0D14677A3
:1051900024153B0A5968FFCE9DAC000000000000BA
:1051A00000000102030406070809000000000102D4
:1051B000030402030405060708090A0B0C0D0E0F71
:1051C00010100102030405060708090A0B0C0D0E56
:1051D0000F10000000000000000000000000F03F81
:1051E000000000000000F83F000000000000000088
:1051F0000000004003B8E23F000000000000000093
:1052000006D0CF43EBFD4C3E033333333333E33F20
:10521000FFAB6FDBB66DDB3F4D268F515555D53F4C
:1052200001411DA96074D13F65DBC9934A86CD3F1A
:10523000EF4E454A287ECA3F3E5555555555C53F08
:1052400093BDBE166CC166BF2CDE25AF6A56113FFA
:10525000F16BD2C541BDBBBED0A4BE726937663EFC
:105260000000000000000000DDDDDDDDDCBBBBDD9B
:10527000DDDDDDDDDDDDDDDD9888888888888888F6
:105280007777777777888888855555566666666616
:1052900066666666666888888333333222222222F5
:1052A000222222222228888DC852000800000020D5
:1052B00044000000A04400080C53000844000020F3
:1052C00084050000B0440008000000000000000059
:1052D00000000000000000000000000000000000CE
:1052E00000000000000000000000000000000000BE
:1052F000000000000000000000127A000100000021
:0C53000010000000000000000000000091
:040000050800018965
:00000001FF
