:020000040800F2
:1000000020090020F5140008C1140008C3140008DA
:10001000C5140008C7140008C91400080000000037
:10002000000000000000000000000000CB140008E9
:10003000CD14000800000000CF140008D1140008FF
:100040006115000865150008691500086D150008A0
:100050007115000875150008791500087D15000850
:100060008115000885150008891500088D15000800
:100070009115000895150008991500089D150008B0
:10008000A1150008A5150008A9150008AD15000860
:10009000B1150008B5150008B9150008BD15000810
:1000A000C1150008C5150008C9150008CD150008C0
:1000B000D1150008D5150008D9150008DD15000870
:1000C000E1150008E5150008E9150008ED15000820
:1000D000F1150008F5150008F9150008FD150008D0
:1000E0000116000805160008091600080D1600087C
:1000F0001116000815160008191600081D1600082C
:100100002116000825160008291600082D160008DB
:100110003116000835160008391600083D1600088B
:100120004116000845160008491600084D1600083B
:1001300038B504000D002800451E002806D0200018
:1001400000F064F90128F6D1002001E05FF0FF30F3
:1001500032BD10B504002000C0B200F077F90020D5
:1001600010BD2DE9FC4104000D00160000202860A0
:1001700031006846FFF7DCFF002802D05FF0FF3057
:1001800053E09DF8000001280AD002280AD0042874
:100190000BD018280BD041281BD0612819D01AE0A9
:1001A00080271BE04FF4806718E000203DE031001D
:1001B0006846FFF7BDFF002808D19DF80000182809
:1001C00004D15FF0FF30286000202EE05FF0FF30A8
:1001D0002BE0012029E05FF0FF3026E09DF80000D1
:1001E00020705FF00108404680B2390089B2491D95
:1001F00088420DDA3100404680B22044FFF798FF74
:10020000002802D05FF0FF300FE018F10108EAE7A4
:100210006078A17891F0FF01884202D05FF0FF3052
:1002200003E0380080B228600020BDE8F6812DE9A7
:10023000F14FADF5866D00200090DFF8C401059008
:1002400000200390002600270020040000200190D9
:10025000DDF8300405005FF4801202A90AA8FFF758
:1002600080FF002803D0012800F0A280A9E0002030
:1002700006000298002807D0B0F1FF3F0AD10620FF
:10028000FFF767FF0020B5E00620FFF762FF0120BF
:1002900001908CE09DF8290004F0FF01884203D012
:1002A0001520FFF756FF82E0002C59D19DF82B0056
:1002B00000284DD000220DF12B010878002809D02C
:1002C000B2F5807F06DA0878DFF838319854491C97
:1002D000521CF2E70020DFF82C319854521C5FF0DA
:1002E000000911F1010898F8000020280CD0B9F19C
:1002F000100F09DA98F8000006A901F8090018F1B2
:10030000010819F10109EEE7002006A901F809002A
:1003100019F10109694606A800F0ECF80098DFF829
:10032000E810884208D31820FFF713FF1820FFF7C2
:1003300010FF5FF0FF305DE00099DFF8C40000F0CF
:1003400065F90620FFF705FF4320FFF702FF2BE0CA
:100350000620FFF7FEFE012001900120039026E019
:10036000DDF808A00DF12B0B52465946280000F08D
:1003700095F9DDF83004049002A80088042190FB70
:10038000F1F2049905A800F062F9002803D10620D3
:10039000FFF7DFFE08E01820FFF7DBFE1820FFF76D
:1003A000D8FE7FF0010025E0641C0120070018E062
:1003B0001820FFF7CEFE1820FFF7CBFE7FF00200DB
:1003C00018E0012F00DB761C062E07DB1820FFF754
:1003D000C0FE1820FFF7BDFE00200BE04320FFF712
:1003E000B8FE019800283FF436AF039800283FF488
:1003F0002BAF00980DF5806D0DB0BDE8F08F0000BB
:10040000004000080000002002C0070010B50400F2
:100410002021354800F01FFA002804D03348008816
:100420002070012000E0002010BD38B504000D0050
:100430002800451E002806D02000FFF7E7FF01280E
:10044000F6D1002001E05FF0FF3032BD10B50400AE
:100450002100C9B289B2244800F0F9F940212248AC
:1004600000F0F9F90028F9D010BD10B5040020788B
:1004700000280AD020780A2802D10D20FFF7E6FFD5
:100480002078FFF7E3FF641CF1E710BDF0B4020031
:10049000174D0024002000230A2B22D2B1FBF5F6D1
:1004A00030361655641CB1FBF5F605FB16110A260D
:1004B000B5FBF6F502EB040616F8016C302E01D1FF
:1004C000012600E00026002801D1012700E00027D6
:1004D000F6B23E4202D00026340000E0401C5B1C15
:1004E000DAE7F0BC704700000038014004380140F2
:1004F00000CA9A3B70B403000A00002600240025BD
:100500001878302847D15878782802D05878582859
:1005100041D19878002801D1002074E002210B29F4
:1005200034D2585C002803D11560012004002DE06E
:10053000585C412802DB585C47280BDB585C61287B
:1005400002DB585C672805DB585C30281CDB585CF4
:100550003A2819DA585C302805DB585C3A2802DA68
:10056000585C30380AE0585C412805DB585C472865
:1005700002DA585C373801E0585C57382E00050025
:1005800015EB0615491CCAE7002004000B2939D3D6
:100590000020040036E000210B292FD2585C0028EF
:1005A00003D115600120040028E0585C6B2802D0BC
:1005B000585C4B2806D1002904D0AD0215600120FB
:1005C00004001BE0585C6D2802D0585C4D2806D111
:1005D000002904D02D051560012004000EE0585CB0
:1005E000302809DB585C3A2806DA0A205E5C303E87
:1005F00000FB0565491CCFE7002004000B2901D34F
:1006000000200400200070BC70470000F8B5040012
:100610000D0000274FF4006095FBF0F0401C87426E
:1006200013D2F82F11D2352000F0AAF94FF4006050
:1006300000FB074000F032F906003000C0B2042889
:1006400001D0012002E07F1CE4E70020F2BDF8B5F4
:1006500004000D00160000200027B74219D22068C0
:100660000D49884215D255F82710206800F046F948
:1006700004280CD12068006855F82710884201D062
:10068000022007E02068001D20607F1CE5E70120B4
:1006900000E00020F2BD0000FCFF070862B38B07FA
:1006A00008D0521E11F8013B00F8013B00F02480F5
:1006B0008B07F6D1830740F0208000BF103A07D3A4
:1006C00030B4B1E83810103AA0E83810F9D230BC94
:1006D000530724BFB1E80810A0E8081044BF51F840
:1006E000043B40F8043BD20724BF31F8022B20F82A
:1006F000022B44BF0B7803707047121F17D35B00A7
:1007000009D151F8043B20F8023B1B0C121F20F8C2
:10071000023BF6D20BE051F8043B00F8013B1B0A08
:1007200020F8023B1B0C121F00F8013BF3D238BF2C
:10073000121D521E24BF11F8013B00F8013BF8D8EE
:10074000704700002DE9F84F86B082460C00002566
:10075000002600275FF000085FF00009A08900284C
:10076000D346BAF810104CF6FF700140E088014300
:1007700000910098AAF81000BAF80C104EF6F31089
:100780000140A288208902436089024311430091FD
:100790000098AAF80C00BAF814104FF6FF40014078
:1007A000A089014300910098AAF8140001A800F064
:1007B00025F91E48834501D1049900E00399BAF850
:1007C0000C00000407D5192000FB01F0226852003C
:1007D000B0FBF2F206E0192000FB01F02268920063
:1007E000B0FBF2F26420B2FBF0F52D012B001B09E7
:1007F000642000FB1323BAF80C00000408D5D800CD
:1008000032306426B0FBF6F010F00700054307E035
:10081000180132306426B0FBF6F010F00F000543EB
:10082000AAF8085007B0BDE8F08F0000003801407A
:100830000A00D2B2002A04D0828952F40052828186
:1008400004E083894DF6FF72134083817047CA0527
:10085000D20D8280704702000023080080B2B0F5FC
:10086000007F1088084201D0012000E00020C0B2C3
:1008700070470000DFF83C01DFF83C110860DFF84A
:100880003C01DFF8341108607047DFF8340100687C
:1008900050F08000DFF828110860704770B5040040
:1008A00004265FF4302000F091F805002800C0B263
:1008B000042820D1DFF80801006850F00200DFF8BA
:1008C00000110860DFF8FC000460DFF8F400006845
:1008D00050F04000DFF8E81008605FF4302000F0CE
:1008E00075F80500DFF8D800016841F6FD70014099
:1008F000DFF8CC0001602800C0B270BDF8B504007C
:100900000D000427002000904FF4005000F05EF826
:1009100006003000C0B204282FD1DFF8A400006820
:1009200050F00100DFF89810086025804FF4005067
:1009300000F04CF806003000C0B2042814D1A01C0E
:1009400000902800000C009908804FF4005000F03F
:100950003DF80600DFF86800016841F6FE700140CE
:10096000DFF85C00016008E0DFF85400016841F640
:10097000FE700140DFF8480001603000C0B2F2BDF7
:1009800011490860704704210F480068C00701D56D
:1009900001200CE00C480068400701D5022006E069
:1009A00009480068C00601D5032000E00420C0B259
:1009B000704700002301674504200240AB89EFCD5A
:1009C00010200240142002400C20024070B50400A8
:1009D0000425FFF7D8FF06003000C0B2012806D179
:1009E000002C04D0FFF7CFFF0600641EF4E7002CB4
:1009F00001D1052006003000C0B270BD2DE9F04FD6
:100A00000025002200210023414C246814F00C042E
:100A10002600002E04D0042E05D0082E06D026E095
:100A20003C4D056025E03B4D056022E0384D2D68CA
:100A300015F47015364E366816F480363100AD0C5C
:100A4000AD1C2A00002904D1334D05FB02F50560D9
:100A50000CE02F4D2D68AD0304D52F4D05FB02F59D
:100A6000056003E02B4D05FB02F5056001E0294D13
:100A70000560274D2D6815F0F0052D09274E765D90
:100A80000768F7404760224F3F6817F4E0673F0A66
:100A9000DFF888C01CF807C0D0F804E03EFA0CFE6E
:100AA000C0F808E0DFF868E0DEF800E01EF4605E01
:100AB0005FEADE2EDFF8648018F80E80D0F804902C
:100AC00039FA08F9C0F80C90DFF84490D9F8009092
:100AD00019F440495FEA9939DFF844A01AF809A0EF
:100AE000D0F80CB0BBFBFAFBC0F810B0BDE8F08F3B
:100AF0000A00D2B2002A05D00A4A12680243094B02
:100B00001A6004E0074A12688243064B1A60704775
:100B10000410024000127A0000093D00000100208C
:100B2000100100201810024080B573A0FFF79DFC53
:100B30007248FFF79AFC7248FFF797FC7148FFF77D
:100B400094FC7148FFF791FC7048FFF78EFC7048E9
:100B5000FFF78BFC68A0FFF788FC684600F0AEF852
:100B60009DF80000312806D01ED3332810D008D3BA
:100B7000342813D018E06748FFF777FC00F01AF824
:100B800017E06548FFF771FC6448FFF76EFC10E062
:100B90006348FFF76AFC00F051F80AE06148FFF78C
:100BA00064FC00F06AF804E05F48FFF75EFC00F0C8
:100BB00045F801BD3EB568465C490A22FFF76EFD67
:100BC00000245B48FFF751FCFFF754FE5948FFF73C
:100BD0002EFB0500FFF759FE012D16DB5648FFF7E7
:100BE00044FC5648FFF741FC29006846FFF74EFCDD
:100BF0005348FFF73AFC6846FFF737FC5148FFF7C8
:100C000034FC5148FFF731FC17E015F1010F03D117
:100C10004E48FFF72AFC10E015F1020F03D14C48B3
:100C2000FFF723FC09E015F1030F03D14948FFF753
:100C30001CFC02E04848FFF718FC37BD80B5474868
:100C4000016847480140B1F1005F12D14548FFF704
:100C50000CFC454800684549086044480068444920
:100C600008603E48006880F3088841480068804773
:100C700002E04048FFF7F9FB01BD80B55FF000607E
:100C8000016837480140B1F1005F13D13A48FFF7DE
:100C9000ECFB3A480068354908603448006834493C
:100CA00008605FF00060006880F3088830480068E2
:100CB000804702E03248FFF7D8FB01BD38B584B069
:100CC0000400042568462F491022FFF7F7FC28008E
:100CD000451E00280BD0684650F82500FFF7C5FBDD
:100CE00029492000FFF7A1FB0028F0D101E03020C6
:100CF000207005B030BD00000A000000E8100008B8
:100D000024110008601100089C110008D811000887
:100D1000141200083414000848140008D413000802
:100D20005C14000870140008D414000804150008AE
:100D300050120008140100205C1000080000002080
:100D40001C15000824150008281300088C12000840
:100D5000EC130008841400086C130008004000081D
:100D60000000FE2F041400080440000818050020AD
:100D700014050020981400081C1400080400000842
:100D8000AC140008E4140008E093040080B54E4859
:100D9000006850F001004C4908604C4801684C481C
:100DA00001404A480160484801684A4801404648B5
:100DB00001604548006830F480204349086043489A
:100DC000006830F4FE00414908605FF41F004249AA
:100DD000086000F005F85FF000604049086001BD60
:100DE00080B500F001F801BD82B000200190002024
:100DF00000903548006850F480303349086032482C
:100E0000006810F4003000900198401C0190009898
:100E1000002803D10198B0F5A06FF0D12A480068EE
:100E2000800302D50120009001E00020009000988E
:100E3000012847D12A48006850F01000284908606E
:100E40002748006880088000254908602448006819
:100E500050F00200224908601C4800681B490860E5
:100E60001A480068194908601848006850F4806002
:100E7000164908601548006830F47C101349086072
:100E80001248006850F4E810104908600E480068E5
:100E900050F080700C4908600B4800688001FBD559
:100EA0000A48006880088000084908600748006810
:100EB00050F00200054908600448006810F00C007A
:100EC0000828F9D102B07047001002400410024017
:100ED0000000FFF8FFFFF6FE0810024008ED00E0FA
:100EE00000200240F0B50022002300240025002647
:100EF000002791F803C01CF00F0C91F803E05FEAA3
:100F0000CE6E02D58A7852EA0C0C0A78120626D0E8
:100F10000268160000221400082C1FD20122A240F1
:100F200015000A882A401300AB4215D1A200150013
:100F30000F22AA401700BE431CFA05F21643CA78D6
:100F4000282A03D10122A240426105E0CA78482A3A
:100F500002D10122A2400261641CDDE706600A881A
:100F6000B2F5807F33DB4268160000221400082CA3
:100F70002CD25FF0010E14F108021EFA02FE754633
:100F80000A882A401300AB421ED1A20015000F228E
:100F9000AA401700BE431CFA05F21643CA78282A55
:100FA00007D15FF0010E14F108021EFA02FEC0F82C
:100FB00014E0CA78482A07D15FF0010E14F1080244
:100FC0001EFA02FEC0F810E0641CD0E74660F0BDD7
:100FD00080B500F003F8FFF7A7FDFCE700B585B08A
:100FE000012144F20500FFF783FD18208DF803006E
:100FF0004FF40070ADF8000003208DF80200694640
:101000001448FFF76FFF04208DF803004FF4806051
:10101000ADF8000069460F48FFF764FF5FF4E13068
:1010200001900020ADF808000020ADF80A00002073
:10103000ADF80C000020ADF810000C20ADF80E004B
:1010400001A90548FFF77EFB01210348FFF7F0FBEC
:1010500005B000BD000801400038014050726F67C4
:1010600072616D6D696E6720436F6D706C6574653C
:1010700064205375636365737366756C6C79210ABC
:101080002D2D2D2D2D2D2D2D2D2D2D2D2D2D2D2D90
:101090002D2D2D2D2D2D2D2D2D2D2D2D2D2D2D2D80
:1010A0000A4E616D653A200019E050F8042BD30711
:1010B00044BFA9F101039A18091F0023042942F82B
:1010C000043BF9D25FEA817C134604D54FF0000C53
:1010D000A2F800C09B1CC90744BF0021197050F83A
:1010E000041B0029E1D170473D3D3D3D3D3D3D3D67
:1010F0003D3D3D3D3D3D3D3D3D3D204D61696E20C9
:101100004D656E75203D3D3D3D3D3D3D3D3D3D3D8B
:101110003D3D3D3D3D3D3D3D3D3D3D3D3D3D3D3DFF
:101120003D3D0A002020446F776E6C6F616420495A
:101130006D61676520546F207468652053544D338A
:1011400032463130335645543620496E7465726EDE
:10115000616C20466C617368202D2D2D20310A00B2
:10116000202055706C6F616420496D616765204671
:10117000726F6D207468652053544D3332463130A0
:10118000335645543620496E7465726E616C204644
:101190006C617368202D2D2D20320A0020204578A7
:1011A000656375746520546865204E6577205072BC
:1011B0006F6772616D202D2D2D2D2D2D2D2D2D2D37
:1011C0002D2D2D2D2D2D2D2D2D2D2D2D2D2D2D2D4F
:1011D0002D2D2D2D20330A0020205265626F6F7453
:1011E0002074686520646576696365202D2D2D2D3A
:1011F0002D2D2D2D2D2D2D2D2D2D2D2D2D2D2D2D1F
:101200002D2D2D2D2D2D2D2D2D2D2D2D2D2D2D2D0E
:1012100020340A003D3D3D3D3D3D3D3D3D3D3D3D94
:101220003D3D3D3D3D3D3D3D3D3D3D3D3D3D3D3DEE
:101230003D3D3D3D3D3D3D3D3D3D3D3D3D3D3D3DDE
:101240003D3D3D3D3D3D3D3D3D3D3D3D3D3D0A003E
:1012500057616974696E6720666F722074686520D3
:1012600066696C6520746F2062652073656E7420FA
:101270002E2E2E202870726573732027612720740C
:101280006F2061626F7274290A0000005468652043
:10129000696D6167652073697A6520697320686983
:1012A00067686572207468616E2074686520616C7F
:1012B0006C6F776564207370616365206D656D6F19
:1012C0007279210A0000000030B501688468421874
:1012D000416802EB5103C9070BD54C4409E012F9F0
:1012E000011B12F8015B002904F8015B05D5491CBC
:1012F000F9D19A42F3D10C3030BD491EF1D5F8E74F
:1013000010B5074979441831064C7C44163404E082
:101310000A68081D114488470146A142F8D110BD52
:101320002C000000480000002D2D2D2D2D2D2D2DE1
:101330002D2D2D2D2D2D2D2D2D2D2D2D2D2D2D2DDD
:101340002D2D2D2D2D2D2D2D0A0000005DFDFFFFD3
:101350000804000014010020000000006DFFFFFFE2
:10136000F002000040000000000000204661696CAF
:10137000656420746F2072656365697665207468A2
:10138000652066696C65210A0000000000F00DF818
:10139000002801D0FFF7B4FFAFF300800020AFF3C7
:1013A0000080FFF715FE00F002F80120704700F002
:1013B00001B800000746384600F002F8FBE70000DD
:1013C00080B5AFF30080024A11001820ABBEFBE7E6
:1013D000260002004974206973206E6F74207375B3
:1013E00070706F727465642E0A0000005665726931
:1013F0006669636174696F6E206661696C656421FA
:101400000A00000045786563757465207573657220
:101410002050726F6772616D2E0A00005265626F14
:101420006F74204941502050726F6772616D2E0AAF
:101430000000000073657269616C20696E707574DC
:1014400020312E0A0000000073657269616C20690A
:101450006E70757420322E0A000000007365726988
:10146000616C20696E70757420332E0A00000000D4
:1014700073657269616C20696E70757420342E0A10
:101480000000000041626F7274656420627920750B
:101490007365722E0A0000004E6F2075736572200E
:1014A00050726F6772616D2E0A0000004572726F94
:1014B0007220746F207265626F6F742E0A000000D4
:1014C0007047FEE7FEE7FEE7FEE7704770477047AC
:1014D00070470000676F20746F2064656661756CEB
:1014E000742E0A002C150008301500083415000869
:1014F0003815000801488047014800478D0D000855
:10150000111500082020202020202020202000006D
:10151000AFF30080AFF30080FFF738FF0A53697A1A
:10152000653A20002042797465730A00302E2E003F
:10153000312E2E00322E2E00332E2E00FFF7C0BF8C
:10154000FFF7BFBFFFF7BEBFFFF7BDBFFFF7BCBFD1
:10155000FFF7BBBFFFF7BABFFFF7B9BFFFF7B8BFD1
:10156000FFF7FEBFFFF7FEBFFFF7FEBFFFF7FEBFAF
:10157000FFF7FEBFFFF7FEBFFFF7FEBFFFF7FEBF9F
:10158000FFF7FEBFFFF7FEBFFFF7FEBFFFF7FEBF8F
:10159000FFF7FEBFFFF7FEBFFFF7FEBFFFF7FEBF7F
:1015A000FFF7FEBFFFF7FEBFFFF7FEBFFFF7FEBF6F
:1015B000FFF7FEBFFFF7FEBFFFF7FEBFFFF7FEBF5F
:1015C000FFF7FEBFFFF7FEBFFFF7FEBFFFF7FEBF4F
:1015D000FFF7FEBFFFF7FEBFFFF7FEBFFFF7FEBF3F
:1015E000FFF7FEBFFFF7FEBFFFF7FEBFFFF7FEBF2F
:1015F000FFF7FEBFFFF7FEBFFFF7FEBFFFF7FEBF1F
:10160000FFF7FEBFFFF7FEBFFFF7FEBFFFF7FEBF0E
:10161000FFF7FEBFFFF7FEBFFFF7FEBFFFF7FEBFFE
:10162000FFF7FEBFFFF7FEBFFFF7FEBFFFF7FEBFEE
:10163000FFF7FEBFFFF7FEBFFFF7FEBFFFF7FEBFDE
:10164000FFF7FEBFFFF7FEBFFFF7FEBFFFF7FEBFCE
:10165000097570646174652E62696E810085000F82
:101660000102030401020304060708090204060834
:0400000508001511C9
:00000001FF
