:020000040800F2
:1000000050110020A1010008732000083F1F0008C4
:10001000712000081D0D0008BD2700080000000029
:100020000000000000000000000000005D2100084A
:100030001F0D00080000000095200008D7230008CD
:10004000BB010008BB010008BB010008BB010008A0
:10005000BB010008BB010008BB010008BB01000890
:10006000BB010008BB010008BB010008BB01000880
:10007000BB010008BB010008BB010008BB01000870
:10008000BB010008BB010008BB010008BB01000860
:10009000BB010008BB010008BB010008BB01000850
:1000A000BB010008BB010008BB010008BB01000840
:1000B000BB010008BB010008BB010008BB01000830
:1000C000BB010008BB010008BB010008BB01000820
:1000D000BB010008A5270008B1270008BB010008E4
:1000E000BB010008BB010008BB01000800F002F8DA
:1000F00000F047F80AA090E8000C82448344AAF17B
:100100000107DA4501D100F03CF8AFF2090EBAE878
:100110000F0013F0010F18BFFB1A43F0010318473B
:10012000642B0000842B0000103A24BF78C878C1EB
:10013000FAD8520724BF30C830C144BF04680C60ED
:10014000704700000023002400250026103A28BF35
:1001500078C1FBD8520728BF30C148BF0B60704739
:10016000732900F01481002070471FB59DE803003B
:1001700000F0A6FB00F070F91FBD10B500F0D5F936
:1001800010BD00F038FA1146FFF7EFFF02F00AFC4D
:1001900000F03CFB03B4FFF7F0FF03BC00F022FDCE
:1001A0000948804709480047FEE7FEE7FEE7FEE70B
:1001B000FEE7FEE7FEE7FEE7FEE7FEE70448054947
:1001C000054A064B704700004D240008ED0000086A
:1001D0005007002050110020500900205009002035
:1001E000B2F120030AD5C2F1200320FA02F001FA8D
:1001F00003F321FA02F140EA0300704721FA03F009
:100200004FF00001704700000FB4044910B503AA75
:10021000029800F0C1F810BC5DF814FB48060020FD
:100220002DE9F0410E460446002020622046E16898
:10023000884730B3252805D0D4E901219047206AAA
:10024000401CF2E7E168204600278847050018D0E7
:10025000A5F14100192802D820354FF40067324635
:10026000294620462760FFF77BFF40B1012804D0D4
:10027000F61D26F007060836D8E7361DD6E72846CD
:10028000DAE7206ABDE8F08170B50C460546012A20
:1002900005D02878800600D5EA69002302E0012312
:1002A00005E05B1C934202D2E05C0028F9D1A8690A
:1002B000E618C01AA861286A184428622846AFF3D5
:1002C000008004E0D5E9012114F8010B9047B44205
:1002D000F8D32846AFF3008070BD032A40F2308087
:1002E00010F0030C00F0158011F8013BBCF1020F77
:1002F000624498BF11F801CB00F8013B38BF11F8F8
:10030000013BA2F1040298BF00F801CB38BF00F80E
:10031000013B11F0030300F05180083AC0F008805F
:1003200051F8043B083A51F804CBA0E80810F5E76F
:10033000121D5CBF51F8043B40F8043BAFF3008052
:10034000D20724BF11F8013B11F801CB48BF11F8C7
:10035000012B24BF00F8013B00F801CB48BF00F897
:10036000012B704770477047704710B5436913B150
:10037000AFF3008001E0FFF787FF012010BD127886
:1003800000F124010A7000224A700122EDE7116891
:100390004FF0FF32E9E70000074B70B50D467B4494
:1003A00000F043F80446284600F052F810B14FF030
:1003B000FF3070BD204670BDEB25000010B5203A1F
:1003C000C0F00B80B1E81850203AA0E81850B1E80E
:1003D0001850A0E81850BFF4F5AF5FEA027C24BFC4
:1003E000B1E81850A0E8185044BF18C918C0BDE8BB
:1003F00010405FEA827C24BF51F8043B40F8043B84
:1004000008BF7047D20728BF31F8023B48BF11F838
:10041000012B28BF20F8023B48BF00F8012B704792
:1004200001694A1C02610878704700B58FB0CDE9B8
:1004300001310021059105497944CDE903101146A8
:100440006846FFF7EDFE0FB000BD0000E5FFFFFFBF
:10045000007B00F08000704710B54248542100F046
:10046000E5F94148542100F0E1F94048542100F0F9
:10047000DDF93F493B483C4A3F4B08603D490A6033
:100480003A491960531C0365481C10650120086532
:100490003B48344A39A1784400F01CF920B9384867
:1004A00078440A3800F0BBF937482F4A35A1784420
:1004B00000F010F920B9344878440A3800F0AFF958
:1004C00032482A4A2FA1784400F004F920B92F4875
:1004D00078440A3800F0A3F940232248DC000021C8
:1004E000224600F0D4F820B125487844543800F072
:1004F00096F91D4822464023002100F0C8F820B19B
:1005000021487844543800F08AF9184822461023CC
:10051000002100F0BCF8002806D01C487844BDE853
:100520001040563800F07BB910BD104870B5006D12
:1005300020F001040B4800F043F90B4800F040F9AB
:100540000A4800F03DF909E0206D20F00105204641
:1005500000F036F9204600F073F82C46002CF3D159
:1005600070BD0000F4050020480600209C06002015
:10057000300000203400002038000020720000000D
:100580000E26000077000000FA250000E625000096
:100590000EB5CDE9000100F005FB0290694601208F
:1005A000ABBE0EBD08B5694600900220ABBE08BDCB
:1005B0001FB58DE8070069460520ABBE04B010BD2D
:1005C0001FB58DE80F0069460620ABBEF6E708B5FB
:1005D000694600900920ABBE08BD1CB5CDE90001FD
:1005E00069460A20ABBE1CBD704708B5694600903D
:1005F0000C20ABBE08BD754600F040F9AE460500C4
:100600006946534620F00700854618B020B5FFF72D
:10061000D5FDBDE820404FF000064FF000074FF039
:1006200000084FF0000B21F00701AC46ACE8C00910
:10063000ACE8C009ACE8C009ACE8C0098D46704719
:1006400070B50446051F00F01FF90068002C14BFA8
:10065000446870BD002C18BFAC423CBF20466468A3
:10066000F8D301680A18AA4218BF456003D12A6866
:1006700005461144016028684119A1421CBF6C6005
:1006800070BD6168696021680844286070BD70B5FC
:10069000C468A50713D0650211D4B2F5807F09D0D4
:1006A000B2F5007F06D0B2F5806F08D1012300F1CA
:1006B000240106E05D1E6FF07F46B54201D30120A4
:1006C00070BD0161C361416024F470611143C16078
:1006D000002070BD2DE9F0410C4607461646104635
:1006E00000F06EF82078611C61280AD0722802D0D0
:1006F00077283CD102E00125002405E002250424EE
:1007000002E0082448F2020511F8010B2B2806D05C
:10071000622809D011F8010C74280AD00BE045F0CA
:10072000030544F00204EFE745F0040544F001043A
:10073000EAE744F0100438462146FFF729FF411C40
:1007400015D00021316171604FF40071F560F161E5
:100750007061200704D530460222002100F00EF916
:10076000306D40F0010030653046BDE8F08100207A
:10077000FBE72DE9F0410D460646104C206DC10700
:1007800004D0410804D020F00104F7E722460EE02F
:10079000542000F0C4F807000ED0206D47F001018E
:1007A000084354212065384600F040F83A4629466F
:1007B0003046BDE8F0418DE70020D6E7F405002083
:1007C0002DE9F04704464FF000094FF0FF37C568A8
:1007D000D4E90486A80707D0204600F07FF9304608
:1007E000FFF7E0FE002802DA3846BDE8F08728056A
:1007F00002D54046FFF724FF4C21204600F016F8B2
:10080000206D20F0010020654846EEE710B5044653
:10081000AFF300802046BDE81040FFF7BBBC10B529
:1008200000F0A6F9BDE8104000F09CB94FF00002BE
:1008300000B5134694469646203922BFA0E80C50D6
:10084000A0E80C50B1F12001BFF4F7AF090728BFB1
:10085000A0E80C5048BF0CC05DF804EB890028BF2D
:1008600040F8042B08BF704748BF20F8022B11F056
:10087000804F18BF00F8012B7047000000487047F8
:10088000F00600207047000000487047F80600207E
:10089000704770477047704738B504460A460020D5
:1008A0006946AFF30080002808BF38BD02460099B2
:1008B000204600F0A4F9012038BD012000F0F3B972
:1008C000F8B5AFF30080054600200C46102000BFAD
:1008D0000646A819A0420DD9324669460020AFF35A
:1008E0000080070008BF00F0DEF90098A04218BFA2
:1008F0000546C419FFF7C8FF05600746F01D20F044
:1009000007004619284600F073F9B44208BFF8BD45
:10091000A21B31463868BDE8F84000F070B970B5E8
:100920000646FFF7B1FF056806F10B0020F007044B
:10093000B4429CBF002070BD2B466A68BAB11068F3
:10094000A04210D304F1080188423CBF50685860AF
:1009500007D35168101941601168091B0160586084
:100960001460101D70BD13465268002AE7D121465D
:100970002846FFF791FF0028DED170BD2DE9F04138
:10098000044616460D464769007B80072ED0384640
:10099000FFF71DFE50BB3EB3012E02D0022E25D123
:1009A00004E0204600F045F905441DE03846FFF715
:1009B0001CFEE168002841F01001E16005DA2046E4
:1009C00000F058F80120BDE8F081C9030BD562683A
:1009D000E16A914200D81146A26911442269891A3C
:1009E000814200DD08460544002D01DA0220EAE7D5
:1009F000E16A6068E268814206D29103E06203D551
:100A000022F4003141F01002A6690027AE4213DC47
:100A1000E16A814201D90B4600E0034603EB060C74
:100A20002369ACEB030CAC4506DD814201D98C4651
:100A300000E084469C4505D1A760276042F0200075
:100A4000A5620DE0AD1BE669AE1B8142A66000D930
:100A50000846C01A281A20605819606022F0200049
:100A600003490840E060002084F84870ABE70000CC
:100A7000BFCFD7FFC16821F4001141F08001C160F0
:100A800000218160016070472DE9F04781461446DE
:100A90000E464FF0FF383248D5685769054209D0F5
:100AA0003846A169FFF799FD002811DB2C48C043A7
:100AB0000540E5602B46324649463846FFF778FD4B
:100AC000A16920F00042B21A11440028A16103D0AC
:100AD0002046FFF7CFFF4046BDE8F08770B50446DB
:100AE0000569C06A6168884200D80846E16821F457
:100AF0002011E160C90312D5A84208D02246411B4B
:100B00002846FFF7C1FF10B14FF0FF3070BD002045
:100B1000E562C4E90150E06820F48030E060002024
:100B200070BD10B50446C06820F02000E060A16AE6
:100B3000A06988420DD02046FFF7D0FFE06820F47E
:100B4000405040F01000E060A06AA0612069E062BF
:100B5000606044F24001E0688843E06010BD00003E
:100B600010000200002801D000F03CB870470000DF
:100B700010B5014602A000F07DF8012010BD000074
:100B800053494752545245443A205265646972654C
:100B900063743A2063616E2774206F70656E3A202B
:100BA0000000000010B5431C02E010F8011B71B1F9
:100BB0008107FAD14FF0013202C88C1A8C4314EA33
:100BC000C211F9D0C01A0A0603D0C01E10BDC01A47
:100BD00010BD0A0401D0801E10BD0902FCD0401EC9
:100BE00010BD000001491820ABBEFEE72600020040
:100BF00000210160C0E901107047102070470346D2
:100C000040688C46002818BF88423CBF03464068B5
:100C1000F8D318681844884207D00CF1030020F07C
:100C20000700001D411A521A0146081D0A60FFF70D
:100C300007BD10B50146C268900703D0900607D5DE
:100C4000886A0AE000F03EF801210160881E10BDAC
:100C50008B69486818440B69C01A91F848301BB179
:100C600091F84910401A10BD1103FCD50028FADD97
:100C7000401E10BD70B505460C460A2000E06D1CF4
:100C800000F018F835B128780028F8D102E0641C8B
:100C900000F010F814B120780028F8D1BDE87040B9
:100CA0000A2000F007B810B500F010F8BDE81040B9
:100CB000FFF758BF08B569468DF800000320ABBEAA
:100CC00008BD000000487047F006002010B501285C
:100CD00005D0002103A0FFF7CDFF012010BD09A121
:100CE000F8E7000053494752544D454D3A204F759F
:100CF00074206F662068656170206D656D6F727914
:100D0000000000003A2048656170206D656D6F72CB
:100D10007920636F7272757074656400FEE77047C6
:100D200006490020C8610648016941F004010161DB
:100D3000016941F04001016170470000400000205E
:100D400000200240064A0021D16106490A6942F0AA
:100D500002020A614861086940F04000086170477A
:100D6000400000200020024001B50098810503D01A
:100D7000012101EB902008BD800A08BD044B002230
:100D8000DA61044A136943F001031361018070477B
:100D900040000020002002400E49C868C2060E48EC
:100DA00003D5C26942F00202C261CA68520703D584
:100DB000C26942F00102C261CA69D20707D0C269A2
:100DC00042F00402C261C86920F00100C861142029
:100DD000C8607047002002404000002070B5054602
:100DE00000F0C0F90646114C09E0681C07D025B197
:100DF00000F0B8F9801BA84201D9032070BDE0685B
:100E0000C007F2D1E068800601D52020E060E068EC
:100E1000C00605D4E069C00702D1E068400703D5E9
:100E2000FFF7BAFF012070BD002070BD0020024016
:100E300031B500F097F9044600F094F90099001BD1
:100E40008842F9D338BD00002DE9F0470546264811
:100E50000F460126017E01290FD00121814601762E
:100E60002868DFF888804CF25034022808D0A24667
:100E70002046FFF7B3FFA8B131E00220BDE8F087BC
:100E80002046FFF7ABFF08BB0120FFF749FF2046D4
:100E9000FFF7A4FFD8F81010064621F00401C8F8A7
:100EA00010101CE04FF0FF303860AC6811E02046B5
:100EB000FFF748FF5046FFF791FFD8F810100600E3
:100EC00021F00201C8F8101001D03C6007E004F5E1
:100ED0008064D5E9020100EB8120A042E7D800211F
:100EE00089F818103046C9E7400000200020024071
:100EF0000348016941F08001016100207047000052
:100F0000002002402DE9F05F07461C488846002477
:100F1000017E15461E46012909D001218146017630
:100F20004CF2503A5046FFF759FF18B122E0022028
:100F3000BDE8F09F012F02D0022F00D00427D34636
:100F4000DFF83CA0220128463146FFF749F981B27B
:100F500008EB4400FFF712FF5846FFF73FFFDAF8AF
:100F6000102022F00102CAF8102018B9641CE4B263
:100F7000BC42E7D3002289F81820D9E740000020BE
:100F80000020024005480169090605D50449416071
:100F90000449416000207047012070470020024052
:100FA00023016745AB89EFCD2DE9F84FDFF890A11C
:100FB00000220AF1040B144601274FF00F090BF130
:100FC000040E00BF0B6807FA04F52B40AB4274D146
:100FD000DFF870C14E68A6EB0C0866452BD00DDC1F
:100FE000032E34D005DC36B3012E19D0022E2FD1BA
:100FF0001BE0112E16D0122E2AD119E0B8F5881F49
:1010000019D006DCB8F5803F15D0B8F5801F1FD188
:1010100011E0B8F5001F0ED0B8F5041F18D10AE092
:10102000CA6815E0CA68121D12E0CA6808320FE0EB
:10103000CA680C320CE08A682AB1012A4FF0080213
:1010400003D0456104E0042202E0056100E00022D3
:10105000FF2B01D8064601E000F104064FEA8405A3
:1010600001D9A5F12005D6F800C009FA05F82CEA47
:10107000080C02FA05F54CEA050CC6F800C04D68EC
:10108000ED0057D5304DAE6946F00106AE61AD6951
:1010900024F0030605F0010500952C4D06EB050C28
:1010A000DCF80850A6074FEA167809FA08F6B543A7
:1010B000274EB04202D1002610E03BE0254EB04260
:1010C00001D101260AE0244EB04201D1022605E0FA
:1010D000224EB04201D1032600E0042606FA08F6AB
:1010E0002E43CCF808604D68DAF80060ED035546F1
:1010F00001D51E4300E09E432E604D68DBF8006082
:10110000AD035D4601D51E4300E09E432E604D6851
:10111000DEF80060ED02754601D51E4300E09E43F7
:101120002E604D68AD020E4D2E6801D51E4300E0C5
:101130009E432E60641C102CFFF444AFBDE8F88F72
:1011400000040140000011100010024000000140A6
:1011500000080140000C0140001001400014014053
:101160000C040140014800687047000004000020A2
:1011700002480168491C016070470000040000201B
:10118000074810B5016841F010010160032000F02C
:1011900087F8002000F006F800F016F8002010BDD7
:1011A0000020024010B5044600F062F94FF47A7155
:1011B000B0FBF1F000F0A2FC00222146501E00F02E
:1011C0004FF8002010BD00001D4808B5816941F0AE
:1011D00001018161806900F001000090032000F0AE
:1011E0005FF8002211466FF00B0000F039F8002282
:1011F00011466FF00A0000F033F8002211466FF03C
:10120000090000F02DF800221146501F00F028F8C8
:1012100000221146101F00F023F800221146901EF4
:1012200000F01EF800221146501E00F019F8054883
:10123000416821F0E06141F00071416008BD0000AB
:10124000001002400000014000F01F020121914007
:101250004009800000F1E020C0F800117047000054
:10126000F0B40E4B1B680C46C3F30223C3F1070511
:10127000042D00D90425191D072901D2002300E0FF
:10128000DB1E012606FA05F1491E214099409E40C9
:10129000761E16403143F0BC00F0ECBE0CED00E0D1
:1012A000064900F0070208684FF6FF03184040EABD
:1012B0000220034A10430860704700000CED00E074
:1012C0000000FA05BFF34F8F05480168054A01F495
:1012D000E06111430160BFF34F8F00BFFDE70000E5
:1012E0000CED00E00400FA052DE9F047DFF870810D
:1012F00005460E46D8F8000000F00700B0420CD2B8
:10130000D8F8001021F007013143C8F80010D8F8D0
:10131000000000F00700B04277D12878514C8007D8
:1013200005D56068A96820F0F0000843606028785F
:10133000C00759D06968012001290DD0022929D0A0
:101340005FF0020393FAA3F2B2FA82F242F02002B3
:10135000520904D0226803E04FF40033F2E7626AD6
:1013600093FAA3F3B3FA83F303F01F039840024206
:101370004BD0606820F0030008436060FFF7F2FE86
:101380006968074641F2883001290DD0022981465B
:1013900017D025E04FF00073D4E700BFFFF7E2FE5F
:1013A000C11B494501D918E081466068C0F381003E
:1013B0000128F3D118E000BFFFF7D4FEC11B494557
:1013C0000BD86068C0F381000228F5D10CE000BFA3
:1013D000FFF7C8FEC11B494502D90320BDE8F087CD
:1013E000606810F00C0FF3D1D8F80010404601F0FF
:1013F0000701B1420BD9016821F0070131430160B7
:10140000006800F00700B04201D00120E6E728782C
:10141000400705D56068E96820F4E0600843606033
:101420002878000706D56068296920F4605040EAF2
:10143000C100606000F052F86168F02292FAA2F2F6
:1014400001F0F001B2FA82F2D140074A515CC84083
:10145000064908600020FFF7A5FE0020BEE7000057
:101460000020024000100240902A000800000020E6
:101470000148006870470000000000200848094942
:10148000006849684FF4E06292FAA2F201F4E06168
:10149000B2FA82F2D140044A515CC8407047000061
:1014A0000000002000100240A02A00080848094956
:1014B000006849684FF4605292FAA2F201F4605158
:1014C000B2FA82F2D140044A515CC8407047000031
:1014D0000000002000100240A02A000810B519A347
:1014E00085B00FCB8DE80F001AA01B4B006804904D
:1014F0005A681A4802F00C0104291DD008291BD192
:101500004FF4701494FAA4F402F47011B4FA84F451
:10151000E140D2031DF8011010D55A684FF4003392
:1015200093FAA3F302F40032B3FA83F3DA4004AB84
:101530009A5CB0FBF2F0484305B010BD0848484340
:10154000FAE7000002030405060708090A0B0C0D60
:101550000E0F1010010200000010024000127A006D
:1015600000093D002DE9F84F04460078F74DC0070B
:101570004FF0010625D068687704C0F38100012888
:1015800007D06868C0F3810002281BD16868C003D7
:1015900018D597FAA7F0B0FA80F040F02000400983
:1015A00001D0286800E0686A97FAA7F1B1FA81F1E2
:1015B00001F01F0106FA01F108425ED060680028C0
:1015C0007CD05AE06068B0F5803F0BD010B1B0F528
:1015D000A02F11D0286820F480302860286820F4DB
:1015E000802002E0286840F480302860606828B3DA
:1015F000FFF7B8FD80460BE0286840F480202860A3
:10160000F0E700BFFFF7AEFDA0EB0800642871D83B
:1016100097FAA7F0B0FA80F040F02000400901D01E
:10162000286800E0686A97FAA7F1B1FA81F101F041
:101630001F0106FA01F10842E4D01EE0FFF792FD17
:10164000804605E0FFF78EFDA0EB08006428DED899
:1016500097FAA7F0B0FA80F040F02000400901D0DE
:10166000286800E0686A97FAA7F1B1FA81F101F001
:101670001F0106FA01F10842E4D12078DFF8D08298
:1016800080074FF000094FF002075BD568684FF004
:10169000F80B10F00C0F07D06868C0F38100022827
:1016A0001CD16868C00319D497FAA7F0B0FA80F08B
:1016B00040F02000400902D0286801E08BE0686A11
:1016C00097FAA7F1B1FA81F101F01F0106FA01F1D1
:1016D00008422CD0206901287DD128E0206990B3F0
:1016E00096FAA6F0B0FA80F048F82060FFF73AFDCD
:1016F000824607E011E100BFFFF734FDA0EB0A00CE
:10170000022884D897FAA7F0B0FA80F040F02000C1
:10171000400901D0286800E0686A97FAA7F1B1FA99
:1017200081F101F01F0106FA01F10842E4D02868B6
:101730009BFAABF26169B2FA82F220F0F8009140B4
:101740000843286025E0FFE796FAA6F1B1FA81F197
:1017500048F82190FFF706FD824605E0FFF702FDFD
:10176000A0EB0A000228CCD897FAA7F0B0FA80F0D4
:1017700040F02000400901D0286800E0686A97FA2C
:10178000A7F1B1FA81F101F01F0106FA01F1084257
:10179000E4D1207800076ED5A069B8B396FAA6F018
:1017A000B0FA80F008EB8000C0F88064FFF7DAFC44
:1017B000824605E0FFF7D6FCA0EB0A000228A0D87D
:1017C00097FAA7F0B0FA80F040F06000B6EB501F37
:1017D00002D128680CE062E197FAA7F0B0FA80F035
:1017E00040F06000B7EB501F01D1286A00E0686A42
:1017F00097FAA7F1B1FA81F101F01F0106FA01F29F
:101800001042D7D00120FFF713FB34E0FFE796FA30
:10181000A6F1B1FA81F108EB8101C1F88094FFF7DC
:10182000A1FC824606E000BFFFF79CFCA0EB0A008B
:10183000022872D897FAA7F0B0FA80F040F0600062
:10184000B6EB501F01D128680BE097FAA7F0B0FA69
:1018500080F040F06000B7EB501F01D1286A00E033
:10186000686A97FAA7F1B1FA81F101F01F0106FA4F
:1018700001F21042D8D12078400765D5E86940F0E0
:101880008050E861E869DFF8CCB000F0805000904B
:10189000DBF8001041F48071CBF80010FFF762FC18
:1018A000824605E0FFF75EFCA0EB0A00642834D80E
:1018B000DBF80000C005F5D5E06801280AD008B1C2
:1018C000052813D0286A20F001002862286A20F039
:1018D000040002E0286A40F001002862E06841F25A
:1018E000883B90B3FFF73EFC82460BE0286A40F04D
:1018F00004002862EEE700BFFFF734FCA0EB0A010A
:1019000059450AD897FAA7F0B0FA80F040F04000A5
:10191000B6EB501F02D128680CE0A3E097FAA7F0BD
:10192000B0FA80F040F04000B7EB501F01D1286AB8
:1019300000E0686A97FAA7F1B1FA81F101F01F029D
:1019400006FA02F10842D7D031E005E0001002406B
:101950000000424200700040FFF704FC824605E0B0
:10196000FFF700FCA0EB0A0159457BD897FAA7F0D6
:10197000B0FA80F040F04000B6EB501F01D128686B
:101980000BE097FAA7F0B0FA80F040F04000B7EB18
:10199000501F01D1286A00E0686A97FAA7F1B1FAEE
:1019A00081F101F01F0206FA02F10842D8D1E06984
:1019B00080B36968C1F38101022970D04FF0807152
:1019C0004F000228484609D091FAA1F1B1FA81F1FD
:1019D00048F82100FFF7C6FB044669E08A4691FA01
:1019E000A1F1B1FA81F1C14648F82100FFF7BAFB35
:1019F000804605E0FFF7B6FBA0EB0800022854D8AC
:101A000097FAA7F0B0FA80F040F02000400902D029
:101A1000286801E061E0686A97FAA7F1B1FA81F1FC
:101A200001F01F0106FA01F10842E3D1206AB0F586
:101A3000803F05D16868A16820F4003008436860E1
:101A4000D4E908010843696821F474110843686007
:101A50009AFAAAF0B0FA80F049F82060FFF782FB0A
:101A6000044606E021E000BFFFF77CFB001B0228D4
:101A70001BD897FAA7F0B0FA80F040F02000400998
:101A800001D0286800E0686A97FAA7F1B1FA81F1FD
:101A900001F01F0106FA01F10842E5D01DE01EE049
:101AA000FFF760FB001B022802D90320BDE8F88F76
:101AB00097FAA7F0B0FA80F040F02000400901D07A
:101AC000286800E0686A97FAA7F1B1FA81F101F09D
:101AD0001F0106FA01F10842E2D10020E6E70120E9
:101AE000E4E74FF0E0210428086903D020F0040067
:101AF0000861704740F00400FAE7704710B5401ED7
:101B0000B0F1807F01D3012010BD4FF0E02460616F
:101B10000F21601700F0AEFA0020A06107202061BD
:101B2000002010BD10B5FFF7E8FF10BD70470000A2
:101B300038B5044600680168C26811F0010F02F46C
:101B4000807204D01AB1E16B41F00101E1630168D8
:101B5000C1F34002416901F0010122B119B1E26B08
:101B600042F00402E2630268C2F3800222B119B1BA
:101B7000E26B42F00202E2630268C2F3C00222B1E9
:101B800019B1E16B41F00801E1630168C068C1F37C
:101B9000401100F0200019B110B1204600F07AFC8D
:101BA00020680168C068C1F3C01100F0800019B15D
:101BB00010B1204600F07AFD21680868CA68C0F3B9
:101BC000801002F04002012570B16AB1CA68204657
:101BD00022F04002CA6094F83910322911D080F8FE
:101BE000395000BF00F0AAF9E06B002808D0206847
:101BF00001684068009084F839502046FFF796FF4E
:101C000038BD222180F83910ECE770B5040004D00B
:101C100094F83900002510B106E0012070BD84F869
:101C20003850204600F020F8022084F8390020685F
:101C3000C16821F40051C160204600F07FFC20689B
:101C4000016921F4904101612068416921F02A0174
:101C500041612068C16841F40051C160E563012021
:101C600084F83900002070BD70B5274E0368002449
:101C7000264902200322264D86B0B3421ED18B692D
:101C800043F480438B618969039201F4804104919C
:101C90000102CDE9001069462846FFF785F92815AD
:101CA000CDE90004694628460294FFF77DF9002239
:101CB00011462520FFF7D4FA252020E0154EB34227
:101CC0001FD1CB6943F40033CB61C969039201F49E
:101CD000003104910421CDE9001069462846FFF740
:101CE00063F90820CDE90004694628460294FFF70D
:101CF0005BF9002211462620FFF7B2FA2620FFF7F3
:101D0000A3FA06B070BD0000003801400010024088
:101D100000080140004400402DE9F047044690F8D7
:101D2000390099460D46012801D0122858D12DB30B
:101D300022B394F83800012852D0012684F8386084
:101D40000027E76394F8390012281AD05FF02200C8
:101D500084F83900A285E2854FF48058E08D4B4627
:101D6000401EE085A0684FF0000240454FF0200182
:101D7000204616D100F0CDFCB0B904E00120BDE84A
:101D8000F0873220E4E7206900282068406803D00B
:101D9000C1B225F8011B12E0C0F3080125F8021BAF
:101DA0000DE000F0B6FC08B10320E8E72069002848
:101DB0002068406801D000F07F0005F8010BE08D3D
:101DC0000028CBD194F83900322805D084F8396046
:101DD00084F838700020D2E7122084F83900F7E741
:101DE0000220CCE790F83930012B01D0122B2CD1F6
:101DF00039B332B390F83830012B26D0012380F864
:101E0000383081628285C2850021C16390F8392013
:101E1000122A18D05FF0220280F8392080F838109A
:101E20000168CA6842F48072CA6001684A6942F077
:101E300001024A610068C16841F02001C1600020D0
:101E40007047012070473222E6E702207047000009
:101E500000680449884204D1012203490348FFF77E
:101E6000C1BF70470044004008000020B4000020BB
:101E70002DE9F047044690F8390099460D460128AF
:101E800001D0222858D12DB322B394F8380001286C
:101E900052D0012684F838600027E76394F83900AF
:101EA00022281AD05FF0120084F83900A284E2845C
:101EB0004FF48058E08C4B46401EE084A0684FF001
:101EC000000240454FF08001204613D100F021FC74
:101ED00008BB04E00120BDE8F0873220E4E7288851
:101EE0002168C0F308004860206908B16D1C08E053
:101EF000AD1C06E000F00DFC68B9216815F8010B77
:101F00004860E08C0028D5D14B4600224021204675
:101F100000F0FFFB08B10320DDE794F83900322818
:101F200006D084F8396000BF84F838700020D2E70A
:101F3000222084F83900F7E70220CCE77047FEE75B
:101F4000F0B500220D4B154614460A27B1FBF3F6F7
:101F500030368654B1FBF3F603FB1611B3FBF7F3EF
:101F6000521C861816F8016C302E00D125B16D1C5C
:101F7000641C0A2CEAD3F0BD0022F9E700CA9A3BA0
:101F800007480168074A1140B1F1005F07D1416875
:101F9000054A51611161006880F30888084770475D
:101FA000003000080000FE2F0C000020094808B592
:101FB000816941F020018161816901F02001009176
:101FC000816941F004018161806900F004000090A2
:101FD00008BD0000001002400D4810B50B4901601B
:101FE0004FF4E1314160002181600C22C160C0E901
:101FF00004128161C161FFF708FE002805D0BDE829
:102000001040432103A000F0BFBC10BD00380140C8
:10201000740000202E2E5C5372635C7573617274C1
:102020002E6300000D4810B50B4901604FF4E131FB
:102030004160002181600C22C160C0E9041281610D
:10204000C161FFF7E2FD002805D0BDE81040562130
:1020500003A000F099BC10BD00440040B400002073
:102060002E2E5C5372635C75736172742E63000074
:10207000FEE770470907090E002806DA00F00F0096
:1020800000F1E02080F8141D704700F1E02080F896
:10209000001470477047000070B50C4606464FF4B8
:1020A0007A7507E02B46012231460548FFF734FEDA
:1020B000002803D0641EF5D24FF0FF3070BD000041
:1020C000740000202DE9F84F884600210646C8F824
:1020D0000010924611466846FFF7DEFF4FF0FF39C9
:1020E000B0BB9DF80000182814D006DC012809D0E8
:1020F000022809D004282BD12EE0412816D06128CF
:1021000026D113E0802401E04FF480640125307073
:10211000671D15E051466846FFF7BEFFC0B99DF840
:102120000000182814D1C8F8009015E00120BDE87F
:10213000F88F70195146FFF7AFFF48B96D1CADB26B
:10214000BD42F6D3B178707881F0FF01884201D0AA
:102150004846ECE7C8F800400020E8E77047000078
:102160003EB51CA207CA8DE80700FEF70BFF1CA0B6
:1021700000F0C8F8294800F023FB041E17DD0A20F0
:10218000FEF756FE264800F0BDF8264800F0BAF8E3
:1021900021466846FFF7D4FE23A000F0B3F8684656
:1021A00000F0B0F823A000F0ADF825A006E0601C18
:1021B00009D0A01C09D0E41C09D027A000F0A2F887
:1021C000FEF796FE3EBD2CA0F8E73BA0F6E741A047
:1021D000F4E70000202020202020202020200000E4
:1021E00057616974696E6720666F72207468652034
:1021F00066696C6520746F2062652073656E74205B
:102200002E2E2E202870726573732027612720746C
:102210006F2061626F7274290A0D0000F4000020C3
:10222000302C0008F40400200A0D2053697A653A26
:10223000200000002042797465730D0A0000000040
:102240002D2D2D2D2D2D2D2D2D2D2D2D2D2D2D2DBE
:102250002D2D2D0A000000000A0D4661696C656491
:1022600020746F20726563656976652074686520E7
:1022700066696C65210A0D000A0A0D5468652069BB
:102280006D6167652073697A652069732068696785
:10229000686572207468616E2074686520616C6C7A
:1022A0006F776564207370616365206D656D6F7213
:1022B00079210A0D000000000A0A0D566572696650
:1022C00069636174696F6E206661696C6564210A77
:1022D0000D0000000D0A0A41626F7274656420628D
:1022E0007920757365722E0A0D00000001B54FF656
:1022F000FF73012269460248FFF7BAFD08BD0000DE
:102300007400002010B5044603E000BFFFF7EEFFA5
:10231000641C20780028F9D110BD70B50022047823
:102320001346302C04D14478782C0AD0582C08D08D
:102330006FF02F05845C74B36B2C2ED04B2C2CD0FB
:1023400030E082780AB30224025D5AB1A2F141055D
:10235000052D0AD9A2F16106052E06D91135092DE0
:1023600007D913E001200B6011E0A2F13006092E1D
:1023700001D8303A04E0052D01D8373A00E0573A49
:10238000641C02EB03130B2CDED302E000200B2CA9
:1023900000D3002070BD0B6002E01AB1980207E084
:1023A000012015E06D2C01D04D2C03D112B1180580
:1023B0000860F5E7A4F13006092E08D803EB830383
:1023C00005EB4303521C23440B2AB3D3E1E700205F
:1023D0000B2ADED270BD10B5FEF7CAFEBDE8104074
:1023E000FFF7A0BB30B58FB001210804CDE9001084
:1023F0000024029402250491CDE907504FF4E01027
:1024000009906846FFF7AEF800B1FEE70F20CDE96E
:102410000A054FF48060CDE90C4002210AA80E9411
:10242000FEF762FF00B1FEE7FFF722F84FF47A7182
:10243000B0FBF1F0FFF762FB0420FFF752FB002234
:102440001146501EFEF70CFF0FB030BD0D4801685D
:1024500041F00101016041680B4A1140416001688F
:102460000A4A11400160016821F48021016041683D
:1024700021F4FE0141604FF41F0181600449C00353
:1024800008607047001002400000FFF8FFFFF6FEF2
:1024900008ED00E010B590F83910222903D0322958
:1024A00001D0022010BD8168B1F5805F11D00169B3
:1024B000002901681FD0496801F07F03816A4A1C26
:1024C00082620B70C18D491E0904090CC18518D0A8
:1024D00030E00269816A002A0268526805D0D2B2EF
:1024E0000A80816A491C8162ECE7C2F308020A8013
:1024F000816A891CF7E74A68816A4B1C83620A700B
:10250000E0E70168CA6822F02002CA6090F839103A
:10251000322911D00168CA6822F48072CA60016849
:102520004A6922F001024A615FF0010180F8391026
:10253000FFF78EFC002010BD1221F7E72DE9F041D6
:10254000044600680169E26821F4405111430161C9
:102550002169A0680843616908432168CA6841F29B
:102560000C639A430243CA6020684169A26921F45E
:102570004071114341614C492068642532268842EC
:102580003CD1FEF793FF00EBC00101EB0010616846
:102590008900B0FBF1F7FEF789FF00EBC00101EB0A
:1025A00000106168B0468900B0FBF1F0B0FBF5F0B7
:1025B0006FF01801484307EB800106EB0110B0FBF8
:1025C000F5F000F0F006FEF771FF00EBC00101EB43
:1025D000001061688900B0FBF1F0B0FBF5F006EB8C
:1025E0000016FEF763FF00EBC00101EB001061680D
:1025F0008900B0FBF1F7FEF759FF3BE0FEF73EFF25
:1026000000EBC00101EB001061688900B0FBF1F73D
:10261000FEF734FF00EBC00101EB00106168B0462B
:102620008900B0FBF1F0B0FBF5F06FF01801484302
:1026300007EB800106EB0110B0FBF5F000F0F006AF
:10264000FEF71CFF00EBC00101EB00106168890080
:10265000B0FBF1F0B0FBF5F006EB0016FEF70EFF55
:1026600000EBC00101EB001061688900B0FBF1F7DD
:10267000FEF704FF00EBC00101EB00106168890068
:10268000B0FBF1F0B0FBF5F06FF01801484307EB39
:10269000800108EB0110B0FBF5F0216800F00F009D
:1026A00030448860BDE8F0810038014090F839106E
:1026B000122903D0322901D0022070478168B1F578
:1026C000805F016A0BD04A1C02620268097851607F
:1026D000C18C491E0904090CC1840ED017E0098879
:1026E0000268C1F30801516001690029016A02D042
:1026F000491C0162ECE7891CFBE70168CA6822F00B
:102700008002CA600068C16841F04001C1600020D9
:1027100070472DE9F0471D4690460E460446FEF7E9
:1027200021FD07465FEA08004FF000094FF001085D
:1027300008D030E0681C05D095B1FEF713FDC01B32
:10274000A8420DD82068006836EA0000F2D127E0E0
:10275000681C20D025B1FEF705FDC01BA8421AD980
:102760002068C16821F08001C1602068C16821F043
:102770002001C1602068C16821F48071C1602068B7
:10278000416921F00101416184F8398084F8389071
:102790000320BDE8F0872068006836EA0000D7D043
:1027A0000020F6E70148FFF7C3B9000074000020DD
:1027B0000148FFF7BDB90000B4000020FEE70000AB
:1027C0002DE9F04F4FF0000BADF2544D6C4CDFF89B
:1027D000ACA1CDF834B4C4F800A08046CDF848B41C
:1027E0005D465F464FF0FF39CDF844B40026012224
:1027F0000DF21C416846FFF765FC90B1012874D0CA
:10280000002F00DD6D1C052D70DD1820FFF76EFD1B
:102810005FF01800FFF76AFD00200DF2544DBDE88F
:10282000F08FDDF81C2400254A4507D042B19DF801
:102830000100F1B288420BD015209CE00620E9E7A8
:102840000620FFF753FDDDF844040028CED05AE0FF
:1028500046B140460DF10301FDF73FFD0027C4F8E6
:1028600008806DE09DF80300F0B30021454B0DF1A9
:10287000030002E05A54401C491C02780AB1FF29A7
:10288000F8DD03F801B000215F460DF20C43401C57
:1028900002E05A54401C491C0278202A01D0102919
:1028A000F7DB5F540DF234411846FFF736FDDDF8D3
:1028B0003404B0F5003F07DB1820FFF717FD1820A0
:1028C000FFF714FD4846A8E7FEF74EFA6060FEF7F2
:1028D00059FBCDF824742068CDF82C0460680DF500
:1028E0008961CDF8300402E00AE03AE042E00DF2FE
:1028F0002440FEF7A9FA0620FFF7F8FC43202BE05E
:102900000620FFF7F3FCDDF8340486E7A068002317
:1029100002680220FEF7F6FA2068A16802680B68D8
:102920009A4208D01820FFF7E1FC1820FFF7DEFCE0
:102930006FF0010071E7091D001DA1603F1D2060BF
:10294000DDF81C04874206DADDF83424216802EB46
:102950000A008142DAD30620FFF7C8FC0127761C63
:1029600045E71820FFF7C2FC1820FFF7BFFC6FF007
:10297000020052E74320FFF7B9FC38E7002C0008BB
:1029800024000020F4040020FEE7000013B54FF6F9
:10299000FF73012269460248FFF76AFA00981CBDDE
:1029A000B4000020FEF7ECFBFFF71CFDFFF7FEFA7A
:1029B000FFF712FBFFF736FB1E48FDF725FC1E480C
:1029C000FDF722FC1D48FDF71FFC1D48FDF71CFC10
:1029D0001C48FDF719FC1748FDF716FC1AA0FDF777
:1029E00013FC1B491B4C00204218D2F8002C225427
:1029F000401CC0B21428F7D32078412808D1607851
:102A0000502805D1A078502802D1E0782D2804D094
:102A1000FFF7A6FBFEF756FCEEE70FA0FDF7F4FB71
:102A20000C4914A0FDF7F0FB13A0FDF7EDFBFFF739
:102A3000A7FAE1E7E42B0008982B0008B42A000865
:102A4000002B00084C2B00080D0A0D0A00000000A6
:102A500000200008600000200D0A5B4170706C6966
:102A6000636174696F6E2056657273696F6E5D3A4B
:102A700020000000257300000D0A20415050205313
:102A800074617274202E2E2E0D0A0D0A0D0A00009C
:102A9000000000000000000001020304060708090E
:102AA00000000000010203043A7474003A747400D8
:102AB0003A7474000D0A3D20202020202020202080
:102AC0002020202020202020202020202020202006
:102AD00020202020202020202020202020202020F6
:102AE00020202020202020202020202020202020E6
:102AF00020202020202020202020203D0000000039
:102B00000D0A3D20202020202020202020202020D1
:102B100020202020202020202020202020202020B5
:102B20002020202020202020204279204B69616E27
:102B30002020202020202020202020202020202095
:102B4000202020202020203D000000000D0A3D20F4
:102B50002020202020202020202020202020202075
:102B60002020202020202020202020202020202065
:102B70002020202020323031372D30372D323720A1
:102B80002020202020202020202020202020202045
:102B90002020203D000000000D0A3D2020202020A4
:102BA000496E2D4170706C69636174696F6E20505D
:102BB000726F6772616D6D696E67204170706C69CC
:102BC000636174696F6E20202856657273696F6E39
:102BD00020302E302E312920202020202020203D82
:102BE000000000000D0A3D3D3D3D3D3D3D3D3D3D6C
:102BF0003D3D3D3D3D3D3D3D3D3D3D3D3D3D3D3D05
:102C00003D3D3D3D3D3D3D3D3D3D3D3D3D3D3D3DF4
:102C10003D3D3D3D3D3D3D3D3D3D3D3D3D3D3D3DE4
:102C20003D3D3D3D3D3D3D3D3D3D3D3D00000000C8
:102C30000A0A0D2050726F6772616D6D696E6720B0
:102C4000436F6D706C657465642053756363657361
:102C50007366756C6C79210A0D2D2D2D2D2D2D2D62
:102C60002D2D2D2D2D2D2D2D2D2D2D2D2D2D2D2D94
:102C70002D2D2D2D2D2D2D2D2D0D0A204E616D6507
:102C80003A200000A42C0008000000203C000000B6
:102C900028010008E02C00083C000020141100006E
:102CA0004401000800A24A040000000000000000E7
:102CB0000000000000000000000000000000000014
:102CC0000000000000000000002C000800000000D0
:102CD00000000000000000000000000000000000F4
:04000005080000ED02
:00000001FF
