:020000040800F2
:10000000200F0020D5010008DD010008DF010008F5
:10001000E1010008E3010008E5010008000000001C
:10002000000000000000000000000000E7010008E0
:10003000E901000800000000EB010008ED010008E4
:10004000EF010008EF010008EF010008EF010008D0
:10005000EF010008EF010008EF010008EF010008C0
:10006000EF010008EF010008EF010008EF010008B0
:10007000EF010008EF010008EF010008EF010008A0
:10008000EF010008EF010008EF010008EF01000890
:10009000EF010008EF010008EF010008EF01000880
:1000A000EF010008EF010008EF010008EF01000870
:1000B0004D14000885140008EF010008EF01000846
:1000C000EF010008EF010008EF010008EF01000850
:1000D000EF010008B1170008EF010008EF01000868
:1000E000EF010008EF010008EF010008EF01000830
:1000F000EF010008EF010008EF010008EF01000820
:10010000EF010008EF010008EF010008EF0100080F
:10011000EF010008EF010008EF010008EF010008FF
:10012000EF010008EF010008EF010008EF010008EF
:1001300000F002F800F03AF80AA090E8000C8244BF
:100140008344AAF10107DA4501D100F02FF8AFF29C
:10015000090EBAE80F0013F0010F18BFFB1A43F0A5
:1001600001031847501D0000701D0000103A24BF05
:1001700078C878C1FAD8520724BF30C830C144BF0C
:1001800004680C607047000000230024002500264E
:10019000103A28BF78C1FBD8520728BF30C148BFEA
:1001A0000B6070471FB51FBD10B510BD00F022F9E0
:1001B0001146FFF7F7FF01F059FE00F040F903B4D4
:1001C000FFF7F2FF03BC00F047F9000080F3088856
:1001D000704700000948804709480047FEE7FEE7EE
:1001E000FEE7FEE7FEE7FEE7FEE7FEE7FEE7FEE7E7
:1001F00004480549054A064B70470000ED13000806
:100200003101000820090020200F0020200B0020D1
:10021000200B002040EA0103024630B59B0710D1B5
:100220004FF0013400E008C208C91D1B9D4315EAC8
:10023000C41FF8D013F0FF0102F8011B0DD01B0AF8
:10024000F8E711F8013B002B02F8013B05D011F84B
:10025000013B002B02F8013BF3D130BD10B5431C2C
:1002600002E010F8011B71B18107FAD14FF00132A1
:1002700002C88C1A8C4314EAC211F9D0C01A0A06BB
:1002800003D0C01E10BDC01A10BD0A0401D0801ECC
:1002900010BD0902FCD0401E10BD421E12F8013FE5
:1002A000002BFBD111F8013B002B02F8013BF9D1E7
:1002B0007047032A40F2308010F0030C00F01580E4
:1002C00011F8013BBCF1020F624498BF11F801CB59
:1002D00000F8013B38BF11F8013BA2F1040298BFBE
:1002E00000F801CB38BF00F8013B11F0030300F028
:1002F0004F80083AC0F0088051F8043B083A51F8A2
:1003000004CBA0E80810F5E7121D5CBF51F8043BD0
:1003100040F8043BAFF30080D20724BF11F8013B43
:1003200011F801CB48BF11F8012B24BF00F8013BA5
:1003300000F801CB48BF00F8012B70474FF00002D6
:1003400000B5134694469646203922BFA0E80C50CB
:10035000A0E80C50B1F12001BFF4F7AF090728BFA6
:10036000A0E80C5048BF0CC05DF804EB890028BF22
:1003700040F8042B08BF704748BF20F8022B11F04B
:10038000804F18BF00F8012B7047704770477047C7
:1003900010B5203AC0F00B80B1E81850203AA0E820
:1003A0001850B1E81850A0E81850BFF4F5AF5FEA54
:1003B000027C24BFB1E81850A0E8185044BF18C907
:1003C00018C0BDE810405FEA827C24BF51F8043BAE
:1003D00040F8043B08BF7047D20728BF31F8023B02
:1003E00048BF11F8012B28BF20F8023B48BF00F896
:1003F000012B7047754600F02BF8AE4605006946A4
:10040000534620F00700854618B020B5FFF7F0FEF0
:10041000BDE820404FF000064FF000074FF0000805
:100420004FF0000B21F00701AC46ACE8C009ACE886
:10043000C009ACE8C009ACE8C0098D46704710B5EA
:100440000446AFF300802046BDE81040FFF7B7BE7A
:1004500000487047C008002001491820ABBEFEE7E5
:10046000260002007047000070B504460D4616468F
:100470002868F8B12078432802D02078632817D163
:100480001648007820B915480078401C13490870B8
:100490001248007860B112480068642804DB00202C
:1004A0000F490860012000E0002008B101203070F1
:1004B000002028600A484068C82804DB002008495A
:1004C0004860012000E0002030B100F007FC05A0EA
:1004D00000F072FC00BFFEE770BD000028000020A5
:1004E000B40800200A0DD4CBD0D0CAA7B0DC2100BC
:1004F00010B500F02BF800F059F800F0ABF810BD83
:1005000010B500F0B9FC00BF00214FF0006000F012
:1005100049FC4FF4A06000F03BFC002206211D20A6
:1005200000F059FC00220A211C2000F054FC00229B
:100530000A21252000F04FFC00BF01F063FC00F011
:1005400011F800F045F800F0BDF810BD10B500221C
:100550000121880701F0C3F800214FF0804000F02E
:10056000ACFF10BD3EB54FF47A74E00600F0B2FF68
:100570000020ADF80200ADF80600601EADF80400E2
:100580004720ADF800006946E00601F0B3F800210D
:10059000E00601F0ADF801221146900701F09FF846
:1005A0000121880700F089FF3EBD000010B5002141
:1005B000064800F082FF0021044801F099F800226B
:1005C0000121024801F08BF810BD0000000400403A
:1005D0003EB542F6D074124800F07CFF0020ADF822
:1005E0000200ADF80600601E80B2ADF804000020E5
:1005F000ADF8000069460A4801F07CF8002108487F
:1006000001F076F800220121054801F068F8012187
:10061000034800F04FFF0021014800F04EFF3EBDAF
:100620000004004010B50021064801F061F80121E6
:10063000044800F042FF01221146024801F04FF841
:1006400010BD000000040040014908607047000030
:100650005400002010B500BF15480068007801283C
:10066000FAD10021134801F024F9002240F2277149
:10067000104801F0A3F9002240F225510D4801F085
:100680009DF9002240F226610A4801F097F940F2F4
:100690002771084801F0FEF840F22661054801F094
:1006A000F9F840F22551034801F0F4F810BD0000BC
:1006B00050000020003801400149086070470000E8
:1006C0004C00002000B585B0012144F2040000F088
:1006D000B3FB4FF40070ADF8100001208DF812004C
:1006E00018208DF8130004A91C4800F020FA4FF4DC
:1006F0008060ADF8100001208DF8120004208DF804
:10070000130004A9154800F012FA154801F0DEF8AC
:10071000684601F0EEF94FF4E13000900020ADF8AA
:100720000600ADF80400ADF808000C20ADF80A0092
:1007300069460B4801F068F9012240F22771084828
:1007400001F03CF9012240F22551054801F036F94B
:100750000121034801F0ADF805B000BD00080140DB
:100760000038014070B505460C46184800684068DE
:1007700048BB002C27DDB4F5836F24DC13480068E8
:10078000007801281FD115F8011B114801F0ADF9BF
:1007900000200E4909680870601E0C49096848600D
:1007A00000200A4909680881621E29460748006836
:1007B0000A30FFF77EFD012240F22771044801F064
:1007C000FDF8012070BD0020FCE700005000002073
:1007D0000038014010B51348007830B1012808D026
:1007E00002280AD0032810D10BE00F480F490860F7
:1007F0000FE00F480D4908600BE00E480B490860F8
:1008000007E00D480949086003E000200549087029
:1008100000BF00BF034A0949881D044B1B68984765
:1008200010BD00001C00002069040008100000201A
:1008300059080008450C00089911000870000020B4
:1008400010B50348FFF700FF0248FFF735FF10BD62
:10085000991700086511000870B506460C46154644
:10086000012020600DA13046FFF7D4FC1BA13046CB
:10087000FFF713FD1FA13046FFF70FFD22A1304601
:10088000FFF70BFD2FA13046FFF707FD0220287070
:10089000304600F091FA0020206070BD0D2A2A2A0F
:1008A0002A2A2A2A2A2A2A2A2A2A2A2A2A2A2A2AA8
:1008B0002A2A2A2A2A2A2A2A2A2A2A2A2A2A2A2A98
:1008C0002A2A2A2A2A2A2A2A2A2A2A2A2A2A2A2A88
:1008D0002A2A2A2A2A2A0D0A00000000312EB8FCF2
:1008E000D0C2D3A6D3C3C7F8B3CCD0F2A3BB0D0AF2
:1008F00000000000322ED4CBD0D0415050B3CCD029
:10090000F2A1A30D0A0000002A2A2A2A2A2A2A2A4A
:100910002A2A2A2A2A2A2A2A2A2A2A2A2A2A2A2A37
:100920002A2A2A2A2A2A2A2A2A2A2A2A2A2A2A2A27
:100930002A2A2A2A2A2A2A2A2A2A2A2A2A2A2A2A17
:100940002A0D0A00C7EBD1A1D4F13A0030B5044614
:1009500004254FF4302000F0BBF80546042D17D1D4
:100960000C48006940F002000A49086108464461E9
:10097000006940F0400008614FF4302000F0A8F812
:1009800005460448006941F6FD71084001490861C7
:10099000284630BD0020024004200B49C96801F000
:1009A000010109B101200EE00749C96801F0040105
:1009B00009B1022007E00449C96801F0100109B13A
:1009C000032000E004207047002002400348006933
:1009D00040F080000149086170470000002002409B
:1009E00001B500200099C1F30A021AB1012202EBFD
:1009F000D12000E0C80A08BD0549096821F01001AE
:100A0000034A1160114609680143116070470000F4
:100A10000020024010B5FFF7D9FF10BD70B50446A5
:100A20000D460426F00200F053F80646042E11D1BC
:100A30000948006940F00100074908612580F0027B
:100A400000F046F806460448006941F6FE71084089
:100A500001490861304670BD0020024038B50424C9
:100A600000250020009000F027F84FF45C40FFF7CD
:100A7000B7FF05460BE0094A4FF40063009903FBFA
:100A80000120FFF763FF04460098401C0090009887
:100A9000A84201D2042CEED038BD000000000108AD
:100AA00001460020034A106800F038000843106037
:100AB0007047000000200240024803494860034894
:100AC000486070472301674500200240AB89EFCDA5
:100AD00000B502460423FFF75FFF034603E0FFF77C
:100AE0005BFF0346521E012B01D1002AF7D102B948
:100AF0000523184600BDF8B506460C461746354690
:100B000000940EE029880098FFF788FF2888009954
:100B10000988884201D00020F8BDAD1C0098801CD7
:100B20000090E01900998842ECD80120F4E72DE903
:100B3000F041024600250026002000230024002763
:100B400091F803C00CF00F0591F803C00CF0100CE5
:100B5000BCF1000F03D091F802C04CEA050591F8F2
:100B600000C0BCF1000F31D0146800202BE04FF022
:100B7000010C0CFA00F3B1F800C00CEA03069E4227
:100B800020D183004FF00F0C0CFA03F7BC4305FA99
:100B900003FC4CEA040491F803C0BCF1280F06D111
:100BA0004FF0010C0CFA00FCC2F814C00AE091F8F6
:100BB00003C0BCF1480F05D14FF0010C0CFA00FC4A
:100BC000C2F810C0401C0828D1D31460B1F800C08E
:100BD000BCF1FF0F34DD546800202EE000F1080C5A
:100BE0004FF0010808FA0CF3B1F800C00CEA030654
:100BF0009E4221D183004FF00F0C0CFA03F7BC4347
:100C000005FA03FC4CEA040491F803C0BCF1280F78
:100C100005D100F1080C08FA0CF8C2F8148091F81C
:100C200003C0BCF1480F07D100F1080C4FF00108D8
:100C300008FA0CF8C2F81080401C0828CED3546083
:100C4000BDE8F08170B506460C46154620680028C0
:100C500021D03078312802D0322818D111E00E4846
:100C60000E4908600E480F4908600F480F49086098
:100C70000F4810490860032028700FA000F09CF86E
:100C800006E00020287011A000F096F800E000BFF8
:100C900000BF0020206070BD000001081800002087
:100CA0005D0A000804000020F70A00080C0000207C
:100CB000150A000808000020310D0AC7EBD1A1D4A5
:100CC000F1D2AAB7A2CBCDCEC4BCFE00320D0AD45D
:100CD000CBD0D0B3CCD0F22E2E2E000010B50C48C5
:100CE00000680C490840B0F1005F10D1FFF700FC2C
:100CF00007484068084908600846006807490860D6
:100D000003490868FFF762FA04480068804710BD8D
:100D1000000001080000FE2F140000200000002049
:100D200070B5002100230F22C47804B3154C246849
:100D300004F4E064C4F5E064210AC1F10403CA408C
:100D4000447804FA03F184781440214309010E4CDD
:100D50000678A155047804F01F050124AC400578FD
:100D60006D11AD0005F1E025C5F8004109E00478FA
:100D700004F01F050124AC40044D0678761145F8B7
:100D8000264070BD0CED00E000E400E080E100E0F2
:100D900002490143024A1160704700000000FA0551
:100DA0000CED00E0024A0A400243024B1A60704711
:100DB00080FFFF1F08ED00E070B5044600252046C7
:100DC000FFF74CFA85B200BF29462046FFF7CAFC60
:100DD0000128F9D170BDF8B506460C4615468DF8C8
:100DE00000608DF801408DF8025001208DF803005D
:100DF0006846FFF795FFF8BD29B1064AD26902435C
:100E0000044BDA6104E0034AD2698243014BDA61A0
:100E1000704700000010024029B1064A12690243DF
:100E2000044B1A6104E0034A12698243014B1A61C0
:100E3000704700000010024029B1064A926902433F
:100E4000044B9A6104E0034A92698243014B9A6120
:100E5000704700000010024029B1064AD2680243E0
:100E6000044BDA6004E0034AD2688243014BDA6043
:100E7000704700000010024010B500F037F84FF442
:100E8000803000F0F5F800F051F90446012C24D12F
:100E90001020FFF7B1FD0220FFF702FE002000F056
:100EA000DBF8002000F016F9A00200F007F94FF47B
:100EB000E011200400F020F9012000F017F900BF34
:100EC000392000F0A3F80028FAD0022000F022F91F
:100ED00000BF00F0B9F80828FBD10121FC20FFF782
:100EE000ABFF01210320FFF787FF10BD0F4800680B
:100EF00040F001000D490860084640680C49084070
:100F00000A494860084600680A49084007490860DD
:100F10000846006820F4802008600846406820F4F5
:100F2000FE0048604FF41F008860704700100240C8
:100F30000000FFF8FFFFF6FE30B50021002200247C
:100F400000232D4D6D6805F00C0121B1042905D059
:100F5000082923D105E0294D056022E0274D0560D1
:100F60001FE0254D6D6805F47012234D6D6805F482
:100F70008034022505EB92421CB9214D5543056092
:100F80000BE01D4D6D6805F400351DB11C4D55433A
:100F9000056002E0194D5543056002E0174D0560FC
:100FA00000BF00BF144D6D6805F0F0010909154D33
:100FB0006B5C0568DD4045600F4D6D6805F4E061D0
:100FC000090A104D6B5C4568DD4085600A4D6D680F
:100FD00005F46051C90A0B4D6B5C4568DD40C56086
:100FE000054D6D6805F44041890B074D6B5CC56884
:100FF000B5FBF3F5056130BD0010024000127A0028
:1010000000093D00580000206800002010B501468E
:101010000022002300204A11012A02D1094C236832
:1010200006E0022A02D1074C236A01E0054C636AFC
:1010300001F01F02012494401C400CB1012000E08B
:10104000002010BD001002400248406800F00C0073
:10105000704700000010024001460020034A50681B
:1010600020F0F0000843506070470000001002407C
:101070001149096821F480310F4A1160114609684D
:1010800021F480211160B0F5803F03D0B0F5802FAE
:101090000ED106E00849096841F48031064A116022
:1010A00007E00549096841F4A021034A116000E006
:1010B00000BF00BF70470000001002400146002042
:1010C000034A506820F4E060084350607047000015
:1010D0000010024001460020034A506820F460508E
:1010E00040EAC100506070470010024001490866A4
:1010F000704700000000424202460020044B58683E
:1011000020F47C1042EA01031843014B58607047F9
:101110000010024001460020034A506820F00300FE
:1011200008435060704700000010024038B50020AE
:1011300000900024002500BF3120FFF767FF05461F
:101140000098401C00900098B0F5A06F01D0002DD1
:10115000F2D03120FFF75AFF08B1012400E000244B
:10116000204638BD10B504460A480089B0F5836FA3
:1011700000DB10BD0748406800B1FAE7054908895F
:10118000411C044A118102F10A010C54FFF74AFA8A
:1011900000BFEEE76C00002070B5ADF5816D05462F
:1011A0000E46144640F2044101A8FFF7C7F800209C
:1011B00000906B4601AA3146284600F0C9FCB0F108
:1011C000FF3F1CD0012808D002282BD11748006807
:1011D00010B116480068804724E01548006838B10F
:1011E000009882B21348016801A8114B1B68984708
:1011F00010480068009908440E49086012E00E4843
:10120000006810B10C48006880470020074908605A
:10121000074908600849086008A0FFF7CDFD0020D5
:10122000207000BF00BF0DF5816D70BD040000206F
:101230000C00002018000020080000200D0AD4CB6C
:10124000D0D0B3CCD0F22E2E2E0000002DE9F047E6
:1012500004460D4617469846DDF820900026B24613
:101260002078012801D180261DE02078022801D1B4
:10127000460218E02078042802D10220BDE8F08759
:101280002078032801D10020F8E72078182807D11A
:101290006078182801D10020F0E76FF00500EDE735
:1012A0004FF0FF30EAE76078484502D06FF0010068
:1012B000E4E7A0786FEA0901C9B2884202D06FF072
:1012C0000200DBE7701D854202D06FF00300D5E716
:1012D000B1B2E01C00F019FC8246681E215CA81E19
:1012E000205C41EA0020504502D06FF00400C5E7C1
:1012F0003246E11C3846FEF7DCFFC8F800600120EA
:10130000BCE710B500F002F810BD00000CB50020DD
:10131000019000903348006840F480303149086003
:1013200000BF3048006800F4003000900198401C75
:101330000190009818B90198B0F5A06FF1D1294833
:10134000006800F4003010B10120009001E000209E
:1013500000900098012843D12348006840F0100015
:10136000214908600846006820F00300086008462C
:10137000006840F0020008601A4840681949486057
:101380000846406848600846406840F4806048600D
:101390000846406820F47C1048600846406840F4E5
:1013A000E81048600846006840F08070086000BFA0
:1013B0000C48006800F000700028F9D00948406827
:1013C00020F00300074948600846406840F00200EA
:1013D000486000BF0348406800F00C000828F9D1BD
:1013E0000CBD0000001002400020024010B5134860
:1013F000006840F001001149086008464068104943
:1014000008400E494860084600680E4908400B49EC
:1014100008600846006820F480200860084640689C
:1014200020F4FE0048604FF41F008860FFF769FF5A
:101430004FF000600449086010BD00000010024039
:101440000000FFF8FFFFF6FE08ED00E010B50024F5
:101450000121880700F032F9012810D1012180070D
:1014600000F028F800BF08E0054850F82400401CB0
:10147000034941F82400601C84B2032CF4DB10BD46
:10148000B408002010B50121084800F017F9012820
:101490000BD10121054800F00DF80548006820B186
:1014A000034800688047FFF781F810BD0004004042
:1014B00054000020CA430282704721B1028842F0E2
:1014C0000102028004E002884FF6FE731A40028097
:1014D0007047000010B504466848844208D10121D5
:1014E000C014FFF7B9FC0021E014FFF7B5FCC4E01D
:1014F000B4F1804F08D101210846FFF78DFC00218F
:101500000120FFF789FCB8E05D48844208D1012141
:101510000220FFF781FC00210220FFF77DFCACE0F8
:101520005848844208D101210420FFF775FC0021AE
:101530000420FFF771FCA0E05348844208D1012148
:101540000820FFF769FC00210820FFF765FC94E004
:101550004E48844208D101211020FFF75DFC002194
:101560001020FFF759FC88E04948844208D1012146
:101570002020FFF751FC00212020FFF74DFC7CE0EC
:101580004448844208D101214014FFF765FC002142
:101590006014FFF761FC70E03F48844209D10121EB
:1015A000C804FFF759FC00214FF40020FFF754FC5A
:1015B00063E03A48844209D101210805FFF74CFC59
:1015C00000214FF48010FFF747FC56E03448844276
:1015D00009D101214805FFF73FFC00214FF400101D
:1015E000FFF73AFC49E02F48844208D1012140200E
:1015F000FFF712FC00214020FFF70EFC3DE02A48D7
:10160000844208D101218020FFF706FC00218020C0
:10161000FFF702FC31E02548844208D10121801502
:10162000FFF7FAFB0021A015FFF7F6FB25E02048A5
:10163000844209D101210804FFF70EFC00214FF478
:101640008030FFF709FC18E01A48844209D10121D3
:101650004804FFF701FC00214FF40030FFF7FCFBCA
:101660000BE01548844208D101218804FFF7F4FB00
:1016700000214FF48020FFF7EFFB10BD002C01404C
:101680000004004000080040000C00400010004032
:101690000014004000340140004C01400050014063
:1016A0000054014000180040001C00400020004091
:1016B00000400140004401400048014030B502466E
:1016C000002000230024158A05EA0103958905EA14
:1016D000010413B10CB1012000E0002030BD1AB1AB
:1016E00083890B43838102E083898B438381704725
:1016F00081847047002202881D4B98420ED01D4BFA
:1017000098420BD0B0F1804F08D01B4B984205D0C7
:101710001A4B984202D01A4B984204D14FF68F735D
:101720001A404B881A43174B984207D0164B9842E1
:1017300004D04FF6FF431A40CB881A4302808B88AF
:1017400083850B8803850A4B98420BD0094B98423E
:1017500008D00E4B984205D00D4B984202D00D4B4D
:10176000984201D10B7A03860123838270470000DF
:10177000002C0140003401400004004000080040FB
:10178000000C0040001000400014004000400140E8
:10179000004401400048014010B5FEF707FF034830
:1017A0000089024948600020088110BD6C000020BB
:1017B00010B540F22771344800F0D6F801282ED138
:1017C00040F22771304800F065F830480068406802
:1017D000C0B12E48006802892C4800680089401C6E
:1017E0002A4B1B681881294800680A30815C26480A
:1017F00000F07BF9254800684068401E23490968CD
:1018000048603FE0002240F227711F4800F0D6F800
:10181000012240F226611C4800F0D0F832E040F28C
:101820002661194800F0A0F898B140F226611648E8
:1018300000F030F8002240F22661134800F0BEF8B4
:1018400000201249096848600120104909680870A1
:1018500018E040F225510C4800F086F890B140F2B3
:101860002551094800F016F8074800F039F9C4B2CC
:101870000748006828B12046054909688847FEF7EF
:10188000D1FE00BF10BD0000003801405000002014
:101890004C00002010B50022002340F66A14A1423B
:1018A00000D100BF0A1201249440A3B2DC4304809B
:1018B00010BD21B1828942F40052828104E0828904
:1018C0004DF6FF731A4082817047000010B5044640
:1018D0002048844209D101218803FFF7BDFA002185
:1018E0004FF48040FFF7B8FA32E01B48844209D138
:1018F00001214804FFF790FA00214FF40030FFF770
:101900008BFA25E01548844209D101218804FFF7AC
:1019100083FA00214FF48020FFF77EFA18E0104888
:10192000844209D10121C804FFF776FA00214FF45F
:101930000020FFF771FA0BE00A48844208D1012128
:101940000805FFF769FA00214FF48010FFF764FAE9
:1019500010BD000000380140004400400048004035
:10196000004C00400050004070B5024600240023A7
:101970000025002040F66A16B14200D100BFC1F335
:10198000421501F01F03012606FA03F3012D02D1CF
:101990009689334006E0022D02D1168A334001E0D9
:1019A000968A33400C12012606FA04F41688344055
:1019B00013B10CB1012000E0002070BDF0B503466A
:1019C000002400260025002040F66A17B94200D105
:1019D00000BF1846C1F3421401F01F06012707FAA1
:1019E00006F5012C01D10C3004E0022C01D110309D
:1019F00000E014301AB107682F43076002E007685F
:101A0000AF430760F0BD00002DE9F04786B0054602
:101A10000E460024A24600BFA1460027B08900B1AF
:101A200000BF2F462C8A4CF6FF700440F088044318
:101A30002C82AC894EF6F3100440B08831890843FB
:101A4000718908430443AC81AC8A4FF6FF400440DF
:101A5000B0890443AC8201A8FFF76EFA1F488742A1
:101A600002D1DDF810A001E0DDF80CA0A88900F497
:101A7000004040B10AEBCA0000EB0A10316849008F
:101A8000B0FBF1F807E00AEBCA0000EB0A1031687E
:101A90008900B0FBF1F86420B8FBF0F004012009E4
:101AA000642101FB1089A88900F4004040B1322074
:101AB00000EBC900B0FBF1F000F00700044308E0C0
:101AC000322000EB09106421B0FBF1F000F00F00B0
:101AD00004432C8106B0BDE8F087000000380140C7
:101AE00001468888C0F308007047C1F3080282806D
:101AF00070474FF41651016000218180C18001813F
:101B00000C21418100218181704730B502460B468E
:101B10000020002116E012F8015B80EA0520082170
:101B20000EE000F400442CB141F2210484EA4004A8
:101B3000A0B203E04FF6FF7404EA40004C1EA1B2CD
:101B40000029EED11C1EA3F10105ABB2E3D130BDDB
:101B50002DE9F84307460C46154698464FF0000914
:101B6000002693480078062817D2DFE800F0031714
:101B700094A2FEFD00208F4908608F4908608F49BC
:101B8000087001208A4908708D488068002803DBAE
:101B900000208B49886000E000BF04E1884880682D
:101BA000B0F57A7F04DB002085498860012000E0E1
:101BB000002040B1804A7E49432000F005F9002012
:101BC0007B490870EFE0206800B9ECE079480078C4
:101BD000009043462A4638462168FFF737FB46B255
:101BE00000202060AEB3012E02D0022E36D110E0CC
:101BF000E87818B905206E49087009E04FF002092D
:101C000002206B4908706B480068401C69490860F5
:101C100036E06C480068401C6A4908600846006865
:101C2000012803D101211520FEF79CFD65480068BD
:101C300002280DD100206349086001210620FEF72B
:101C400091FD01214320FEF78DFD002058490870C9
:101C500016E0FFE704205649087011E0564A54493F
:101C6000432000F0B1F855480078052802DB042035
:101C70004F49087051480078401C5049087000BF17
:101C800000BF4F488068002803DB00204C49886073
:101C900000E000BF87E0484A4549062000F094F87C
:101CA000454A4349432000F08FF80320404908701B
:101CB00079E043488068B0F57A7F04DB0020404932
:101CC0008860012000E0002018B105203849087024
:101CD00069E0206800B966E0364800780090434625
:101CE0002A4638462168FFF7B1FA46B20020206044
:101CF0008EB1012E28D14FF001092E480068401CFA
:101D00002C49086000202D4908702B4A28490620DC
:101D100000F05AF821E02948007850B10020254908
:101D20000860012022490870234A062000F04CF880
:101D300004E0214A1E49152000F046F81F480078AB
:101D4000401C1E49087008E000201C4908701A4A0F
:101D50001749152000F038F800BF00BF1848806808
:101D6000002806DB002001E013E004E0144988604D
:101D700000E000BF17E001211820FEF7F3FC01216D
:101D80001820FEF7EFFC4FF0FF39002008490870DB
:101D900000BF01210620FEF7E5FC4FF0FF390020CF
:101DA0000349087000BF00BF4846BDE8F883000043
:101DB0002C00002030000020340000202D000020E6
:101DC000B40800203800002037B50D46144600BF87
:101DD00001216846FEF7C6FC0128F9D19DF80000F4
:101DE000062802D1002020600BE09DF80000152895
:101DF00007D12068401C20602068052801DD0420F0
:101E000028703EBD38B5002413E00B4800EBC40039
:101E10008088ADF8000010208DF8030003208DF8B5
:101E20000200054951F834006946FEF780FE601C47
:101E3000C4B2022CE9D338BD3C000020044901EBB8
:101E4000C0018988024A52F83020116170470000B1
:101E50003C000020044901EBC0018988024A52F885
:101E600030205161704700003C0000200024FEF744
:101E700047FBFEF7E5FC1AE0FEF7ACFC0C480068F7
:101E8000B0F5FA7F04DB002009490860012000E07A
:101E9000002060B11CB10020FFF7DCFF02E0002051
:101EA000FFF7CCFF0CB9012000E000200446E3E777
:101EB000B4080020D41E0008000000206C000000C0
:101EC0006C010008401F00086C000020B40E0000E8
:101ED0008801000800000000000000000000000071
:101EE00000000000000000000000000000000108E9
:101EF00000000000000000000000000000000000E2
:101F000000000000000000000000000000000000D1
:101F1000000C0140200000000018014020000000DB
:101F200000000000900400200000000000000000FD
:101F3000010203040102030406070809020406085B
:0400000508000131BD
:00000001FF
