:020000040800F2
:1000000018040020C9050008A1050008A305000880
:10001000A5050008A7050008A905000800000000C4
:10002000000000000000000000000000AB05000818
:10003000AD05000800000000AF050008B10500088C
:10004000090600080D06000811060008150600083C
:10005000190600081D0600082106000825060008EC
:10006000290600082D06000831060008350600089C
:10007000390600083D06000841060008450600084C
:10008000490600084D0600085106000855060008FC
:10009000590600085D0600086106000865060008AC
:1000A000690600086D06000871060008750600085C
:1000B000790600087D06000881060008850600080C
:1000C000890600088D0600089106000895060008BC
:1000D000990600089D060008A1060008A50600086C
:1000E000A9060008AD060008B1060008B50600081C
:1000F000B9060008BD060008C1060008C5060008CC
:10010000C9060008CD060008D1060008D50600087B
:10011000D9060008DD060008E1060008E50600082B
:10012000E9060008ED060008F1060008F5060008DB
:10013000DFF83C01DFF83C110860DFF83C01DFF834
:10014000341108607047DFF83401006850F0800017
:10015000DFF828110860704770B5040004265FF4CA
:10016000302000F091F805002800C0B2042820D10A
:10017000DFF80801006850F00200DFF800110860A5
:10018000DFF8FC000460DFF8F400006850F0400085
:10019000DFF8E81008605FF4302000F075F8050023
:1001A000DFF8D800016841F6FD700140DFF8CC00AF
:1001B00001602800C0B270BDF8B504000D0004272E
:1001C000002000904FF4005000F05EF80600300070
:1001D000C0B204282FD1DFF8A400006850F001005D
:1001E000DFF89810086025804FF4005000F04CF8BC
:1001F00006003000C0B2042814D1A01C00902800D2
:10020000000C009908804FF4005000F03DF8060003
:10021000DFF86800016841F6FE700140DFF85C001D
:10022000016008E0DFF85400016841F6FE7001400B
:10023000DFF8480001603000C0B2F2BD114908602B
:10024000704704210F480068C00701D501200CE069
:100250000C480068400701D5022006E00948006804
:10026000C00601D5032000E00420C0B270470000A2
:100270002301674504200240AB89EFCD10200240E6
:10028000142002400C20024070B504000425FFF742
:10029000D8FF06003000C0B2012806D1002C04D0DF
:1002A000FFF7CFFF0600641EF4E7002C01D1052004
:1002B00006003000C0B270BD80B54E48006850F0F6
:1002C00001004C4908604C4801684C4801404A48CC
:1002D0000160484801684A48014046480160454875
:1002E000006830F48020434908604348006830F4D7
:1002F000FE00414908605FF41F004249086000F0B9
:1003000005F85FF000604049086001BD80B500F06D
:1003100001F801BD82B00020019000200090354816
:10032000006850F48030334908603248006810F4A7
:10033000003000900198401C01900098002803D1E3
:100340000198B0F5A06FF0D12A480068800302D56B
:100350000120009001E0002000900098012847D182
:100360002A48006850F010002849086027480068B3
:1003700080088000254908602448006850F0020089
:10038000224908601C4800681B4908601A48006838
:10039000194908601848006850F4806016490860E0
:1003A0001548006830F47C10134908601248006852
:1003B00050F4E810104908600E48006850F0807052
:1003C0000C4908600B4800688001FBD50A480068AA
:1003D00080088000084908600748006850F0020063
:1003E000054908600448006810F00C000828F9D19D
:1003F00002B0704700100240041002400000FFF8F5
:10040000FFFFF6FE0810024008ED00E00020024069
:1004100080B5FFF78DFE08202D4908603420FFF7D6
:100420000DFF00202B4908602A4800682849096808
:10043000884214D228480078042810D12548006842
:100440004FF40062254902FB0010FFF785FE2249A8
:10045000087020480068401C1E490860E4E71F48F7
:100460001F4908601E4800681E49884211D21A4878
:10047000007804280DD11C48016819480068FFF76E
:100480009BFE1549087016480068001D1449086055
:10049000E8E7FFF758FE1148114908601048006866
:1004A0001049884213D21148007800280FD00C4818
:1004B000006800680C490968884202D000200B4996
:1004C000087007480068001D05490860E6E7FEE778
:1004D0000C00002004000020100000200080000814
:1004E0000800002000C000080000002011000020CB
:1004F00010B450F8041B79B1026843680244083014
:10050000DC0744BFA9F10104E31852F8044B43F897
:10051000044B091FF9D1ECE710BC704710B507492F
:1005200079441831064C7C44163404E00A68081DEE
:10053000114488470146A142F8D110BD08000000CF
:1005400018000000ADFFFFFF14000000680000006D
:10055000000000200000000000F00DF8002801D08D
:10056000FFF7DCFFAFF300800020AFF30080FFF760
:100570004FFF00F002F80120704700F001B80000C2
:100580000746384600F002F8FBE7000080B5AFF3FD
:100590000080024A11001820ABBEFBE726000200D3
:1005A0007047FEE7FEE7FEE7FEE7704770477047DB
:1005B00070470000CDAB10320000000000000000CA
:1005C0000000000004010000014880470148004786
:1005D000B9020008D9050008AFF30080AFF300802E
:1005E000FFF7BAFFFFF7DCBFFFF7DBBFFFF7DABFAC
:1005F000FFF7D9BFFFF7D8BFFFF7D7BFFFF7D6BFC9
:10060000FFF7D5BFFFF7D4BFFFF7FEBFFFF7FEBF71
:10061000FFF7FEBFFFF7FEBFFFF7FEBFFFF7FEBF0E
:10062000FFF7FEBFFFF7FEBFFFF7FEBFFFF7FEBFFE
:10063000FFF7FEBFFFF7FEBFFFF7FEBFFFF7FEBFEE
:10064000FFF7FEBFFFF7FEBFFFF7FEBFFFF7FEBFDE
:10065000FFF7FEBFFFF7FEBFFFF7FEBFFFF7FEBFCE
:10066000FFF7FEBFFFF7FEBFFFF7FEBFFFF7FEBFBE
:10067000FFF7FEBFFFF7FEBFFFF7FEBFFFF7FEBFAE
:10068000FFF7FEBFFFF7FEBFFFF7FEBFFFF7FEBF9E
:10069000FFF7FEBFFFF7FEBFFFF7FEBFFFF7FEBF8E
:1006A000FFF7FEBFFFF7FEBFFFF7FEBFFFF7FEBF7E
:1006B000FFF7FEBFFFF7FEBFFFF7FEBFFFF7FEBF6E
:1006C000FFF7FEBFFFF7FEBFFFF7FEBFFFF7FEBF5E
:1006D000FFF7FEBFFFF7FEBFFFF7FEBFFFF7FEBF4E
:1006E000FFF7FEBFFFF7FEBFFFF7FEBFFFF7FEBF3E
:0806F000FFF7FEBFFFF7FEBF9C
:04000005080005D911
:00000001FF
