:020000040800F2
:1000000000800020690200080000000000000000DD
:1000100000000000000000000000000000000000E0
:1000200000000000000000000000000000000000D0
:1000300000000000000000000000000000000000C0
:1000400000000000000000000000000000000000B0
:1000500000000000000000000000000000000000A0
:100060000000000000000000000000000000000090
:100070000000000000000000000000000000000080
:100080000000000000000000000000000000000070
:100090000000000000000000000000000000000060
:1000A0000000000000000000000000000000000050
:1000B0000000000000000000000000000000000040
:1000C0000000000000000000000000000000000030
:1000D0000000000000000000000000000000000020
:1000E0000000000000000000000000000000000010
:1000F0000000000000000000000000000000000000
:1001000000000000000000000000000000000000EF
:1001100000000000000000000000000000000000DF
:1001200000000000000000000000000000000000CF
:1001300000000000000000000000000000000000BF
:1001400000000000000000000000000000000000AF
:1001500082B0104B0193104B009307E0009B5A1C98
:100160000092019A511C019112781A70009B0B4A5F
:100170009342F3D30A4B009305E0009B00221A70D0
:10018000009B01330093009B064A9342F5D302B0D3
:10019000704700BFB40300080000002000000020EA
:1001A00000000020000000202D4B12221A602D4A72
:1001B0002C4B1B6843F48033136000BF294B1B6832
:1001C00003F40033002BF9D0264A264BDB6A43F0B8
:1001D0004003D362234A234BDB6A43F4C063D362F8
:1001E000204A204B1B6843F08063136000BF1D4B07
:1001F0001B6803F00063002BF9D01A4A194BDB6A25
:1002000043F48033D362174A164BDB6A43F004038E
:10021000D362144A134B5B6843F480335360114A32
:10022000104B5B6843F4E01353600E4A0D4B5B6860
:1002300043F4806353600B4A0A4B1B6843F080739E
:10024000136000BF074B1B6803F00073002BF9D04D
:10025000044A044B5B6843F002035360704700BFDD
:10026000002002400010024000B583B0FFF770FF8D
:10027000FFF79AFF002301934A4A4A4B9B6943F0D8
:1002800001039361474A474B9B6943F00403936121
:10029000444A444B9B6943F480439361424A424B36
:1002A0005B6823F47F6353603F4A3F4B5B6843F4D2
:1002B0003B6353603D4A3D4BDB6843F40053D360DE
:1002C0003A4A3A4BDB68D360384A384B1B691361B2
:1002D000364B41F64C529A60344A344BDB6843F05B
:1002E0000803D360314A314BDB6843F00403D36029
:1002F000002301930DE02D4A019B6133536000BF41
:100300002A4B1B6803F04003002BF9D0019B0133FB
:100310000193019B192BEED9002301930DE0234A91
:10032000019B4133536000BF204B1B6803F0400327
:10033000002BF9D0019B01330193019B192BEED9BE
:10034000002301930DE0194A019B3033536000BF35
:10035000164B1B6803F04003002BF9D0019B0133BF
:100360000193019B092BEED9104B0A225A6000BF62
:100370000E4B1B6803F04003002BF9D00B4B0D22F2
:100380005A6000BF094B1B6803F04003002BF9D0F3
:10039000074B019302E0019B013B0193019B002B62
:1003A000F9D1A5E7001002400008014000380140E3
:0403B000404B4C0072
:040000050800026984
:00000001FF
